:020000040800F2
:10000000005000202D6A0008395500083D550008B1
:1000100041550008455500084955000800000000FA
:100020000000000000000000000000004D55000826
:1000300051550008000000005555000859550008AA
:10004000756A0008756A0008756A0008615500083D
:10005000756A0008756A000871550008756A00081D
:10006000756A0008756A0008756A0008756A0008F4
:10007000756A0008756A0008756A0008756A0008E4
:10008000756A0008756A0008756A0008756A0008D4
:100090007D550008756A0008756A0008756A0008D1
:1000A000756A0008756A0008756A0008756A0008B4
:1000B000756A0008756A0008756A00088D550008A1
:1000C0009D550008756A0008756A0008756A000881
:1000D000AD550008756A0008756A0008BD5500082E
:1000E000756A0008756A0008756A0008000000005B
:1000F0000000000000000000000000000000000000
:0C01000000000000000000005FF808F1A3
:10010C0010B5054C237833B9044B13B10448AFF345
:10011C0000800123237010BD680300200000000044
:10012C0020750008084B10B51BB108490848AFF3FF
:10013C0000800848036803B910BD074B002BFBD0A7
:10014C00BDE81040184700BF000000006C03002001
:10015C0020750008680300200000000010B504465C
:10016C000E4B18784FF47A73B3FBF0F30C4A10680B
:10017C00B0FBF3F000F0F6F958B90F2C0BD80022B5
:10018C0021464FF0FF3000F0A1F9044B5C600020D9
:10019C0010BD012010BD012010BD00BF00000020CB
:1001AC001801002008B5074A136843F010031360C8
:1001BC00032000F079F90020FFF7D0FF05F068F874
:1001CC00002008BD00200240034A13680349097847
:1001DC000B441360704700BF5C0600200000002039
:1001EC00014B1868704700BF5C06002038B5044608
:1001FC00FFF7F6FF0546B4F1FF3F02D0044B1B7826
:10020C001C44FFF7EDFF401B8442FAD838BD00BFF9
:10021C000000002070B483B00023019390F82430C8
:10022C00012B00F08880012380F824304B68062BCA
:10023C000ED80668756B03EB8303053B1F249C40AB
:10024C0025EA04040A6802FA03F3234373631EE0ED
:10025C000C2B0ED805682A6B03EB8303233B1F245E
:10026C009C4022EA04040A6802FA03F323432B633A
:10027C000DE00568EA6A03EB8303413B1F249C40B5
:10028C0022EA04040A6802FA03F32343EB620B68C4
:10029C00092B0ED90668F56803EB43031E3B0724B4
:1002AC009C4025EA04048A6802FA03F32343F360B2
:1002BC000CE00668356903EB430307249C4025EAF0
:1002CC0004048A6802FA03F3234333610B68103B7E
:1002DC00012B26D803681A4A93421CD19A6812F44F
:1002EC00000F20D19A6842F400029A600B68102B20
:1002FC001BD1144B1B68144AA2FB03239B0C03EB6E
:10030C0083035A00019202E0019B013B0193019B84
:10031C00002BF9D10AE0836A43F0200383620123A6
:10032C0004E0002302E0002300E00023002280F818
:10033C002420184600E0022003B070BC704700BFB8
:10034C00002401401801002083DE1B4338B50368EC
:10035C009A6812F0010F1ED004469A6822F001022E
:10036C009A60FFF73DFF05460EE0FFF739FF401B93
:10037C00022809D9A36A43F01003A362E36A43F08D
:10038C000103E362012038BD23689B6813F0010F61
:10039C00EBD1002038BD002038BD00BF00287DD037
:1003AC0038B50446836A23B9C36280F8243004F05C
:1003BC008FFF2046FFF7CAFFA36A13F0100F67D117
:1003CC00002865D1A36A23F4885323F0020343F079
:1003DC000203A3626268E3691343E16843EA4103E1
:1003EC00A268B2F5807F04D0012A05D14FF4807544
:1003FC0003E04FF4807500E000256269012A0FD1FB
:10040C0031B9A269013A45EA423242F4006507E08B
:10041C00A26A42F02002A262E26A42F00102E262A7
:10042C0021684A6822F469422A434A6021688D682F
:10043C001B4A2A401A438A60A268B2F5807F01D019
:10044C00012A03D12269013A110500E00021256837
:10045C00EA6A22F470020A43EA6222689168114A3D
:10046C000A40934208D10023E362A36A23F00303FA
:10047C0043F00103A36238BDA36A23F0120343F0D7
:10048C001003A362E36A43F00103E362012038BD69
:10049C00A36A43F01003A362012038BD012070470A
:1004AC00FDF7E1FFFE0E1FFF074AD36823F4E0635C
:1004BC001B041B0C000200F4E060184340F0BF600A
:1004CC0040F40030D060704700ED00E030B4164BC3
:1004DC00DB68C3F30223C3F10704042C28BF0424F4
:1004EC001D1D062D01D9DD1E00E00025012303FA98
:1004FC0004F4013C2140A940AB40013B1A400A43A3
:10050C00002806DA00F00F001201D2B2074B1A5481
:10051C0007E01201D2B200F1604000F5614080F8B2
:10052C00002330BC704700BF00ED00E014ED00E08C
:10053C00420900F01F00012303FA00F0014B43F8BD
:10054C002200704700E100E0430900F01F00012287
:10055C0002FA00F02033024A42F82300704700BF31
:10056C0000E100E00138B0F1807F0AD2064B586000
:10057C00F021064A82F823100020986007221A60A6
:10058C0070470120704700BF10E000E000ED00E074
:10059C0008B590F82130022B03D00423836301208B
:1005AC0008BD0268136823F00E0313600268136819
:1005BC0023F0010313600368194A934211D01432DB
:1005CC00934210D0143293420FD0143293420FD076
:1005DC00143293420FD0143293420FD14FF4801245
:1005EC000EE001220CE010220AE04FF4807207E0CA
:1005FC004FF4805204E04FF4803201E04FF08072EF
:10060C00084B5A60012380F82130002380F82030F9
:10061C00436B13B19847002008BD002008BD00BFF4
:10062C000800024000000240F0B583B000263446BA
:10063C00D5E00122A2400B6813409A4240F0CE80D4
:10064C004D68122D2DD00BD8022D27D003D85DB3B9
:10065C00012D1ED035E0032D30D0112D1BD030E0F4
:10066C00614FBD4220D008D8A7F58017BD421BD0E2
:10067C0007F58037BD4224D116E05C4FBD4213D044
:10068C0007F58037BD420FD0A7F58017BD4218D1B2
:10069C000AE0CE6815E0CE68043612E0CE68083663
:1006AC000FE0CE680C360CE08D684DB1012D02D1F7
:1006BC000261082605E04261082602E0002600E0FF
:1006CC000426FF2B01D8864601E000F1040EFF2B17
:1006DC0001D8A20002E0A4F108029200DEF800703A
:1006EC000F25954027EA050506FA02F22A43CEF8B3
:1006FC0000204A6812F0805F70D03D4A956945F041
:10070C0001059561926902F001020192019AA70814
:10071C00BD1C384A52F8255004F0030292004FF0E9
:10072C000F0E0EFA02FE25EA0E0E334DA8420DD026
:10073C0005F58065A8420BD005F58065A84209D067
:10074C0005F58065A84207D1032506E0002504E0E5
:10075C00012502E0022500E0042505FA02F24EEA2A
:10076C0002020237234D45F827204A6812F4803FD5
:10077C0005D005F580652A681A432A6004E01F4DF0
:10078C002A6822EA03022A604A6812F4003F04D065
:10079C001A4D6A681A436A6004E0184D6A6822EAC6
:1007AC0003026A604A6812F4801F04D0134DAA68D1
:1007BC001A43AA6004E0114DAA6822EA0302AA6057
:1007CC004A6812F4001F04D00C4DEA681343EB6026
:1007DC0004E00A4DEA6822EA0303EB6001340F2CB3
:1007EC007FF627AF03B0F0BD0000211000003110E0
:1007FC0000100240000001400008014000040140CC
:10080C008368194201D0012070470020704700BF57
:10081C000AB101617047090401617047C36859400E
:10082C00C160704708B5044B5B69034203D0024BAF
:10083C00586105F03DFF08BD0004014090F83E30C2
:10084C00DBB2402B0ED1036D2BB90268436C03F065
:10085C00FE03136132E00268436C43F00103DBB228
:10086C0013612BE00369B3F5804F11D190F83D3043
:10087C00DBB2212B05D10268436C03F0FE0313613C
:10088C001CE00268436C43F00103DBB2136115E01A
:10089C00036D43B90268436CDB1103F0060343F0AC
:1008AC00F00313610AE0036D012B07D10268436C5E
:1008BC00DB1103F0060343F0F103136100207047D2
:1008CC000268436CDBB213610020704710B48DB02A
:1008DC0090F83E30DAB2C16A046B90F83D30DBB26E
:1008EC00222B40F0D380036D4BB9402A07D10193E2
:1008FC0003685A6901929B690193019BCEE0036DD9
:10090C009BB90369B3F5404F0FD1002302930368E1
:10091C005A6902929A690292029A1A6842F4807297
:10092C001A60036D01330365B8E0438D9BB25BB96C
:10093C00039303685A6903929A690392039A1A689B
:10094C0042F400721A609EE0438D9BB2012B54D18D
:10095C0011F5803F22D10268136823F48063136081
:10096C0003685A6812F4006F0CD01A6822F4806283
:10097C001A600023049303685A6904929B690493D8
:10098C00049B80E0002205925A6905929A690592AF
:10099C00059A1A6842F400721A6074E004291AD09D
:1009AC00082918D0122C16D0C36A022B05D0026865
:1009BC00136823F48063136004E00268136843F443
:1009CC00806313600023069303685A6906929B693F
:1009DC000693069B57E00268136823F48063136048
:1009EC000023079303685A6907929A690792079A3A
:1009FC001A6842F400721A6045E0438D9BB2022BD8
:100A0C002BD1C36A022B11D00268136843F4006324
:100A1C0013600023089303685A6908929A69089234
:100A2C00089A1A6822F480621A600CE00268136853
:100A3C0043F4806313600023099303685A69099295
:100A4C009B690993099B03685A6812F4006F1AD0CA
:100A5C005A6842F480525A6015E00268136843F4F5
:100A6C008063136003685A6812F4006F03D05A68ED
:100A7C0042F480525A6000230A9303685A690A921E
:100A8C009B690A930A9B0023036507E000230B93E1
:100A9C0003685A690B929B690B930B9B00200DB05A
:100AAC0010BC7047438D9BB253B10268436A591C0A
:100ABC0041621B781361438D9BB2013B9BB2438512
:100ACC0000207047438D9BB253B1436A5A1C42625B
:100ADC00026812691A70438D9BB2013B9BB243852D
:100AEC0000207047002800F0A28070B5044690F8F2
:100AFC003D3013F0FF0F04D1002380F83C3004F09C
:100B0C0015FC242384F83D302268136823F001037C
:100B1C00136001F063FD6268474B9A4205D8474B5E
:100B2C0098428CBF0023012304E0454B98428CBFB4
:100B3C0000230123002B7CD1424BA3FB00239B0CF5
:100B4C0022685360216865683B4A954201D801339D
:100B5C0008E04FF4967202FB03F33B4AA2FB03231B
:100B6C009B0901330B6222686168334B99420AD8A6
:100B7C0001384900B0FBF1F00130C0F30B00042840
:100B8C0038BF042035E0A5685DB9431E01EB410672
:100B9C00B3FBF6F30133C3F30B03B3FA83F35B0933
:100BAC000CE0431E01EB810606EB8606B3FBF6F365
:100BBC000133C3F30B03B3FA83F35B09C3B955B920
:100BCC00431E01EB4100B3FBF0F00130C0F30B000E
:100BDC0040F400400DE0431E01EB810000EB80006F
:100BEC00B3FBF0F00130C0F30B0040F4404000E0E8
:100BFC000120D0612268E169236A0B4313602268EB
:100C0C002169E3680B43936022686169A3690B4314
:100C1C00D3602268136843F0010313600020206442
:100C2C00202384F83D30206384F83E0070BD012001
:100C3C007047012070BD00BFA08601007F841E009C
:100C4C00FF083D0083DE1B43D34D6210704700BF8D
:100C5C00704700BF704700BF90F83D30DAB2438D4B
:100C6C009BB2F3B110B50168436A5C1C44621B78FB
:100C7C000B61438D9BB2013B9BB24385438D9BB271
:100C8C006BB9292A0BD10268536823F48063536033
:100C9C0021230363282380F83D30FFF7DBFF00207E
:100CAC0010BD0020704700BF704700BF08B590F81A
:100CBC003D30DAB2438D9BB2DBB1436A591C4162C1
:100CCC00016809691970438D9BB2013B9BB2438546
:100CDC00438D9BB26BB92A2A0BD10268536823F45B
:100CEC008063536022230363282380F83D30FFF791
:100CFC00DBFF002008BD00BF704700BF08B50368CC
:100D0C009A6912F0040F01D0002100E001219B69C7
:100D1C0013F0800F01D1828900E0028BFFF7ECFF0A
:100D2C00002008BD704700BF08B590F83D30DBB21D
:100D3C00C26A042A01D0082A1BD1282B19D11E4BB8
:100D4C00C3620268536823F4E063536003686FF472
:100D5C0080625A610268136823F480631360002375
:100D6C000363202280F83D2080F83E30FFF7DAFF45
:100D7C0020E0212B1AD1104BC362212303632023C3
:100D8C0080F83D30002380F83E300268536823F42D
:100D9C00E063536003686FF480625A610268136801
:100DAC0023F480631360FFF755FF03E003686FF4CF
:100DBC0080625A61002008BD0000FFFF704700BF31
:100DCC0010B590F83D30DBB290F83E20D2B2C46A38
:100DDC00018D002938D1212B36D1042C14D0082CAC
:100DEC0012D014F5803F0FD00268536823F4E063EF
:100DFC00536011230363002380F83E30202380F8D6
:100E0C003D30FFF723FF7EE00268536823F4E06374
:100E1C0053600268136843F4007313600023036388
:100E2C00202380F83D3090F83E30DBB2402B05D1CA
:100E3C00002380F83E30FFF7C1FF64E0002380F808
:100E4C003E30FFF703FF5EE0212B03D0402A5AD13E
:100E5C00222B58D1438D9BB22BB90268536823F4D3
:100E6C00806353604FE090F83E30DBB2402B3FD1B3
:100E7C00036D9BB9C36C012B07D10268836CDBB289
:100E8C001361036D023303653DE00268836CC3F3A9
:100E9C0007231361036D0133036534E0036D012BEC
:100EAC0007D10268836CDBB21361036D01330365F8
:100EBC0029E0036D022B26D190F83D30DBB2222BBA
:100ECC0005D10268136843F4807313601BE090F83B
:100EDC003D30DBB2212B16D10268436A591C4162AA
:100EEC001B781361438D9BB2013B9BB243850AE097
:100EFC000268436A591C41621B781361438D9BB293
:100F0C00013B9BB24385002010BD00BF08B5C26AEF
:100F1C0090F83D30DBB2212B44D1438D9BB25BB1B9
:100F2C000268436A591C41621B781361438D9BB262
:100F3C00013B9BB2438535E0042A14D0082A12D019
:100F4C0012F5803F0FD00268536823F4E0635360BE
:100F5C0011230363002380F83E30202380F83D30BA
:100F6C00FFF774FE1EE00268536823F4E0635360DD
:100F7C000268136843F40073136000230363202397
:100F8C0080F83D3090F83E30DBB2402B05D1002389
:100F9C0080F83E30FFF712FF04E0002380F83E306B
:100FAC00FFF754FE002008BD704700BF08B590F84D
:100FBC003D30DBB2222B5ED1438D9BB2032B0BD980
:100FCC00436A5A1C4262026812691A70438D9BB2C2
:100FDC00013B9BB243854EE0023B012B18D8C36A00
:100FEC00022B0AD00268136823F480631360026832
:100FFC00136843F40063136004E00268136843F45D
:10100C00806313600268536823F48063536032E09A
:10101C00C36A022B05D00268136823F48063136043
:10102C0004E00268136843F4806313600268536839
:10103C0023F4E0635360436A5A1C426202681269EB
:10104C001A70438D9BB2013B9BB24385202380F8E1
:10105C003D300023036390F83E30DBB2402B05D1CA
:10106C00002380F83E30FFF79FFF04E0002380F858
:10107C003E30FFF7EDFD002008BD00BF08B5C26A89
:10108C00438D9BB2032B17D1042A04D0082A02D01B
:10109C0012F5803F04D10268136823F48063136057
:1010AC00436A5A1C4262026812691A70438D9BB2E1
:1010BC00013B9BB243855EE0438D9BB2022B4FD12B
:1010CC00042A17D0082A15D012F5803F12D0022A14
:1010DC0005D00268136823F48063136004E002688F
:1010EC00136843F4806313600268536823F44073FD
:1010FC00536009E00268536823F44073536002683C
:10110C00136843F400731360436A5A1C426202680A
:10111C0012691A70438D9BB2013B9BB24385436AA3
:10112C005A1C4262026812691A70438D9BB2013BD1
:10113C009BB24385202380F83D300023036390F855
:10114C003E30DBB2402B05D1002380F83E30FFF758
:10115C002BFF10E0002380F83E30FFF779FD0AE00A
:10116C00436A5A1C4262026812691A70438D9BB220
:10117C00013B9BB24385002008BD00BF704700BFF8
:10118C00704700BF10B5044690F83D30293B012B49
:10119C0005D800230363282380F83D3010E090F835
:1011AC003D30DBB2602B07D003685B6813F4006F33
:1011BC0002D1202380F83D300023236384F83E3095
:1011CC002268136823F40063136023685A6812F4CE
:1011DC00006F39D05A6822F400625A60636B93F83E
:1011EC002120012A12D0374A5A63606BFFF7D0F9DD
:1011FC00002851D02268136823F0010313602023C8
:10120C0084F83D30606B436B984745E0A36B2D4AE7
:10121C005A63A06BFFF7BCF900283DD023685A69CC
:10122C0012F0400F04D0626A511C61621B6913708A
:10123C002268136823F001031360202384F83D30E7
:10124C00A06B436B984727E094F83D20D2B2602AFC
:10125C0016D1202284F83D20002222645A6912F013
:10126C00400F04D0626A511C61621B6913702268C2
:10127C00136823F0010313602046FFF781FF0BE096
:10128C005A6912F0400F04D0626A511C61621B69EA
:10129C0013702046FFF772FF94F83D30DBB2282B19
:1012AC000FD1236C13F0040F0BD0074BE362002318
:1012BC002363202284F83D2084F83E302046FFF73B
:1012CC0031FD10BD151600080000FFFF10B582B0EF
:1012DC0090F83D30DBB201684A6822F4E0624A6063
:1012EC0000220192026851690191116841F00101DB
:1012FC001160019A01680A6822F480620A60016830
:10130C004A6812F4006F14D090F83D20D2B2222A11
:10131C0004D090F83D20D2B22A2A05D1826B1268F3
:10132C00526892B2428504E0426B1268526892B2E3
:10133C004285428D92B202B34A6912F0040F09D071
:10134C00426A541C446209691170428D92B2013A8E
:10135C0092B242850268516911F0400F09D0416A7E
:10136C004C1C446212690A70428D92B2013A92B2DC
:10137C004285026C42F004020264026C12B1FFF767
:10138C0001FF1FE0282B03D02A2B01D0292B0BD1D6
:10139C000E4BC36200230363202280F83D2080F8AB
:1013AC003E30FFF7BFFC0DE0026B222A01D0222B4E
:1013BC0008D100230363202280F83D2080F83E30C2
:1013CC00FFF772FC002002B010BD00BF0000FFFF51
:1013DC00F8B5054603689F695C695E6890F83E3015
:1013EC00DBB2102B01D0402B4FD114F0011F06D0D3
:1013FC0016F4007F03D02846FFF720FA12E0454B85
:10140C00234033B116F4007F03D02846FFF758FA77
:10141C0008E0414B23402BB116F4007F02D0284644
:10142C00FFF754FA3D4B3B40BBB13D4B23404BB116
:10143C0016F4806F06D03B4B23401BB92846FFF7B0
:10144C00BFFCF8BD374B2340002B61D016F4007F56
:10145C005ED02846FFF75AFDF8BD334B23404BB105
:10146C0016F4806F06D02F4B23401BB92846FFF78C
:10147C009DFDF8BD2B4B2340002B49D016F4007F6B
:10148C0046D02846FFF7FAFDF8BD234B23402BB17D
:10149C0016F4007F02D0FFF731FCF8BD234B23403C
:1014AC0033B116F4007F03D02846FFF70FFFF8BDC9
:1014BC001A4B3B40B3B11A4B23404BB116F4806F1F
:1014CC0006D0184B23401BB92846FFF7C5FBF8BDC7
:1014DC00144B2340E3B116F4007F19D02846FFF7D4
:1014EC00E1FAF8BD104B23404BB116F4806F06D0D7
:1014FC000C4B23401BB92846FFF7D8FBF8BD094B12
:10150C0023402BB116F4007F02D02846FFF7DAFAFD
:10151C00F8BD00BF0800010002000100040010002B
:10152C0080000100040001004000010010000100D7
:10153C0070B5044603685D695E68324A15420ED088
:10154C0016F4807F0BD0026C42F0010202646FF43F
:10155C0080725A610268136843F40043136015F4F7
:10156C00813F0AD016F4807F07D0236C43F002032E
:10157C00236423686FF400725A6115F4823F2CD0F7
:10158C0016F4807F29D094F83E30DBB2628D91B294
:10159C0094F83D20D2B2206B202B0CD159B9212AC2
:1015AC0005D0292A03D0282A05D1212803D1204689
:1015BC00FFF7BAFB11E0236C43F00403236494F8A7
:1015CC003E30DBB2102B04D12268136843F4007355
:1015DC00136023686FF480625A6115F4843F0AD05B
:1015EC0016F4807F07D0236C43F008032364236830
:1015FC006FF400625A61236C13B12046FFF7C2FDF1
:10160C0070BD00BF0001010008B5406A0268136894
:10161C0023F48063136000234385426B5363826B16
:10162C00536390F83D30DBB2602B0ED1202380F851
:10163C003D30002380F83E3003640268136823F0C9
:10164C0001031360FFF79CFD08BD202380F83D309B
:10165C00002380F83E300268136823F00103136006
:10166C00FFF78CFD08BD00BF002867D0F0B587B030
:10167C00044690F8293413F0FF0F04D1002380F8AE
:10168C00283404F033F8032384F82934206802F05A
:10169C0085F9254655F8107B6E460FCD0FC62B6885
:1016AC003360231D0ECB384602F066F9002120680A
:1016BC0002F07EF9002310E004EB4312012182F8C2
:1016CC00291082F828309386002182F82B10916320
:1016DC00D1639A1C5201A15001330E2BECD900237B
:1016EC0012E004EB4312002182F8291282F828320E
:1016FC00938682F82B12C2F83812C2F83C1203F10E
:10170C0012025201A15001330E2BEAD9254655F88D
:10171C00107B6E460FCD0FC62B683360231D0ECB8E
:10172C00384602F047F9002584F82450012384F848
:10173C002934206802F066FC284601E0012070473D
:10174C0007B0F0BD90F82834012B10D010B504462A
:10175C00012180F8281404F013F9206802F050FCE1
:10176C00206802F011F9002084F8280410BD022032
:10177C00704700BF90F82834012B0DD010B50446EB
:10178C00012380F8283480F82410006802F032FC21
:10179C00002084F8280410BD0220704738B54DB2E3
:1017AC00002D05DA01F07F0464012834044405E0BF
:1017BC0001F07F04640104F50A74044401F07F0114
:1017CC002170ED0F65702261E37090F82834012BC5
:1017DC000BD00546012380F828342146006802F01E
:1017EC00FFF8002085F8280438BD022038BD00BF62
:1017FC004AB2002A05DA01F07F035B012833034467
:10180C0005E001F07F035B0103F50A73034401F06B
:10181C007F011970D20F5A7090F82824012A0CD02D
:10182C0010B50446012280F828241946006802F0FD
:10183C0075FA002084F8280410BD0220704700BF00
:10184C0070B501F07F056C0104F50A710144044484
:10185C00C4F83C2205F11202520186188350002371
:10186C00736084F8293284F828521DB9006802F09C
:10187C00E5FB02E0006802F0E1FB002070BD00BF58
:10188C0001F00F01123100EB41108088704700BF4E
:10189C0070B501F07F056C0104F12801014404448A
:1018AC00E263AA1C52018618835000237360012343
:1018BC0084F8293084F828501DB9006802F0BEFB6A
:1018CC0002E0006802F0BAFB002070BD70B582B077
:1018DC0005460023ADF80630ADF8043016E2BDF82D
:1018EC00064014F00F0440F0C880BDF8063003F039
:1018FC0010039BB29BBB03889BB223F4E14323F000
:10190C0070039BB203802968B1F850309AB295F8F5
:10191C00283002EBC303023301EB4303D3F800344A
:10192C00C3F309036B64EA6B1344EB630021284691
:10193C0003F00EFF95F8243013F0FF0F00F0E68152
:10194C002B6C002B40F0E2812A6895F8243043F090
:10195C008003A2F84C30002385F82430D6E10388AC
:10196C009BB2ADF80430BDF8043003F400639BB2B5
:10197C0003B3B0F850309BB295F8282203EBC203A6
:10198C00063300EB4303D3F80034C3F30903C5F863
:10199C004432B5F82C2205F22C4102F0C3FC2A6823
:1019AC00138823F070031B051B0D1380284603F0CE
:1019BC00BDFEABE1BDF8043013F4004F00F0A6817E
:1019CC00038823F070031B051B0D03802868B0F8F7
:1019DC0050309BB295F8282203EBC203063300EB80
:1019EC004303D3F80034C3F30903C5F8443263B19D
:1019FC00B5F82C22D5F83C1202F094FCD5F83C2218
:101A0C00D5F844321344C5F83C320021284603F083
:101A1C0095FE2A68B2F850309BB2063302EB4303B2
:101A2C00D5F838123E290ED9C1F34F1211F01F0F01
:101A3C0001D1013A92B26FEAC2626FEA524292B29B
:101A4C00C3F800240AE0C1F34F0211F0010F01D0DA
:101A5C00013292B2920292B2C3F800242A6813881F
:101A6C009BB223F4804323F0700383F4405343F47C
:101A7C00004343F08003138048E130F824309BB2DC
:101A8C00ADF80430BDF8043013F4004F00F096802C
:101A9C0030F8243023F070031B051B0D20F8243084
:101AAC0005EB441393F83232E3B92868B0F85030A0
:101ABC009BB205EB441292F8282203EBC2030633C7
:101ACC0000EB4303B3F80064C6F30906002E52D0B2
:101ADC0005EB44113346B1F82C22D1F83C1202F03C
:101AEC0021FC48E0286805EB441393F8281230F8E1
:101AFC00213003F480439BB2B3B1B0F8502092B2C2
:101B0C0002EBC103023300EB4303B3F80064C6F3EA
:101B1C000906FEB105EB44113346B1F82E22D1F87B
:101B2C003C1202F0FFFB15E0B0F850309BB203EB17
:101B3C00C103063300EB4303B3F80064C6F3090694
:101B4C0046B105EB44113346B1F83022D1F83C12C2
:101B5C0002F0E8FB2A6805EB441393F8281232F8DC
:101B6C00213023F0F0031B051B0D43F4004343F01D
:101B7C00C00322F8213004F112035B01E9184A6812
:101B8C0032444A6005EB4411D1F83C223244C1F88E
:101B9C003C22EB581BB1D1F838128E4207D205EB20
:101BAC00441393F82812284603F0C8FD06E005EB11
:101BBC00441191F828122846FFF742FEBDF8043074
:101BCC0003F080039BB2002B00F0A0802A6832F84F
:101BDC0024309BB223F4E14323F070039BB222F830
:101BEC00243005EB441393F83230EBB92868B0F885
:101BFC0050309BB205EB441292F8282003EBC20341
:101C0C00023300EB4303D3F80034C3F30903A21CE3
:101C1C0005EB42125360002B51D005EB44118A8D19
:101C2C00C96B02F0F7F94AE0286805EB441393F806
:101C3C00281030F8213003F040039BB2BBB1B0F850
:101C4C00502092B202EBC103023300EB4303D3F8F2
:101C5C000034C3F30903A21C05EB42125360EBB131
:101C6C0005EB4411CA8DC96B02F0D4F916E0B0F83B
:101C7C0050309BB203EBC103063300EB4303D3F8A4
:101C8C000034C3F30903A21C05EB421253602BB1C1
:101C9C0005EB44110A8EC96B02F0BCF92A6805EBFE
:101CAC00441393F8281032F8213023F0F0031B056D
:101CBC001B0D43F4404343F0800322F82130296884
:101CCC00B1F850309AB205EB441090F8283002EB82
:101CDC00C303023301EB4303D3F80034C3F309030A
:101CEC00A11C49016A185360C26B1A44C2636B5839
:101CFC002BB990F82810284603F02AFD06E005EBD6
:101D0C00441494F828102846FFF7C2FD2868B0F850
:101D1C0044309BB2ADF8063013F4004F7FF4DFADC6
:101D2C00002002B070BD00BF10B50446006802F080
:101D3C006BF910F4004F02D02046FFF7C7FD206866
:101D4C0002F062F910F4806F0FD02268B2F84430C0
:101D5C009BB223F480639BB2A2F84430204603F07C
:101D6C0007FD00212046FFF705FD206802F04CF925
:101D7C0010F4804F08D02268B2F844309BB223F4A0
:101D8C0080439BB2A2F84430206802F03DF910F475
:101D9C00005F08D02268B2F844309BB223F40053A1
:101DAC009BB2A2F84430206802F02EF910F4805F48
:101DBC001DD02268B2F840309BB223F004039BB2D2
:101DCC00A2F840302268B2F840309BB223F00803EE
:101DDC009BB2A2F84030204603F0E6FC2268B2F831
:101DEC0044309BB223F480539BB2A2F84430206859
:101DFC0002F00AF910F4006F21D02268B2F84030DA
:101E0C009BB243F00803A2F840302268B2F8443089
:101E1C009BB223F400639BB2A2F844302268B2F860
:101E2C0040309BB243F00403A2F84030206802F02B
:101E3C00EBF810F4805F02D1204603F0A5FC20687B
:101E4C0002F0E2F810F4007F0BD02268B2F84430B4
:101E5C009BB223F400739BB2A2F84430204603F0EB
:101E6C0081FC206802F0D0F810F4807F08D0226842
:101E7C00B2F844309BB223F480739BB2A2F8443086
:101E8C0010BD00BF38B54AB2002A05DA01F07F0355
:101E9C005B012833034403E04B0103F50A7303444D
:101EAC0001249C7001F07F041C70D20F5A7090F8C2
:101EBC002824012A11D00546012280F8282419462D
:101ECC00006802F013F824B905F22C41286802F0DE
:101EDC009FF8002085F8280438BD022038BD00BFCB
:101EEC0010B54AB2002A05DA01F07F035B012833F2
:101EFC00034403E04B0103F50A73034400249C7074
:101F0C0001F07F011970D20F5A7090F82824012A21
:101F1C000BD00446012280F828241946006802F0F0
:101F2C001DF8002084F8280410BD022010BD00BF4D
:101F3C0010B401F08004A4B22CB101F07F0149016E
:101F4C002831014403E0490101F50A71014412B939
:101F5C008A728B8004E001228A72CB801B0C0B816D
:101F6C00002010BC704700BF0122014B1A60704763
:101F7C0020000E4290FAA0F0B0FA80F0024B03441D
:101F8C009B0000221A6070472080831082B0084B9F
:101F9C001B68084AA2FB03235B0A00FB03F00190B9
:101FAC0000BF019B5A1E0192002BF9D102B0704761
:101FBC0018010020D34D621070B582B0044603683E
:101FCC0013F0010F6BD0A84B5B6803F00C03042BD0
:101FDC000AD0A54B5B6803F00C03082B0DD1A24B68
:101FEC005B6813F4803F08D09F4B1B6813F4003FD1
:101FFC0055D06368002B52D1B8E16368B3F5803FCC
:10200C0005D1994A136843F48033136026E063B911
:10201C0003F1804303F504331A6822F480321A600A
:10202C001A6822F480221A6018E0B3F5A02F0CD1A4
:10203C0003F18043A3F53C331A6842F480221A6002
:10204C001A6842F480321A6008E0874B1A6822F44E
:10205C0080321A601A6822F480221A6063687BB19D
:10206C00FEF7BEF8054605E0FEF7BAF8401B6428FB
:10207C0000F27E817C4B1B6813F4003FF4D00EE021
:10208C00FEF7AEF8054605E0FEF7AAF8401B6428FB
:10209C0000F27081744B1B6813F4003FF4D1236879
:1020AC0013F0020F50D0704B5B6813F00C0F0AD07A
:1020BC006D4B5B6803F00C03082B16D16A4B5B6805
:1020CC0013F4803F11D1684B1B6813F0020F03D03F
:1020DC002369012B40F05081634A136823F0F80305
:1020EC00616943EAC10313602EE02369D3B1012275
:1020FC005E4B1A60FEF774F8054605E0FEF770F8C3
:10210C00401B022800F23A81574B1B6813F0020F58
:10211C00F4D0554A136823F0F803616943EAC1030C
:10212C00136011E00022514B1A60FEF759F8054676
:10213C0005E0FEF755F8401B022800F221814A4BBE
:10214C001B6813F0020FF4D1236813F0080F29D089
:10215C00A369ABB10122464B1A60FEF741F8054664
:10216C0005E0FEF73DF8401B022800F20B813E4BC8
:10217C005B6A13F0020FF4D00120FFF707FF11E0A8
:10218C0000223B4B1A60FEF72BF8054605E0FEF7E4
:10219C0027F8401B022800F2F780334B5B6A13F0E0
:1021AC00020FF4D1236813F0040F00F089802E4B3A
:1021BC00DB6913F0805F0BD12B4BDA6942F0805254
:1021CC00DA61DB6903F080530193019B012500E088
:1021DC000025284B1B6813F4807F13D1254A136804
:1021EC0043F480731360FDF7FBFF064605E0FDF733
:1021FC00F7FF801B642800F2C9801E4B1B6813F488
:10220C00807FF4D0E368012B05D1174A136A43F0A1
:10221C000103136222E063B903F1804303F5043335
:10222C001A6A22F001021A621A6A22F004021A6275
:10223C0014E0052B09D10C4B1A6A42F004021A6205
:10224C001A6A42F001021A6208E0074B1A6A22F07D
:10225C0001021A621A6A22F004021A62E368CBB114
:10226C00FDF7BEFF06460FE00010024000004242A0
:10227C008004424200700040FDF7B2FF801B41F227
:10228C008833984200F28480494B1B6A13F0020F8A
:10229C00F2D00FE0FDF7A4FF064606E0FDF7A0FF25
:1022AC00801B41F28833984274D8414B1B6A13F05F
:1022BC00020FF3D125B13E4AD36923F08053D36189
:1022CC00E369002B68D03A4A526802F00C02082AE3
:1022DC0064D0022B37D10022364B1A60FDF780FFF9
:1022EC00054604E0FDF77CFF401B022858D8304B14
:1022FC001B6813F0007FF5D1236AB3F5803F06D13C
:10230C002B494B6823F40032A36813434B602848D5
:10231C00436823F47411236A626A13430B434360CA
:10232C000122244B1A60FDF75BFF044604E0FDF725
:10233C0057FF001B022835D81D4B1B6813F0007F7C
:10234C00F5D0002031E000221A4B1A60FDF748FF4F
:10235C00044604E0FDF744FF001B022824D8144B6C
:10236C001B6813F0007FF5D100201EE001201CE05B
:10237C0003201AE0032018E0012016E0032014E0EB
:10238C00032012E0032010E003200EE003200CE0F9
:10239C0003200AE0032008E0002006E0012004E00E
:1023AC00032002E0032000E0032002B070BD00BF58
:1023BC00001002406000424230B486B0164D02ACB0
:1023CC0028686968AA68EB680FC42B8AADF80430DA
:1023DC00124B5B6803F00C02082A19D1C3F3834239
:1023EC0006A90A4412F8100C13F4803F0CD00B4BC6
:1023FC005B68C3F340430B4413F8142C084B03FBEA
:10240C0000F0B0FBF2F004E0064B03FB00F000E040
:10241C00034806B030BC7047387500080010024005
:10242C0000127A0000093D0070B5654B1B6803F083
:10243C0007038B420BD2624A136823F007030B434A
:10244C001360136803F00703994240F0A8800368F7
:10245C0013F0020F17D013F0040F04D0594A53682D
:10246C0043F4E0635360036813F0080F04D0554A3B
:10247C00536843F460535360524C636823F0F0028A
:10248C008368134363600D460446036813F0010F21
:10249C004DD04268012A05D14A4B1B6813F4003F0A
:1024AC000DD17EE0022A05D1464B1B6813F0007F4C
:1024BC0005D178E0434B1B6813F0020F75D04149EE
:1024CC004B6823F0030313434B60FDF789FE06466C
:1024DC006368012B0ED106E0FDF782FE801B41F2F2
:1024EC008833984263D8374B5B6803F00C03042B9A
:1024FC00F2D11CE0022B15D106E0FDF771FE801B1A
:10250C0041F28833984254D82E4B5B6803F00C038D
:10251C00082BF2D10BE0FDF763FE801B41F28833F0
:10252C00984248D8274B5B6813F00C0FF3D1244B1F
:10253C001B6803F007039D420AD2214A136823F05B
:10254C0007032B431360136803F007039D4234D138
:10255C00236813F0040F06D01A494B6823F4E06289
:10256C00E36813434B60236813F0080F07D0154A38
:10257C00536823F46053216943EAC1035360FFF7A6
:10258C001BFF104B5B68C3F303130F4AD35CD8409B
:10259C000E4B18600020FDF7E1FD002070BD0120FE
:1025AC0070BD012070BD012070BD012070BD0320E5
:1025BC0070BD032070BD032070BD012070BD00BF35
:1025CC000020024000100240607500081801002035
:1025DC00014B1868704700BF1801002008B5FFF7C1
:1025EC00F7FF044B5B68C3F30223034AD35CD84068
:1025FC0008BD00BF001002407075000808B5FFF759
:10260C00E7FF044B5B68C3F3C223034AD35CD84097
:10261C0008BD00BF001002407075000870B582B094
:10262C000446036813F0010F5CD03E4BDB6913F0DA
:10263C00805F0BD13B4BDA6942F08052DA61DB6987
:10264C0003F080530193019B012600E00026364BDA
:10265C001B6813F4807F12D1334A136843F48073E0
:10266C001360FDF7BDFD054604E0FDF7B9FD401B09
:10267C0064284FD82C4B1B6813F4807FF5D0294B62
:10268C001B6A13F4407321D0626802F440729342C7
:10269C001CD0244A136A23F44070244901250D6090
:1026AC0000250D60106213F0010F0FD0FDF798FD9F
:1026BC00054606E0FDF794FD401B41F28833984235
:1026CC002AD8184B1B6A13F0020FF3D015490B6A6A
:1026DC0023F44072636813430B621EB1CB6923F081
:1026EC008053CB61236813F0020F06D00D494B6861
:1026FC0023F44042A36813434B60236813F0100F7C
:10270C000CD008494B6823F48002E36813434B60F8
:10271C00002004E0032002E0032000E0002002B0CF
:10272C0070BD00BF001002400070004040044242E7
:10273C0070B586B006463B4D02AC28686968AA683D
:10274C00EB680FC42B8AADF80430022E4ED0102E3D
:10275C0002D0012E55D12DE0334B5A681B6813F073
:10276C00807F50D0C2F3834306A90B4413F8103C6E
:10277C0012F480320ED02C494968C1F3404106A8AE
:10278C00014411F8140C4AB1284AB2FBF0F000FBDA
:10279C0003F004E0264800FB03F000E00020224B8D
:1027AC005B6813F4800F3AD14000224BA3FB00303E
:1027BC00400834E01C4B1B6A40F202321A40B2F55E
:1027CC00817F22D003F44073B3F5007F04D1164A05
:1027DC00526A12F0020F1BD1B3F5407F1BD1124B82
:1027EC001B6813F4003F18D1002018E0FFF706FF18
:1027FC000D4B5B68C3F3813301335B00B0FBF3F02B
:10280C000DE000200BE0002009E04FF4004006E052
:10281C0049F6404003E0002001E04FF2244006B0AE
:10282C0070BD00BF4C7500080010024000127A0009
:10283C0000093D00ABAAAAAA30B4026891698DB216
:10284C00D369906984B2A54204D0D3699BB243EAA0
:10285C00004002E09BB243EA014030BC704700BF2D
:10286C000368186A5B6A9BB243EA0040704700BF7A
:10287C00030903EB83035A0000F00F001044C0B2AD
:10288C00704700BF10B400F5FA64022920D801EBA0
:10289C004103C1EBC3011F4BA3FB013102EB5102FE
:1028AC00224400F2CF7002EB90021B4BA3FB0013EF
:1028BC00A2EB531202EBD31304331848A3FB000111
:1028CC00581A01EB50008008C0EBC000181A1DE02C
:1028DC0001EB4103C1EBC3010E4BA3FB011302EB54
:1028EC005302A31803EB94020B4BA3FB0434A2EB8F
:1028FC00541303EBD41302330848A3FB0001581AFA
:10290C0001EB50008008C0EBC000181AC0B210BC1C
:10291C00704700BF398EE3381F85EB51254992244F
:10292C0038B50446FDF75CFC054605E0FDF758FCA0
:10293C00401BB0F57A7F0AD823685A6812F0200F32
:10294C00F4D05A6842F010025A60002038BD0320BF
:10295C0038BD00BF38B504460268536823F0100335
:10296C005360FDF73DFC054605E0FDF739FC401BC7
:10297C00B0F57A7F06D823685B6813F0200FF4D08B
:10298C00002038BD032038BD38B505460C46FFF78E
:10299C00C7FF50B92B68220C9A612B68A4B2DC617A
:1029AC002846FFF7D7FF10B938BD012038BD0120EC
:1029BC0038BD00BF38B505460C46FFF7B1FF50B91E
:1029CC002B68220C1A622B68A4B25C622846FFF7B3
:1029DC00C1FF10B938BD012038BD012038BD00BF82
:1029EC0070B5002855D00446002954D0037C012B27
:1029FC0053D00E4601230374022343745AB90A7848
:102A0C004B78C3EB031399004FF4616505FB02157A
:102A1C00B3781D4411E00878FFF72AFF4FF4616585
:102A2C0005FB00F57078FFF723FFC0EB0010830067
:102A3C001D44B078FFF71CFF054429462046FFF7DC
:102A4C00A3FF064628B104236374002323740126D4
:102A5C0024E02268536823F0050353602046FFF7F7
:102A6C00FFFEB0F1FF3F0FD085420DD900F5A83124
:102A7C0001F5C0712046FFF79DFF28B10423637454
:102A8C0000232374012609E00123637400232374BB
:102A9C0004E0012602E0012600E00226304670BD6B
:102AAC0000285CD038B5044600295AD0037C012B91
:102ABC0059D00D46012303740223437432B9CB78E9
:102ACC00C3734B7843738B7883730BE0C878FFF731
:102ADC00CFFEE0736878FFF7CBFE6073A878FFF742
:102AEC00C7FEA073A27B617BE07BFFF7CBFE20735C
:102AFC0028702046FFF7A0FE1C4BA3FB0023B3F568
:102B0C00484F27D31A4DA5FB00352B0C194D05FB4F
:102B1C00130529462046FFF737FF28B104236374B9
:102B2C0000232374012038BD2046FFF799FEB0F135
:102B3C00FF3F0FD085420DD900F5A83101F5C071CA
:102B4C002046FFF737FF28B1042363740023237456
:102B5C00012038BD012363740020207438BD01208E
:102B6C007047012038BD022038BD00BFC5B3A2910B
:102B7C0007452EC280510100B8B138B50446026831
:102B8C00536823F008035360FDF72AFB054605E064
:102B9C00FDF726FB401BB0F57A7F08D823685B68ED
:102BAC0013F0080FF4D0002038BD0120704703202B
:102BBC0038BD00BF002859D010B50446437C13F033
:102BCC00FF0F03D10023037402F0F0FB02236374A4
:102BDC002046FFF7D1FF18B104236374012348E0AA
:102BEC002046FFF79DFE18B104236374012340E0D7
:102BFC002268536823F007035360A36823B11E4A6D
:102C0C00136B23F0010313631B49CB6A23F460722B
:102C1C00A3681343CB626068B0F1FF3F08D1012079
:102C2C00FFF786FD18B904236374012321E00138F2
:102C3C002268936823F00F0343EA104393602268E1
:102C4C00D3681B0C1B0480B21843D0602046FFF7DE
:102C5C0081FE034618B104236374012309E00022AA
:102C6C00E27301226273A273627402E001231846BC
:102C7C007047184610BD00BF006C0040704700BF85
:102C8C00704700BF03681A6812F0010F1BD05A6816
:102C9C0012F0010F17D010B504465B6813F0040F47
:102CAC0008D0FFF7EDFF23686FF004025A6004238D
:102CBC00637403E0FFF7E2FF0123637423686FF092
:102CCC0001025A6010BD7047F8B505460F4616460E
:102CDC001C4636E0B4F1FF3F33D02CB1FDF780FA3F
:102CEC00069BC01A84422CD82A68536823F0E00350
:102CFC0053606B68B3F5827F0BD1AB68B3F5004FB3
:102D0C0002D0B3F5806F04D12A68136823F0400316
:102D1C001360AB6AB3F5005F0BD12A68136823F418
:102D2C0000531B041B0C13602A68136843F40053F4
:102D3C001360012385F85130002385F850300320AF
:102D4C00F8BD2B689B6837EA030301D1012300E02F
:102D5C000023B342BED10020F8BD00BF10B582B035
:102D6C00044600920B4600228021FFF7ADFF03467C
:102D7C0020B1636D43F0200363650323184602B052
:102D8C0010BD00BF2DE9F04184B01D4690F85030C5
:102D9C00012B00F0CB8004460E469046012380F8B0
:102DAC005030FDF71DFA074694F85130DBB2012B79
:102DBC0040F0A480002E00F0A380B8F1000F00F0CA
:102DCC00A180032384F85130002363652663A4F8A3
:102DDC003480A4F83680A363A387E38763642364F9
:102DEC00A368B3F5004F04D12268136843F4804301
:102DFC00136023681A6812F0400F03D11A6842F06E
:102E0C0040021A60E368B3F5006F2CD163681BB104
:102E1C00E38E9BB2012B21D1236836F8022BDA60AA
:102E2C00E38E9BB2013B9BB2E38617E023689A6862
:102E3C0012F0020F08D036F8022BDA60E38E9BB248
:102E4C00013B9BB2E38609E0002D5DD0B5F1FF3F5D
:102E5C0004D0FDF7C5F9C01B854257D9E38E9BB250
:102E6C00002BE3D12BE063681BB1E38E9BB2012BEB
:102E7C0021D1236816F8012B1A73E38E9BB2013B08
:102E8C009BB2E38617E023689A6812F0020F08D011
:102E9C0016F8012B1A73E38E9BB2013B9BB2E386AF
:102EAC0009E0002D34D0B5F1FF3F04D0FDF798F9BF
:102EBC00C01B85422ED9E38E9BB2002BE3D1009729
:102ECC002B46012202212046FFF7FEFE20BB3A468C
:102EDC0029462046FFF742FF18B1202363650120E5
:102EEC001DE0A36833B903932368DA6803929B68E7
:102EFC000393039B636D8BB9002010E002200EE05E
:102F0C0001200CE001200AE0032008E0032006E089
:102F1C00032004E0032002E0032000E00120012351
:102F2C0084F85130002384F8503000E0022004B0C3
:102F3C00BDE8F081704700BF10B584B0044602684C
:102F4C005168936803F04100012806D111F0400F3D
:102F5C0003D0236C204698475FE013F0020F06D095
:102F6C0011F0800F03D0636C2046984755E013F0A6
:102F7C00600F52D011F0200F4FD013F0400F18D02B
:102F8C0094F85100C0B203280BD0606D40F00400DF
:102F9C00606500200190D0680190906801900198C4
:102FAC0007E000230293D368029393680293029B79
:102FBC0033E013F0200F0CD0636D43F00103636515
:102FCC000023039393680393136823F04003136067
:102FDC00039B636D0BB32268536823F0E0035360CB
:102FEC00012384F8513011F0030F13D02268536879
:102FFC0023F003035360E36C23B1094A5A63E06C7A
:10300C00FDF7C6FAA36C43B1054A5A63A06CFDF7F1
:10301C00BFFA02E02046FFF78DFF04B010BD00BFE1
:10302C003130000808B5406A0023C387C386FFF718
:10303C0081FF08BD90F85100704700BF00283CD0BC
:10304C0010B504460023836290F8513013F0FF0F43
:10305C0001D102F0D1F9022384F8513022681368AF
:10306C0023F04003136021686268A3681A43E36885
:10307C001A4323691A4363691A43A36903F400735F
:10308C001343E2691343226A1343A26A1A430A6088
:10309C002168638B03F00402636A13434B6023685B
:1030AC00E26A1A612268D36923F40063D3610020B9
:1030BC006065012384F8513010BD0120704700BFBA
:1030CC0010B4036A046A24F001040462846924F0D5
:1030DC00F00444EA021223F00A03194382610162EC
:1030EC0010BC704710B4036A23F0100303628469A8
:1030FC00036A24F4704444EA023223F0A00343EA46
:10310C0001118261016210BC704700BF836823F01B
:10311C00700341F007010B438360704710B484685F
:10312C0024F47F4442EA0323194344EA01038360F5
:10313C0010BC7047022380F83D300268136843F0DE
:10314C0001031360012380F83D300020704700BF5D
:10315C00022380F83D300368196A41F211121142C2
:10316C0008D1196A40F24442114203D11A6822F084
:10317C0001021A60012380F83D300020704700BF27
:10318C0090F83C30012B00F0838010B504460123ED
:10319C0080F83C30022380F83D300268936823F4B9
:1031AC007F4323F0770393600B68402B4CD00AD8F5
:1031BC00102B58D002D8002B50D062E0202B57D0C7
:1031CC00302B5AD05DE0702B12D004D8502B27D066
:1031DC00602B2FD055E0B3F5805F03D0B3F5005FC3
:1031EC0012D04EE00268936823F00703936048E026
:1031FC00CB684A6889680068FFF790FF226893687B
:10320C0043F0770393603CE0CB684A6889680068B8
:10321C00FFF784FF2268936843F48043936030E0A7
:10322C00CA6849680068FFF74BFF50212068FFF718
:10323C006DFF26E0CA6849680068FFF753FF6021FC
:10324C002068FFF763FF1CE0CA6849680068FFF755
:10325C0037FF40212068FFF759FF12E0002100687A
:10326C00FFF754FF0DE010210068FFF74FFF08E057
:10327C0020210068FFF74AFF03E030210068FFF7C8
:10328C0045FF012384F83D30002084F83C0010BD3C
:10329C000220704703681A4A90420AD0B0F1804F5E
:1032AC0007D0A2F59432904203D002F5806290428E
:1032BC0003D123F070034A681343114A90420AD099
:1032CC00B0F1804F07D0A2F59432904203D002F5B2
:1032DC008062904203D123F44073CA68134323F0F5
:1032EC0080034A69134303608B68C3620B68836273
:1032FC00034B984201D10B6903630123436170476F
:10330C00002C0140B8B110B5044690F83D3013F0D4
:10331C00FF0F04D1002380F83C3002F0B1F80223F7
:10332C0084F83D30211D2068FFF7B4FF012384F899
:10333C003D30002010BD0120704700BF90F83C309C
:10334C00012B21D030B4012280F83C20022380F8DC
:10335C003D300468636823F070036360046865683B
:10336C000B682B4363600468A36823F08003A3609D
:10337C000468A5684B682B43A36080F83D200023AC
:10338C0080F83C30184601E00220704730BC704792
:10339C000268D36823F49073D3600268536923F0F6
:1033AC0001035361202380F83A30704790F839308C
:1033BC00DBB2212B2BD18368B3F5805F0FD1036A6D
:1033CC0002681B88C3F30803536003691BB9036AC3
:1033DC000233036209E0036A0133036205E0026809
:1033EC00036A591C01621B785360C38C9BB2013B6E
:1033FC009BB2C3846BB90268D36823F08003D3609B
:10340C000268D36843F04003D36000207047022069
:10341C0070470020704700BF2DE9F84381460168D2
:10342C000B6923F44052C36813430B618168036931
:10343C001943436919430068C26822F4B05323F05E
:10344C000C030B43C360D9F800104B6923F4407292
:10345C00D9F8183013434B61D9F800505B4B9D429F
:10346C0059D1FFF7CBF800EB800000EB8000D9F8C6
:10347C000440A400B0FBF4F4554EA6FB04346409DC
:10348C002401FFF7BBF800EB800000EB8000D9F8BB
:10349C0004309B00B0FBF3F7FFF7B0F800EB8000B3
:1034AC0000EB8000D9F804309B00B0FBF3F3A6FBD3
:1034BC0003235B094FF0640808FB13731B013233C1
:1034CC00A6FB03235B0903F0F0031C44FFF796F8FB
:1034DC0000EB800000EB8000D9F804309B00B0FBBF
:1034EC00F3F7FFF78BF800EB800000EB8000D9F8C6
:1034FC0004309B00B0FBF3F3A6FB03235B0908FB32
:10350C0013731B013233A6FB0323C3F343131C4475
:10351C00AC60BDE8F883FFF761F800EB800000EBCE
:10352C008000D9F80440A400B0FBF4F4284EA6FBAC
:10353C00043464092401FFF751F800EB800000EB20
:10354C008000D9F804309B00B0FBF3F7FFF746F886
:10355C0000EB800000EB8000D9F804309B00B0FB3E
:10356C00F3F3A6FB03235B094FF0640808FB13730A
:10357C001B013233A6FB03235B0903F0F0031C444D
:10358C00FFF72CF800EB800000EB8000D9F804303A
:10359C009B00B0FBF3F7FFF721F800EB800000EB8A
:1035AC008000D9F804309B00B0FBF3F3A6FB032397
:1035BC005B0908FB13731B013233A6FB0323C3F314
:1035CC0043131C44AC60BDE8F88300BF00380140D5
:1035DC001F85EB512DE9F04105460F4616469846DE
:1035EC00069C1EE0B4F1FF3F1BD02CB1FCF7F8FD9C
:1035FC00C8EB0000844214D22A68D36823F4D07339
:10360C00D3602A68536923F001035361202385F8A2
:10361C00393085F83A30002385F838300320BDE87E
:10362C00F0812B681B6837EA03030CBF01230023CE
:10363C00B342D7D00020BDE8F08100BF68B310B50D
:10364C00044690F8393013F0FF0F04D1002380F8B2
:10365C00383001F027FF242384F839302268D368EE
:10366C0023F40053D3602046FFF7D6FE226813697B
:10367C0023F4904313612268536923F02A035361A6
:10368C002268D36843F40053D3600020E063202306
:10369C0084F8393084F83A3010BD0120704700BFEF
:1036AC002DE9F04182B01E4690F83930DBB2202B68
:1036BC0056D104460D469046002953D0002A53D0CB
:1036CC0090F83830012B51D0012380F8383000238A
:1036DC00C363212380F83930FCF782FD0746A4F838
:1036EC002480A4F8268027E0E38C9BB2013B9BB29C
:1036FC00E384A368B3F5805F12D100963B460022A9
:10370C0080212046FFF766FF90BB22682B88C3F30D
:10371C000803536023690BB902350DE001350BE04A
:10372C0000963B46002280212046FFF753FF08BB42
:10373C0023682A785A600135E38C9BB2002BD3D1D5
:10374C0000963B46002240212046FFF743FF0346EC
:10375C0090B9202284F83920002284F838200CE01B
:10376C0002230AE0012308E0012306E0022304E01F
:10377C00032302E0032300E00323184602B0BDE854
:10378C00F08100BF704700BF08B50168CB6823F01B
:10379C004003CB60202380F83930FFF7F3FF002083
:1037AC0008BD00BF704700BF08B590F83A30DBB2D7
:1037BC00222B44D18368B3F5805F13D1826A0369ED
:1037CC0043B903685B68C3F308031380836A02334D
:1037DC00836218E003685B68DBB21380836A013391
:1037EC00836210E0036933B9836A5A1C82620268EF
:1037FC0052681A7007E0826A531C836203685B6824
:10380C0003F07F031370C38D9BB2013B9BB2C38546
:10381C00BBB90268D36823F02003D3600268D36875
:10382C0023F48073D3600268536923F0010353615E
:10383C00202380F83A30FFF7B5FF002008BD0220A6
:10384C0008BD002008BD00BF704700BF10B504467E
:10385C0002681368D168526913F00F0009D113F094
:10386C00200F06D011F0200F03D02046FFF79CFF4D
:10387C0010BD002862D012F0010202D111F4907F29
:10388C005CD013F0010F06D011F4807F03D0E06BF5
:10389C0040F00100E06313F0040F04D01AB1E06BA8
:1038AC0040F00200E06313F0020F04D01AB1E06B99
:1038BC0040F00400E06313F0080F04D01AB1E26B7F
:1038CC0042F00802E263E26B002A4AD013F0200FA8
:1038DC0005D011F0200F02D02046FFF765FF2368BA
:1038EC005B6903F04003E26B12F0080F00D1FBB1EF
:1038FC002046FFF74DFD23685A6912F0400F13D094
:10390C005A6922F040025A61636B4BB1154A5A63F3
:10391C00606BFCF73DFE20B3606B436B984710BDAA
:10392C002046FFF791FF10BD2046FFF78DFF10BD1D
:10393C002046FFF789FF0023E36310BD13F0800FCF
:10394C0006D011F0800F03D02046FFF72FFD10BDDD
:10395C0013F0400F05D011F0400F02D02046FFF7B6
:10396C0013FF10BD7539000808B5406A0023C385E4
:10397C00C384FFF769FF08BD84B001A880E80E007E
:10398C00002004B0704700BFB0F840309BB243F445
:10399C003F43A0F840300020704700BFB0F84030E3
:1039AC0023F474535B045B0CA0F840300020704788
:1039BC000020704784B038B505AC84E80E000123B4
:1039CC00A0F840300024A0F84040A0F84440A0F8F3
:1039DC005040FFF7D9FF2046BDE8384004B070478F
:1039EC0010B4CB78032B35D8DFE803F002280F1B7B
:1039FC000A7830F822309BB223F4EC4323F07003A6
:103A0C0043F4007320F8223024E00A7830F8223096
:103A1C009BB223F4EC4323F070039BB220F82230CA
:103A2C0018E00A7830F822309BB223F4EC4323F0F0
:103A3C00700343F4C06320F822300BE00A7830F8AE
:103A4C0022309BB223F4EC4323F0700343F48063E5
:103A5C0020F822300A7830F8223023F0F0031B05CE
:103A6C001B0D134343F4004343F0800320F8223032
:103A7C008B7A002B40F08B804B7883B3B0F85030AE
:103A8C009BB20A7803EBC20300EB43038A8852080B
:103A9C005200C3F800240A7830F8223003F04003B7
:103AAC009BB25BB130F8223023F0F0031B051B0DE9
:103ABC0043F4004343F0C00320F822300A7830F876
:103ACC0022309BB223F4E04323F0400383F0200325
:103ADC0043F4004343F0800320F822301BE1B0F89C
:103AEC0050309BB20A7803EBC203043300EB430360
:103AFC008A8852085200C3F80024B0F850309BB2A8
:103B0C000A7803EBC203063300EB43030C693E2C2B
:103B1C000ED9C4F34F1214F01F0F01D1013A92B217
:103B2C006FEAC2626FEA524292B2C3F800240AE012
:103B3C00C4F34F0214F0010F01D0013292B2920281
:103B4C0092B2C3F800240A7830F8223003F4804390
:103B5C009BB25BB130F8223023F0F0031B051B0D38
:103B6C0043F4404343F0800320F822300A7830F8C5
:103B7C0022309BB223F4804323F0700383F4405330
:103B8C0043F4004343F0800320F82230C3E00A786A
:103B9C0030F8223023F4F8731B051B0D43F401435A
:103BAC0043F0800320F82230B0F850309BB20A78F2
:103BBC0003EBC20300EB4303CA8852085200C3F85C
:103BCC000024B0F850309BB20A7803EBC2030433E4
:103BDC0000EB43030A8952085200C3F800244B78C7
:103BEC00002B4DD10A7830F8223003F480439BB27D
:103BFC005BB130F8223023F0F0031B051B0D43F4AE
:103C0C00404343F0800320F822300A7830F8223009
:103C1C0003F040039BB25BB130F8223023F0F00389
:103C2C001B051B0D43F4004343F0C00320F8223066
:103C3C000A7830F8223023F0F0031B051B0D43F4F7
:103C4C00004343F0C00320F822300C7830F82430C5
:103C5C009BB223F4804323F0700383F4405348F267
:103C6C008002134320F82430097830F821309BB2BD
:103C7C0023F4E04323F04003134320F821304AE0BF
:103C8C000A7830F8223003F480439BB25BB130F8F1
:103C9C00223023F0F0031B051B0D43F4404343F08B
:103CAC00800320F822300A7830F8223003F04003E9
:103CBC009BB25BB130F8223023F0F0031B051B0DD7
:103CCC0043F4004343F0C00320F822300A7830F864
:103CDC00223023F0F0031B051B0D43F4404343F04B
:103CEC00800320F822300C7830F824309BB223F477
:103CFC00E04323F0400348F28002134320F82430C1
:103D0C00097830F821309BB223F4804323F0700300
:103D1C00134320F82130002010BC70478B7A002B05
:103D2C0046D14B7813B30A7830F8223003F04003B5
:103D3C009BB25BB130F8223023F0F0031B051B0D56
:103D4C0043F4004343F0C00320F822300A7830F8E3
:103D5C0022309BB223F4E04323F0400343F40043AE
:103D6C0043F0800320F82230002070470A7830F8A6
:103D7C00223003F480439BB25BB130F8223023F045
:103D8C00F0031B051B0D43F4404343F0800320F864
:103D9C0022300A7830F822309BB223F4804323F08F
:103DAC00700343F4004343F0800320F82230DBE738
:103DBC0010B44B78002B4BD10A7830F8223003F436
:103DCC0080439BB25BB130F8223023F0F0031B052B
:103DDC001B0D43F4404343F0800320F822300A7853
:103DEC0030F8223003F040039BB25BB130F8223044
:103DFC0023F0F0031B051B0D43F4004343F0C003F9
:103E0C0020F822300A7830F8223023F0F0031B051A
:103E1C001B0D43F4004343F0C00320F822300C7810
:103E2C0030F824309BB223F4804323F0700348F223
:103E3C008002134320F82430097830F821309BB2EB
:103E4C0023F4E04323F04003134320F821304AE0ED
:103E5C000A7830F8223003F480439BB25BB130F81F
:103E6C00223023F0F0031B051B0D43F4404343F0B9
:103E7C00800320F822300A7830F8223003F0400317
:103E8C009BB25BB130F8223023F0F0031B051B0D05
:103E9C0043F4004343F0C00320F822300A7830F892
:103EAC00223023F0F0031B051B0D43F4404343F079
:103EBC00800320F822300C7830F824309BB223F4A5
:103ECC00E04323F0400348F28002134320F82430EF
:103EDC00097830F821309BB223F4804323F070032F
:103EEC00134320F82130002010BC70470A788AB99F
:103EFC0030F822309BB223F4804323F0400383F448
:103F0C00805383F0100343F4004343F0800320F804
:103F1C00223020E04B787BB130F822309BB223F476
:103F2C00E04323F0400383F0100343F4004343F0D9
:103F3C00800320F822300EE030F822309BB223F4BC
:103F4C00804323F0700383F4805343F4004343F025
:103F5C00800320F822300020704700BF4B781BB341
:103F6C000A7830F8223003F040039BB25BB130F892
:103F7C00223023F0F0031B051B0D43F4004343F0E8
:103F8C00C00320F822300A7830F822309BB223F498
:103F9C00E04323F0400383F0300343F4004343F049
:103FAC00800320F8223022E00A7830F8223003F423
:103FBC0080439BB25BB130F8223023F0F0031B0539
:103FCC001B0D43F4404343F0800320F822300A7861
:103FDC0030F822309BB223F4804323F0700383F437
:103FEC00405343F4004343F0800320F82230002078
:103FFC00704700BF11B98023A0F84C3000207047E7
:10400C000020704700207047B0F8440080B2704721
:10401C000020704710B401335B1000EB420202F534
:10402C00806207E00C78487844EA002422F8044BBC
:10403C000231013B002BF5D110BC704770B54A78AA
:10404C00012A40F0C2808E690B699E4203D9F61A90
:10405C008E611E4601E000238B610D4604468B7A6F
:10406C0083B9B3B28A884969FFF7D4FFB4F85030EA
:10407C009BB22A7803EBC203023304EB4303C3F86D
:10408C00006491E0097830F8213003F040039BB2D2
:10409C009BB322BBB0F850309BB203EBC10106318D
:1040AC0000EB41013E2E0ED9C6F34F1316F01F0F35
:1040BC0001D1013B9BB26FEAC3636FEA53439BB2DE
:1040CC00C1F8003417E0C6F34F0316F0010F01D00E
:1040DC0001339BB29B029BB2C1F800340BE0012A66
:1040EC0009D1B0F850309BB203EBC103023300EBA3
:1040FC004303C3F800642A8932E022BBB0F8503085
:10410C009BB203EBC101023100EB41013E2E0ED9F3
:10411C00C6F34F1316F01F0F01D1013B9BB26FEA90
:10412C00C3636FEA53439BB2C1F8003417E0C6F384
:10413C004F0316F0010F01D001339BB29B029BB2CF
:10414C00C1F800340BE0012A09D1B0F850309BB211
:10415C0003EBC103023300EB4303C3F80064EA88AA
:10416C00B3B269692046FFF755FF6B786BB92A78B3
:10417C0034F8223023F0F0031B051B0D43F40043ED
:10418C0043F0C00324F822300EE0012B0CD12A7826
:10419C0034F8223023F0F0031B051B0D43F440438D
:1041AC0043F0800324F822302A7834F822309BB272
:1041BC0023F4E04323F0400383F0300343F4004343
:1041CC0043F0800324F82230AAE08B690C69A342E7
:1041DC0003D91B1B8B61234601E000248C618C7A74
:1041EC002CBBB0F8502092B20C7802EBC402063211
:1041FC0000EB42023E2B0ED9C3F34F1413F01F0FEA
:10420C0001D1013CA4B26FEAC4646FEA5444A4B275
:10421C00C2F8004474E0C3F34F0413F0010F01D053
:10422C000134A4B2A402A4B2C2F8004468E02ABBD0
:10423C00B0F8502092B20C7802EBC402023200EBC0
:10424C0042023E2B0ED9C3F34F1413F01F0F01D1B2
:10425C00013CA4B26FEAC4646FEA5444A4B2C2F83D
:10426C00004418E0C3F34F0413F0010F01D00134E4
:10427C00A4B2A402A4B2C2F800440CE0012A0AD1F0
:10428C00B0F8502092B20C7802EBC402023200EB70
:10429C004202C2F800344A782ABBB0F8502092B2DD
:1042AC000C7802EBC402063200EB42023E2B0ED914
:1042BC00C3F34F1413F01F0F01D1013CA4B26FEAEA
:1042CC00C4646FEA5444A4B2C2F8004418E0C3F3C7
:1042DC004F0413F0010F01D00134A4B2A402A4B214
:1042EC00C2F800440CE0012A0AD1B0F8502092B276
:1042FC000C7802EBC402023200EB4202C2F800342A
:10430C000A7830F822309BB223F4804323F07003F8
:10431C0083F4405343F4004343F0800320F82230ED
:10432C00002070BD01335B1000EB420202F580628D
:10433C0004E0106821F8020B013B0432002BF8D189
:10434C00704700BFD0F818321BB10020C3F814021C
:10435C0070470220704700BF10B5D0F81842D0F853
:10436C001C325BB194F80002FF2807D09B6894F8CC
:10437C00012221469847FF2384F80032002010BD0B
:10438C004323038000487047080000204323038028
:10439C00004870474C0000204323038000487047BE
:1043AC00900000200A23038000487047D4000020AE
:1043BC0038B50446D0F8185201F0D6FAC5F80C02FC
:1043CC00D4F818324BB1D4F81C32DB6805F5037104
:1043DC00D5F804029847002038BD022038BD00BF34
:1043EC0070B505460C46D0F818620B7813F06002D5
:1043FC0024D0202A29D1CA88CAB113F0800F0BD03F
:10440C00D0F81C329B68314660789847E288314678
:10441C00284600F087FC18E04B7886F80032CB88F1
:10442C0086F80132CA88314600F092FC0DE0D0F8D3
:10443C001C329B6800224878984706E04B780A2B80
:10444C0003D10122024900F06DFC002070BD00BFB9
:10445C008403002010B50446812101F011FA0121DA
:10446C00204601F00DFA8221204601F009FAD4F819
:10447C00183253B1D4F81C325B689847D4F8180240
:10448C0001F07CFA0023C4F81832002010BD00BFE4
:10449C0038B50446037C6BB94FF4007302228121BA
:1044AC0001F0DCF94FF4007302220121204601F0E7
:1044BC00D5F90AE040230222812101F0CFF94023F3
:1044CC0002220121204601F0C9F90823032282218E
:1044DC00204601F0C3F94FF4077001F04BFA054682
:1044EC00C4F81802E8B1D4F81C321B6898470023B2
:1044FC00C5F81432C5F81832237C4BB94FF400734D
:10450C00D5F804220121204601F01EFA002038BD06
:10451C004023D5F804220121204601F015FA002091
:10452C0038BD012038BD00BF19B1C0F81C120020E5
:10453C0070470220704700BFD0F81832C3F8081239
:10454C00C3F8102200207047D0F81832C3F80412B8
:10455C0000207047D0F818227AB108B5D2F814327E
:10456C006BB90123C2F81432B2F81032D2F8082217
:10457C00812101F0D9F9002008BD022070470120EB
:10458C0008BD00BFD0F818229AB108B5037C43B916
:10459C004FF40073D2F80422012101F0D5F9002068
:1045AC0008BD4023D2F80422012101F0CDF90020EE
:1045BC0008BD0220704700BF98B108B50346D0F87B
:1045CC00140210B10020C3F8140209B1C3F8101280
:1045DC001846012380F8FC31027001F0EBF8002042
:1045EC0008BD0220704700BF19B1C0F8141200209A
:1045FC0070470220704700BF08B501F01FF900207A
:10460C0008BD00BF08B5D0F8143223B11B68984719
:10461C0018B1022008BD022008BD002008BD00BF53
:10462C0008B5D0F814325B689847002008BD00BF6D
:10463C0038B5044600F50275284600F00BF9012345
:10464C00C4F8F431B4F80E32C4F8F83194F8081206
:10465C0001F01F03012B08D013B1022B0AD00EE07E
:10466C002946204600F072FA0EE02946204600F05A
:10467C0091FA09E02946204600F0A8FA04E001F07E
:10468C008001204601F00CF9002038BD10B504461D
:10469C0011BB1346D0F8F421032A28D1D0F80C1101
:1046AC00D0F8102191420AD9891AC0F80C118A420B
:1046BC0028BF0A4692B2194600F05AFB17E0D0F810
:1046CC0014321B6923B190F8FC21032A00D19847BE
:1046DC00204600F055FB0AE00A46D0F814329B69DC
:1046EC002BB190F8FC11032901D1114698470020F9
:1046FC0010BD00BF10B50446002943D11346D0F8B5
:10470C00F421022A36D1C169026A91420CD98A1A63
:10471C00C26192B2194600F013FB00231A461946E7
:10472C00204601F011F925E08169B1FBF2F302FB9F
:10473C00131393B98A4210D8D0F8F83199420CD29D
:10474C000022114600F0FCFA0021C4F8F8110B46C7
:10475C000A46204601F0F8F80CE0D4F81432DB6875
:10476C002BB194F8FC21032A01D12046984720460E
:10477C0000F012FB94F80032012B0ED1002384F8C8
:10478C0000320AE00A46D0F814325B692BB190F87B
:10479C00FC11032901D111469847002010BD00BF20
:1047AC0038B5044640230022114601F057F8402545
:1047BC00C4F810512B4600228021204601F04EF8FF
:1047CC002562012384F8FC31D4F818322BB1D4F8CB
:1047DC0014325B68217920469847002038BD00BF11
:1047EC0001740020704700BF90F8FC3180F8FD3157
:1047FC00042380F8FC310020704700BF90F8FD3195
:10480C0080F8FC310020704708B590F8FC31032B80
:10481C0004D1D0F81432DB6903B19847002008BDED
:10482C000346002002E00130C0B201331A78002A9E
:10483C00F9D170474B88012B0BD110B50446C0F849
:10484C000432D0F814329B689847204600F098FA4E
:10485C0010BD70470B7803704B7843708B78CA7817
:10486C0003EB022343800B794A7903EB0223838009
:10487C008B79CA7903EB0223C380704710B50446C9
:10488C00802101F00DF80021204601F009F810BD3F
:10489C0030B583B004460D464A88130A013B062BFB
:1048AC0079D8DFE803F0040C2078785C6900D0F844
:1048BC0010321B680DF10601007C98476FE0037CF9
:1048CC0043B9D0F814329B6A0DF1060098470223C5
:1048DC00437064E0D0F81432DB6A0DF1060098479F
:1048EC00022343705BE0D2B2052A34D8DFE802F031
:1048FC00030B131B232BD0F810325B680DF1060150
:10490C00007C98474BE0D0F810329B680DF1060103
:10491C00007C984743E0D0F81032DB680DF10601BB
:10492C00007C98473BE0D0F810321B690DF1060172
:10493C00007C984733E0D0F810325B690DF106012A
:10494C00007C98472BE0D0F810329B690DF10601E2
:10495C00007C984723E02946FFF790FF2DE0037C6D
:10496C0033B9D0F814325B6B0DF10600984716E0A2
:10497C002946FFF783FF20E0037C43B9D0F81432BB
:10498C001B6B0DF1060098470723437007E029467F
:10499C00FFF774FF11E02946FFF770FF0DE0BDF83B
:1049AC00063053B1EA8842B19A4228BF1A46ADF894
:1049BC0006200146204600F0B5F903B030BD00BF1B
:1049CC0038B504468B88E3B9CB88D3B98D7805F01C
:1049DC007F0590F8FC31032B02D1FFF74FFF38BD58
:1049EC0080F8FE51294600F08FFF204600F0C8F9F0
:1049FC001DB1022384F8FC3138BD012384F8FC314D
:104A0C0038BD2046FFF73AFF38BD00BF38B5044625
:104A1C000D468978264B1970012903D92946FFF7D1
:104A2C002DFF38BD90F8FC31022B02D0032B15D092
:104A3C0039E081B14160032380F8FC31FFF7E2FDDE
:104A4C00022804D129462046FFF718FF38BD20461E
:104A5C0000F096F938BD00F093F938BD49B902233E
:104A6C0080F8FC314160FFF7DBFD204600F088F94F
:104A7C0038BD4368994213D0D9B2FFF7D1FD0C4B26
:104A8C00197861602046FFF7BDFD022804D1294644
:104A9C002046FFF7F3FE38BD204600F071F938BD13
:104AAC0000F06EF938BD2946FFF7E8FE38BD00BFAF
:104ABC008503002008B5CB88012B02D0FFF7DEFE62
:104ACC0008BD90F8FC31022B02D0032B08D00CE06F
:104ADC000146002341F8083F012200F023F908BDEC
:104AEC000122011D00F01EF908BDFFF7C7FE08BD2D
:104AFC0008B590F8FC31023B012B0CD80123C360A4
:104B0C00D0F804320BB10323C360022200F10C0174
:104B1C0000F008F908BDFFF7B1FE08BD10B504465A
:104B2C0090F8FC31023B012B0DD84B88012B0CD19A
:104B3C000023C0F80432D0F814329B689847204602
:104B4C0000F01EF910BDFFF799FE10BD08B54B78AB
:104B5C00092B1BD8DFE803F011171A141A08051AD1
:104B6C000E0BFFF795FE13E0FFF72AFF10E0FFF79F
:104B7C004DFF0DE0FFF79EFF0AE0FFF7B9FF07E0DE
:104B8C00FFF758FE04E0FFF7C9FF01E0FFF776FEE0
:104B9C00002008BD38B504460D4690F8FC31032BB7
:104BAC000FD10B79012B09D8D0F814329B68984798
:104BBC00EB8843B9204600F0E3F804E0FFF75EFE13
:104BCC0001E0FFF75BFE002038BD00BF38B505469D
:104BDC000C468A880B7803F06003202B04D1D0F8A4
:104BEC0014329B6898477DE0D1B26378012B26D0B4
:104BFC00002B48D0032B75D190F8FC31022B02D03E
:104C0C00032B07D017E000296CD080296AD000F064
:104C1C0047FE67E0638823B919B1802901D000F001
:104C2C003FFED5F814329B68214628469847284603
:104C3C0000F0A6F856E02146FFF720FE52E090F86F
:104C4C00FC31022B02D0032B07D018E0002949D0ED
:104C5C00802947D000F024FE44E06388002B41D12A
:104C6C0011F07F0F07D000F02BFED5F814329B68A3
:104C7C00214628469847284600F082F832E0214623
:104C8C00FFF7FCFD2EE090F8FC31022B02D0032B39
:104C9C0006D024E011F07F0F24D000F001FE21E0BB
:104CAC0012F0800F06D001F07F04013400EB0414E5
:104CBC00043405E001F07F04103400EB04140434D8
:104CCC00284600F00DFE10B10123236001E0002303
:104CDC00236002222146284600F024F802E02146F7
:104CEC00FFF7CCFD002038BDD0B170B50D4616468F
:104CFC000446FFF795FD0130400080B230802870EB
:104D0C0003236B70022307E05A1CD2B20134E9541E
:104D1C000233DBB20021A95421780029F4D170BDF3
:104D2C00704700BF10B513460222C0F8F42183610E
:104D3C00C3610A46002100F0F7FD002010BD00BF42
:104D4C0008B513460A46002100F0EEFD002008BD10
:104D5C0010B513460322C0F8F421C0F80831C0F88E
:104D6C000C310A46002100F0EFFD002010BD00BF01
:104D7C0008B513460A46002100F0E6FD002008BDE8
:104D8C0008B50423C0F8F43100231A46194600F084
:104D9C00CBFD002008BD00BF08B50523C0F8F431D9
:104DAC0000231A46194600F0CFFD002008BD00BFB5
:104DBC0070B594B0282200210DEB020001F08FFE9B
:104DCC000024059406940794089409940194029481
:104DDC000394049409230A934FF480330B93012515
:104DEC000E9510950226119612934FF4801313937F
:104DFC000AA8FDF7E1F80F230593069607944FF4E4
:104E0C00806308930994294605A8FDF70DFB13232D
:104E1C0001934FF4007302934FF4004303934FF448
:104E2C008003049301A8FDF7F9FB14B070BD00BF1B
:104E3C0070B584B000250195029503950C4C0D4B73
:104E4C002360A560E56065614FF46023E3616560F4
:104E5C00012626612046FBF7A1FA0C23019302964A
:104E6C00039501A92046FBF7D5F904B070BD00BF2E
:104E7C004C0700200024014008B50948094B036089
:104E8C00094B436000238360C3604FF4804202618E
:104E9C0043618361C3610362FBF724FE08BD00BF5D
:104EAC00F806002000540040A086010030B583B005
:104EBC000024ADF804408DF806400094124D134BBD
:104ECC002B604FF0FF336B604FF48073AB60284660
:104EDC00FDF770FE8DF804408DF805408DF8064006
:104EEC00012201A92846FDF77BFD01228DF8002047
:104EFC008DF801208DF802208DF803406946284674
:104F0C00FDF7CEFD03B030BD7C070020002800402B
:104F1C0008B50C480C4B03604FF4827343600023BC
:104F2C008360C360036143614FF4007282610822A5
:104F3C00C2610362436283620A23C362FEF77EF896
:104F4C0008BD00BF600600200038004030B587B0B7
:104F5C0000240294039404940594009401940F4D3E
:104F6C004FF080432B6040F2DF136B60AC600C4B56
:104F7C00EB602C61AC612846FEF7C4F94FF480530A
:104F8C00029302A92846FEF7FBF8009401946946A7
:104F9C002846FEF7D3F907B030BD00BF90070020BC
:104FAC0040420F0008B50848084B03604FF4E1334A
:104FBC00436000238360C36003610C224261836100
:104FCC00C361FEF73BFB08BDB8060020004800405B
:104FDC002DE9F04389B000240494059406940794B9
:104FEC003A4B9A6942F010029A619A6902F01002E7
:104FFC000092009A9A6942F020029A619A6902F032
:10500C0020020192019A9A6942F004029A619A690B
:10501C0002F004020292029A9A6942F008029A6122
:10502C009B6903F008030393039BDFF8AC902246C3
:10503C004FF480414846FBF7EBFBDFF8A08022469B
:10504C0040F204714046FBF7E3FB214E22464FF43D
:10505C0080513046FBF7DCFB4FF480430493012571
:10506C00059506940227079704A94846FBF7DCFA36
:10507C0004950594069404A94046FBF7D5FA40F232
:10508C000473049305950694079704A94046FBF70F
:10509C00CBFA04950F4B0593069404A93046FBF705
:1050AC00C3FA4FF48053049305950694079704A90B
:1050BC003046FBF7B9FA224629460620FBF706FADA
:1050CC000620FBF735FA09B0BDE8F083001002406A
:1050DC00000C0140000011100010014000080140BC
:1050EC00704700BF08B500224FF080435A62024857
:1050FC00FEF720F808BD00BF9007002008B5034854
:10510C00FEF726F84FF08043586A08BD9007002040
:10511C002DE9F0438DB04F4B93E803000A90ADF8A6
:10512C002C10012407944FF4804506950026089610
:10513C0002230993FBF736F8FFF73AFEFFF748FF17
:10514C00FFF7E6FEFFF72EFFFFF796FEFFF7AEFE2A
:10515C00FFF7FCFEFFF76CFE00F058FA3E4B9A6925
:10516C0042F010029A619B6903F010030193019BBA
:10517C00DFF8189106A94846FBF756FA4FF4805809
:10518C00CDF81880354F06A93846FBF74DFA4FF489
:10519C008070FCF7EFFE02940396049402A9304849
:1051AC00FBF742FA01F010FB40F6BE222D4B5A825F
:1051BC0000F0D0FC2C4B1860224629464846FBF7E1
:1051CC0027FB224641463846FBF722FB6423062286
:1051DC000AA92648FEF764FAFFF784FF214C012147
:1051EC00204601F01BFB0221204601F017FB032196
:1051FC00204601F013FB0421204601F00FFB1C4854
:10520C0000F0C0FC184B1B79012B11D10022164B5E
:10521C001A71184801F029FC82B2174B1A80174CEE
:10522C001749204601F064FC0146204600F048FA7C
:10523C00124C144BD3E900231349204601F058FCBF
:10524C000146204600F03CFAFFF758FF064B9860E9
:10525C00C2E700BF8876000800100240000C014035
:10526C00000801400008002088030020B806002038
:10527C00D00700204C090020B4080020280800208A
:10528C0068760008200800207C7600080010014099
:10529C0082B00D4B9A6942F001029A619A6902F050
:1052AC0001020092009ADA6942F08052DA61DB69FD
:1052BC0003F080530193019B044A536823F0E0638D
:1052CC00536002B0704700BF001002400000014064
:1052DC0000B587B0002302930393049305930268EF
:1052EC00104B9A421BD103F56C439A6942F400723D
:1052FC009A619A6902F400720092009A9A6942F0DB
:10530C0010029A619B6903F010030193019B0C231B
:10531C0002930323039302A90348FBF785F907B013
:10532C005DF804FB002401400010014010B586B06C
:10533C00002302930393049305930268184B9A423B
:10534C002CD1184CA36943F00803A361A36903F0A3
:10535C0008030093009BC02302931223039303239F
:10536C00059302A91048FBF75FF9E36943F40013B6
:10537C00E361E36903F400130193019B0022022112
:10538C001F20FBF7A3F81F20FBF7D2F800221146D1
:10539C002020FBF79BF82020FBF7CAF806B010BDC5
:1053AC000054004000100240000C014002680F4BFA
:1053BC009A421AD100B583B0FCF7D6FD0C4BDA69D2
:1053CC0042F00062DA61DB6903F000630193019B38
:1053DC000121084B196000220320FBF777F803200A
:1053EC00FBF7A6F803B05DF804FB704700280040FB
:1053FC00001002403C04424270B586B00023029378
:10540C0003930493059302681B4B9A4231D103F525
:10541C00EC33DA6942F48042DA61DA6902F48042F0
:10542C000092009A9A6942F008029A619B6903F013
:10543C0008030193019B4FF420430293022503952B
:10544C00032305930D4E02A93046FBF7EDF84FF4FC
:10545C008043029300240394049402A93046FBF782
:10546C00E3F8224629462420FBF730F82420FBF7EA
:10547C005FF806B070BD00BF00380040000C014062
:10548C000368B3F1804F0CD182B003F50433DA69B1
:10549C0042F00102DA61DB6903F001030193019B25
:1054AC0002B0704730B587B0002302930393049386
:1054BC00059302681B4B9A4231D103F5E433DA6948
:1054CC0042F48022DA61DA6902F480220092009AB6
:1054DC009A6942F008029A619B6903F008030193F0
:1054EC00019B4FF4806302930223039303230593E0
:1054FC000D4D02A92846FBF797F84FF40063029371
:10550C0000240394049402A92846FBF78DF8224644
:10551C0001212720FAF7DAFF2720FBF709F807B05B
:10552C0030BD00BF00480040000C0140704700BF78
:10553C00FEE700BFFEE700BFFEE700BFFEE700BFCF
:10554C00704700BF704700BF704700BF08B5FAF73F
:10555C003BFE08BD08B50248FDF794FB08BD00BF33
:10556C007C07002008B50120FBF75CF908BD00BFE3
:10557C0008B50248FCF7D8FB08BD00BF6813002033
:10558C0008B50248FBF724FF08BD00BFF806002051
:10559C0008B50248FBF7CCFF08BD00BFF806002099
:1055AC0008B50248FDF7C8FC08BD00BF6006002026
:1055BC0008B50248FEF74AF908BD00BFB80600203E
:1055CC000F4B1A6842F001021A6059680D4A0A40E2
:1055DC005A601A6822F0847222F480321A601A68B7
:1055EC0022F480221A605A6822F4FE025A604FF4A8
:1055FC001F029A604FF00062034B9A60704700BF25
:10560C00001002400000FFF800ED00E010B5094C5E
:10561C00002209492046FEF7CFFF08492046FEF735
:10562C00E3FF07492046FEF77FFF2046FEF7E4FF25
:10563C0010BD00BF7409002044010020E0000020D0
:10564C001C010020002070470020704770B50446F4
:10565C000E460E4D01462846FEF776FF2846FEF70D
:10566C0091FF002304E00021094AD1540133DBB23D
:10567C00272BF8D9326801322146054801F05CFA33
:10568C000122044B1A70002070BD00BF7409002069
:10569C004C0900208C03002010B5064C0022064952
:1056AC002046FEF749FF05492046FEF74DFF002036
:1056BC0010BD00BF74090020800F0020980B002043
:1056CC00094BD3F81832D3F8143253B910B50A4633
:1056DC000146054C2046FEF72FFF2046FEF73AFF09
:1056EC0010BD0120704700BF7409002002680E4BEA
:1056FC009A4217D100B583B003F5DA33DA6942F474
:10570C000002DA61DB6903F400030193019B0022C0
:10571C0011461420FAF7DAFE1420FAF709FF03B049
:10572C005DF804FB704700BF005C004008B500F258
:10573C002C41D0F85C04FEF77BFF08BD08B500EBEC
:10574C004113D3F83C22D0F85C04FEF79FFF08BD50
:10575C0008B500EB4113DA6BD0F85C04FEF7CAFF16
:10576C0008BD00BF08B5D0F85C04FFF74DF808BDC4
:10577C0010B504460121D0F85C04FFF731F8D4F8D9
:10578C005C04FFF70DF810BD10B50446D0F85C04AE
:10579C00FFF72AF8A36923B1024A136943F0060301
:1057AC00136110BD00ED00E008B5D0F85C04FFF704
:1057BC0025F808BD10B504461E48C0F85C44C4F872
:1057CC0020021D4B036008234360022383600323E4
:1057DC00C36000238361C3610362FBF745FF08B11B
:1057EC00FFF77EFC182300221146D4F82002FCF7A8
:1057FC009FFB582300228021D4F82002FCF798FB51
:10580C00C02300228121D4F82002FCF791FB4FF435
:10581C00887300220121D4F82002FCF789FB4FF495
:10582C00807300228221D4F82002FCF781FB002037
:10583C0010BD00BF68130020005C004008B5D0F814
:10584C002002FBF77FFF10B1022802D003E00020FA
:10585C0008BD012008BD022008BD00BF10B51C46C4
:10586C0013462246D0F82002FBF798FF10B102280D
:10587C0002D003E0002010BD012010BD022010BD9D
:10588C0008B5D0F82002FBF7B3FF10B1022802D004
:10589C0003E0002008BD012008BD022008BD00BFA8
:1058AC0008B5D0F82002FCF7EDFA10B1022802D0AE
:1058BC0003E0002008BD012008BD022008BD00BF88
:1058CC0008B5D0F82002FCF70BFB10B1022802D06F
:1058DC0003E0002008BD012008BD022008BD00BF68
:1058EC00D0F8202211F0800F06D001F07F0302EBDC
:1058FC00431191F82A00704701F07F0102EB41112E
:10590C0091F82A02704700BF08B5D0F82002FBF7C7
:10591C0031FF10B1022802D003E0002008BD0120A5
:10592C0008BD022008BD00BF08B5D0F82002FBF767
:10593C00AFFF10B1022802D003E0002008BD012007
:10594C0008BD022008BD00BF08B5D0F82002FBF747
:10595C0077FF10B1022802D003E0002008BD01201F
:10596C0008BD022008BD00BF08B5D0F82002FBF727
:10597C0087FF08BD00487047C0030020704700BF78
:10598C00704700BF12230B80004870472C01002089
:10599C0004230B80004870474001002008B50A46DC
:1059AC0020B905490548FFF79FF903E00249034870
:1059BC00FFF79AF9004808BDC81700209076000838
:1059CC0010B5044C0A4621460348FFF78DF92046D2
:1059DC0010BD00BFC8170020A876000808B50A46FD
:1059EC0020B905490548FFF77FF903E00249034850
:1059FC00FFF77AF9004808BDC8170020BC760008EC
:105A0C0008B50A4620B905490548FFF76DF903E0CA
:105A1C0002490348FFF768F9004808BDC817002081
:105A2C00CC76000808B50A4620B905490548FFF7A9
:105A3C005BF903E002490348FFF756F9004808BD3B
:105A4C00C8170020D876000810B582B029B960F0CC
:105A5C007F008DF80400012013E00C4660F03F003D
:105A6C008DF804007F2903D88DF80510022008E07A
:105A7C0061F07F018DF80510C4F3C7148DF8064052
:105A8C00032001A900F0B6FC02B010BD1318B3F549
:105A9C00806F09DC10B514460B46821E2146092086
:105AAC00FFF7D2FF002010BD4FF0FF30704700BF52
:105ABC0010B582B019B98DF80400012013E00C4622
:105ACC0040F040008DF804007F2903D88DF80510B4
