:020000040800F2
:1000000000500020AD790008496200084B620008EA
:100010004D6200084F6200085162000800000000B5
:100020000000000000000000000000005362000813
:10003000556200080000000057620008596200087D
:10004000F5790008F5790008F57900086162000883
:10005000F5790008F579000871620008F579000863
:10006000F5790008F5790008F5790008F5790008B8
:10007000F5790008F5790008F5790008F5790008A8
:10008000F5790008F5790008F5790008F579000898
:100090007D620008F5790008F5790008F579000817
:1000A000F5790008F5790008F5790008F579000878
:1000B000F5790008F5790008F57900088D620008E7
:1000C0009D620008F5790008F5790008F5790008C7
:1000D000AD620008F5790008F5790008BD620008F6
:1000E000F5790008F5790008F579000800000000AE
:1000F0000000000000000000000000000000000000
:0C01000000000000000000005FF808F1A3
:1001100010B5054C237833B9044B13B10448AFF341
:1001200000800123237010BD200200200000000089
:10013000CC82000808B5034B1BB103490348AFF359
:10014000008008BD0000000024020020CC820008CE
:1001500081F0004102E000BF83F0004330B54FEA78
:1001600041044FEA430594EA050F08BF90EA020FE5
:100170001FBF54EA000C55EA020C7FEA645C7FEA78
:10018000655C00F0E2804FEA5454D4EB5555B8BF9B
:100190006D420CDD2C4480EA020281EA030382EA0C
:1001A000000083EA010180EA020281EA0303362D9E
:1001B00088BF30BD11F0004F4FEA01314FF4801C71
:1001C0004CEA113102D0404261EB410113F0004F83
:1001D0004FEA03334CEA133302D0524263EB43033A
:1001E00094EA050F00F0A780A4F10104D5F1200ED8
:1001F0000DDB02FA0EFC22FA05F2801841F1000133
:1002000003FA0EF2801843FA05F359410EE0A5F106
:1002100020050EF1200E012A03FA0EFC28BF4CF037
:10022000020C43FA05F3C01851EBE37101F00045ED
:1002300007D54FF0000EDCF1000C7EEB00006EEBFA
:100240000101B1F5801F1BD3B1F5001F0CD3490884
:100250005FEA30004FEA3C0C04F101044FEA4452DB
:1002600012F5800F80F09A80BCF1004F08BF5FEA62
:10027000500C50F1000041EB045141EA050130BD42
:100280005FEA4C0C404141EB010111F4801FA4F1E5
:100290000104E9D191F0000F04BF01460020B1FA3A
:1002A00081F308BF2033A3F10B03B3F120020CDA72
:1002B0000C3208DD02F1140CC2F10C0201FA0CF050
:1002C00021FA02F10CE002F11402D8BFC2F1200CB5
:1002D00001FA02F120FA0CFCDCBF41EA0C0190406B
:1002E000E41AA2BF01EB0451294330BD6FEA0404B4
:1002F0001F3C1CDA0C340EDC04F11404C4F120029F
:1003000020FA04F001FA02F340EA030021FA04F3B0
:1003100045EA030130BDC4F10C04C4F1200220FA07
:1003200002F001FA04F340EA0300294630BD21FA45
:1003300004F0294630BD94F0000F83F4801306BF0B
:1003400081F480110134013D4EE77FEA645C18BFFF
:100350007FEA655C29D094EA050F08BF90EA020F96
:1003600005D054EA000C04BF1946104630BD91EA8E
:10037000030F1EBF0021002030BD5FEA545C05D191
:100380004000494128BF41F0004130BD14F58004D0
:100390003CBF01F5801130BD01F0004545F0FE4144
:1003A00041F470014FF0000030BD7FEA645C1ABF79
:1003B000194610467FEA655C1CBF0B46024650EAB0
:1003C000013406BF52EA033591EA030F41F40021DC
:1003D00030BD00BF90F0000F04BF0021704730B562
:1003E0004FF4806404F132044FF000054FF0000137
:1003F00050E700BF90F0000F04BF0021704730B5F8
:100400004FF4806404F1320410F0004548BF4042CC
:100410004FF000013EE700BF42004FEAE2014FEA21
:1004200031014FEA02701FBF12F07F4393F07F4FFC
:1004300081F06051704732F07F4208BF704793F0FF
:100440007F4F04BF41F40021704730B54FF4607412
:1004500001F0004521F000411CE700BF50EA010215
:1004600008BF704730B54FF000050AE050EA0102BE
:1004700008BF704730B511F0004502D5404261EB2E
:1004800041014FF4806404F132045FEA915C3FF46F
:10049000D8AE4FF003025FEADC0C18BF03325FEA0C
:1004A000DC0C18BF033202EBDC02C2F1200300FABD
:1004B00003FC20FA02F001FA03FE40EA0E0021FAE2
:1004C00002F11444BDE600BF70B54FF0FF0C4CF4D0
:1004D000E06C1CEA11541DBF1CEA135594EA0C0F82
:1004E00095EA0C0F00F0DEF82C4481EA030621EABD
:1004F0004C5123EA4C5350EA013518BF52EA0335F8
:1005000041F4801143F4801338D0A0FB02CE4FF0A9
:100510000005E1FB02E506F00042E0FB03E54FF0D9
:100520000006E1FB03569CF0000F18BF4EF0010ED1
:10053000A4F1FF04B6F5007F64F5407404D25FEACD
:100540004E0E6D4146EB060642EAC62141EA555180
:100550004FEAC52040EA5E504FEACE2EB4F1FD0CC2
:1005600088BFBCF5E06F1ED8BEF1004F08BF5FEA40
:10057000500E50F1000041EB045170BD06F00046F2
:1005800046EA010140EA020081EA0301B4EB5C049F
:10059000C2BFD4EB0C0541EA045170BD41F4801197
:1005A0004FF0000E013C00F3AB8014F1360FDEBFBC
:1005B000002001F0004170BDC4F10004203C35DA98
:1005C0000C341BDC04F11404C4F1200500FA05F31B
:1005D00020FA04F001FA05F240EA020001F00042BC
:1005E00021F0004110EBD37021FA04F642EB060132
:1005F0005EEA430E08BF20EAD37070BDC4F10C045C
:10060000C4F1200500FA04F320FA05F001FA04F21F
:1006100040EA020001F0004110EBD37041F100010B
:100620005EEA430E08BF20EAD37070BDC4F1200516
:1006300000FA05F24EEA020E20FA04F301FA05F27E
:1006400043EA020321FA04F001F0004121FA04F226
:1006500020EA020000EBD3705EEA430E08BF20EAF6
:10066000D37070BD94F0000F0FD101F00046400030
:1006700041EB010111F4801F08BF013CF7D041EAB2
:10068000060195F0000F18BF704703F000465200B6
:1006900043EB030313F4801F08BF013DF7D043EA87
:1006A0000603704794EA0C0F0CEA135518BF95EA3D
:1006B0000C0F0CD050EA410618BF52EA4306D1D1C4
:1006C00081EA030101F000414FF0000070BD50EAE3
:1006D000410606BF1046194652EA430619D094EA6D
:1006E0000C0F02D150EA013613D195EA0C0F05D157
:1006F00052EA03361CBF104619460AD181EA0301AB
:1007000001F0004141F0FE4141F470014FF0000062
:1007100070BD41F0FE4141F4780170BD70B54FF0FD
:10072000FF0C4CF4E06C1CEA11541DBF1CEA13557D
:1007300094EA0C0F95EA0C0F00F0A7F8A4EB05045F
:1007400081EA030E52EA03354FEA013100F0888056
:100750004FEA03334FF0805545EA131343EA12631F
:100760004FEA022245EA111545EA10654FEA0026D4
:100770000EF000419D4208BF964244F1FD0404F58D
:10078000407402D25B084FEA3202B61A65EB0305E9
:100790005B084FEA32024FF480104FF4002CB6EBA6
:1007A000020E75EB030E22BFB61A754640EA0C0026
:1007B0005B084FEA3202B6EB020E75EB030E22BF66
:1007C000B61A754640EA5C005B084FEA3202B6EBA7
:1007D000020E75EB030E22BFB61A754640EA9C0066
:1007E0005B084FEA3202B6EB020E75EB030E22BF36
:1007F000B61A754640EADC0055EA060E18D04FEAF4
:10080000051545EA16754FEA06164FEAC30343EA93
:1008100052734FEAC2025FEA1C1CC0D111F4801F60
:100820000BD141EA00014FF000004FF0004CB6E759
:1008300011F4801F04BF01430020B4F1FD0C88BFF8
:10084000BCF5E06F3FF6AFAEB5EB030C04BFB6EB03
:10085000020C5FEA500C50F1000041EB045170BDF6
:100860000EF0004E4EEA113114EB5C04C2BFD4EB23
:100870000C0541EA045170BD41F480114FF0000EA7
:10088000013C90E645EA060E8DE60CEA135594EA23
:100890000C0F08BF95EA0C0F3FF43BAF94EA0C0F26
:1008A0000AD150EA01347FF434AF95EA0C0F7FF49B
:1008B00025AF104619462CE795EA0C0F06D152EAEF
:1008C00003353FF4FDAE1046194622E750EA4106D3
:1008D00018BF52EA43067FF4C5AE50EA41047FF4E4
:1008E0000DAF52EA43057FF4EBAE12E74A0011D296
:1008F00012F5001211D20DD56FF47873B3EB62527A
:100900000ED44FEAC12343F0004343EA505323FA85
:1009100002F070474FF00000704750EA013002D1FA
:100920004FF0FF3070474FF00000704753B94AB99D
:10093000002908BF00281CBF4FF0FF314FF0FF30E7
:1009400000F0AEB9ADF1080C6DE904CE00F040F84E
:10095000DDF804E0DDE9022304B07047F8B50022B9
:10096000002307460E4600F0FDF928B93846314607
:10097000BDE8F84000F00AB8384606F1004100F042
:1009800005F8404261EB4101F8BD00BFD0B500223F
:100990000D4B06460F46FFF797FDFFF7A7FF0446EE
:1009A000FFF718FD0022094BFFF78EFD02460B46AC
:1009B00030463946FFF7D0FBFFF798FF0022234669
:1009C00010431946D0BD00BF0000F03D0000F041CB
:1009D0002DE9F0478C460446089E002B4BD18A42F5
:1009E000154667D9B2FA82F24AB1C2F1200701FA7C
:1009F00002F320FA07F7954047EA030C94404FEAC8
:100A0000154EBCFBFEF71FFA85F80EFB17C307FB5C
:100A100008F9210C41EA0343994509D9EB1807F17C
:100A2000FF3180F01C81994540F21981023F2B442F
:100A3000A3EB0903B3FBFEF00EFB103300FB08F140
:100A4000A4B244EA0344A14209D92C1900F1FF33AE
:100A500080F00781A14240F2048102382C4440EA30
:100A600007400027641A1EB10023D440C6E90043A2
:100A70003946BDE8F0878B4209D9002E00F0EC80A2
:100A80000027C6E9000138463946BDE8F087B3FAC9
:100A900083F7002F48D18B4202D3824200F2FB80C1
:100AA000841A61EB030301209C46002EE0D0C6E9C6
:100AB000004CDDE702B9FFDEB2FA82F2002A40F014
:100AC0008F800127491B4FEA15481FFA85F9B1FBB2
:100AD000F8FE08FB1E1109FB0EF04FEA144C4CEA1D
:100AE0000143984207D9EB180EF1FF3102D2984228
:100AF00000F2CD808E461B1AB3FBF8F008FB1033D2
:100B000009FB00F9A4B244EA0344A14507D92C1912
:100B100000F1FF3302D2A14500F2B6801846A4EBE3
:100B2000090440EA0E409EE7C7F12005BB4022FAC7
:100B300005FC4CEA030C21FA05F44FEA1C4EB4FB09
:100B4000FEF91FFA8CF80EFB194420FA05F3B940A0
:100B500009FB08FA19430B0C43EA0444A24502FAC4
:100B600007F200FA07F30BD91CEB040409F1FF307C
:100B700080F08880A24540F28580A9F10209644492
:100B8000A4EB0A04B4FBFEF00EFB104400FB08FAD1
:100B900089B241EA0444A24508D91CEB040400F1DF
:100BA000FF316BD2A24569D90238644440EA09405A
:100BB000A0FB0289A4EB0A044C454146CE4654D31F
:100BC00051D0002E69D05A1A64EB0E0404FA05F5D0
:100BD00022FA07F3FC401D43C6E90054002747E70B
:100BE0009540C2F1200321FA03F04FEA1548B0FB0B
:100BF000F8F71FFA85F908FB170024FA03F3914070
:100C000007FB09FC0B43190C41EA00418C4504FA2F
:100C100002F407D9691807F1FF3031D28C452FD97A
:100C2000023F2944A1EB0C01B1FBF8F008FB101CBA
:100C300000FB09FE99B241EA0C418E4507D96918BB
:100C400000F1FF3318D28E4516D902382944A1EBA2
:100C50000E0140EA07473AE73746304608E70F46B5
:100C6000E6E61846FBE64345ABD2B8EB020169EB7A
:100C70000C0201389646A4E71846E8E7084695E7CF
:100C80000746CFE781467BE702382C4447E7AEF1C1
:100C9000020E2B442FE7384607E73746E8E600BF49
:100CA000704700BF4FF0FF3C06E000BF4FF0010C63
:100CB00002E000BF4FF0010C4DF804CD4FEA410CAB
:100CC0007FEA6C5C4FEA430C18BF7FEA6C5C1BD078
:100CD00001B050EA410C0CBF52EA430C91EA030FF9
:100CE00002BF90EA020F0020704710F1000F91EA56
:100CF000030F58BF994208BF90422CBFD8176FEA24
:100D0000E37040F0010070474FEA410C7FEA6C5CF1
:100D100002D150EA013C07D14FEA430C7FEA6C5CF8
:100D2000D6D152EA033CD3D05DF8040B704700BF24
:100D30008446104662468C461946634600E000BF72
:100D400001B5FFF7B7FF002848BF10F1000F01BD44
:100D50004DF808EDFFF7F4FF0CBF012000205DF80F
:100D600008FB00BF4DF808EDFFF7EAFF34BF012094
:100D700000205DF808FB00BF4DF808EDFFF7E0FF2D
:100D800094BF012000205DF808FB00BF4DF808ED7E
:100D9000FFF7CEFF94BF012000205DF808FB00BFE5
:100DA0004DF808EDFFF7C4FF34BF012000205DF8C7
:100DB00008FB00BF10B504460E4B18784FF47A7349
:100DC000B3FBF0F30C4A1068B0FBF3F000F0F6F957
:100DD00058B90F2C0BD8002221464FF0FF3000F0FD
:100DE000A1F9044B5C60002010BD012010BD012062
:100DF00010BD00BF000000203801002008B5074AE0
:100E0000136843F010031360032000F079F9002009
:100E1000FFF7D0FF05F0C4F8002008BD0020024015
:100E2000034A1368034909780B441360704700BFF5
:100E30001C05002000000020014B1868704700BF0F
:100E40001C05002038B50446FFF7F6FF0546B4F14F
:100E5000FF3F02D0044B1B781C44FFF7EDFF401B03
:100E60008442FAD838BD00BF0000002070B483B0BF
:100E70000023019390F82430012B00F08880012397
:100E800080F824304B68062B0ED80668756B03EB90
:100E90008303053B1F249C4025EA04040A6802FAE8
:100EA00003F3234373631EE00C2B0ED805682A6BF3
:100EB00003EB8303233B1F249C4022EA04040A68BB
:100EC00002FA03F323432B630DE00568EA6A03EBA0
:100ED0008303413B1F249C4022EA04040A6802FA6F
:100EE00003F32343EB620B68092B0ED90668F56800
:100EF00003EB43031E3B07249C4025EA04048A6855
:100F000002FA03F32343F3600CE00668356903EB50
:100F1000430307249C4025EA04048A6802FA03F389
:100F2000234333610B68103B012B26D803681A4A10
:100F300093421CD19A6812F4000F20D19A6842F4AF
:100F400000029A600B68102B1BD1144B1B68144ACB
:100F5000A2FB03239B0C03EB83035A00019202E0E4
:100F6000019B013B0193019B002BF9D10AE0836AAD
:100F700043F020038362012304E0002302E0002306
:100F800000E00023002280F82420184600E0022020
:100F900003B070BC704700BF00240140380100203E
:100FA00083DE1B4338B503689A6812F0010F1ED028
:100FB00004469A6822F001029A60FFF73DFF054659
:100FC0000EE0FFF739FF401B022809D9A36A43F05E
:100FD0001003A362E36A43F00103E362012038BD1A
:100FE00023689B6813F0010FEBD1002038BD00206F
:100FF00038BD00BF00287DD038B50446836A23B9C8
:10100000C36280F8243004F0EBFF2046FFF7CAFFEC
:10101000A36A13F0100F67D1002865D1A36A23F4E7
:10102000885323F0020343F00203A3626268E3697A
:101030001343E16843EA4103A268B2F5807F04D01C
:10104000012A05D14FF4807503E04FF4807500E06C
:1010500000256269012A0FD131B9A269013A45EA36
:10106000423242F4006507E0A26A42F02002A26226
:10107000E26A42F00102E26221684A6822F46942AF
:101080002A434A6021688D681B4A2A401A438A60B5
:10109000A268B2F5807F01D0012A03D12269013A0A
:1010A000110500E000212568EA6A22F470020A4373
:1010B000EA6222689168114A0A40934208D10023EB
:1010C000E362A36A23F0030343F00103A36238BD84
:1010D000A36A23F0120343F01003A362E36A43F010
:1010E0000103E362012038BDA36A43F01003A36249
:1010F000012038BD01207047FDF7E1FFFE0E1FFF04
:10110000074AD36823F4E0631B041B0C000200F4BD
:10111000E060184340F0BF6040F40030D06070479A
:1011200000ED00E030B4164BDB68C3F30223C3F1DB
:101130000704042C28BF04241D1D062D01D9DD1E23
:1011400000E00025012303FA04F4013C2140A940FA
:10115000AB40013B1A400A43002806DA00F00F00BA
:101160001201D2B2074B1A5407E01201D2B200F1B9
:10117000604000F5614080F8002330BC704700BF3C
:1011800000ED00E014ED00E0420900F01F00012333
:1011900003FA00F0014B43F82200704700E100E041
:1011A000430900F01F00012202FA00F02033024A36
:1011B00042F82300704700BF00E100E00138B0F1C1
:1011C000807F0AD2064B5860F021064A82F823102D
:1011D0000020986007221A6070470120704700BF06
:1011E00010E000E000ED00E008B590F82130022B9F
:1011F00003D004238363012008BD0268136823F031
:101200000E0313600268136823F001031360036880
:10121000194A934211D01432934210D0143293429F
:101220000FD0143293420FD0143293420FD01432A5
:1012300093420FD14FF480120EE001220CE01022F5
:101240000AE04FF4807207E04FF4805204E04FF45C
:10125000803201E04FF08072084B5A60012380F821
:101260002130002380F82030436B13B198470020D1
:1012700008BD002008BD00BF080002400000024079
:10128000F0B583B000263446D5E00122A2400B68B9
:1012900013409A4240F0CE804D68122D2DD00BD8CD
:1012A000022D27D003D85DB3012D1ED035E0032DCC
:1012B00030D0112D1BD030E0614FBD4220D008D876
:1012C000A7F58017BD421BD007F58037BD4224D15A
:1012D00016E05C4FBD4213D007F58037BD420FD0FA
:1012E000A7F58017BD4218D10AE0CE6815E0CE6898
:1012F000043612E0CE6808360FE0CE680C360CE0FB
:101300008D684DB1012D02D10261082605E04261D0
:10131000082602E0002600E00426FF2B01D88646BE
:1013200001E000F1040EFF2B01D8A20002E0A4F1BD
:1013300008029200DEF800700F25954027EA0505A7
:1013400006FA02F22A43CEF800204A6812F0805FC3
:1013500070D03D4A956945F001059561926902F0AA
:1013600001020192019AA708BD1C384A52F8255083
:1013700004F0030292004FF00F0E0EFA02FE25EA6F
:101380000E0E334DA8420DD005F58065A8420BD056
:1013900005F58065A84209D005F58065A84207D10A
:1013A000032506E0002504E0012502E0022500E017
:1013B000042505FA02F24EEA02020237234D45F8EF
:1013C00027204A6812F4803F05D005F580652A6819
:1013D0001A432A6004E01F4D2A6822EA03022A60A9
:1013E0004A6812F4003F04D01A4D6A681A436A60D2
:1013F00004E0184D6A6822EA03026A604A6812F43F
:10140000801F04D0134DAA681A43AA6004E0114D4E
:10141000AA6822EA0302AA604A6812F4001F04D0F4
:101420000C4DEA681343EB6004E00A4DEA6822EAD7
:101430000303EB6001340F2C7FF627AF03B0F0BD40
:101440000000211000003110001002400000014097
:1014500000080140000401408368194201D00120C6
:1014600070470020704700BF0AB10161704709044E
:1014700001617047C3685940C160704708B5044BAB
:101480005B69034203D0024B586105F0D3FF08BDEE
:101490000004014090F83E30DBB2402B0ED1036DCA
:1014A0002BB90268436C03F0FE03136132E002685B
:1014B000436C43F00103DBB213612BE00369B3F526
:1014C000804F11D190F83D30DBB2212B05D102685D
:1014D000436C03F0FE0313611CE00268436C43F0AD
:1014E0000103DBB2136115E0036D43B90268436C7D
:1014F000DB1103F0060343F0F00313610AE0036D10
:10150000012B07D10268436CDB1103F0060343F0A3
:10151000F1031361002070470268436CDBB2136172
:101520000020704710B48DB090F83E30DAB2C16A36
:10153000046B90F83D30DBB2222B40F0D380036D7A
:101540004BB9402A07D1019303685A6901929B69FC
:101550000193019BCEE0036D9BB90369B3F5404F46
:101560000FD10023029303685A6902929A6902928A
:10157000029A1A6842F480721A60036D013303659F
:10158000B8E0438D9BB25BB9039303685A69039239
:101590009A690392039A1A6842F400721A609EE0F4
:1015A000438D9BB2012B54D111F5803F22D10268AB
:1015B000136823F48063136003685A6812F4006FA1
:1015C0000CD01A6822F480621A6000230493036826
:1015D0005A6904929B690493049B80E0002205925F
:1015E0005A6905929A690592059A1A6842F400723E
:1015F0001A6074E004291AD0082918D0122C16D0C9
:10160000C36A022B05D00268136823F48063136059
:1016100004E00268136843F48063136000230693B8
:1016200003685A6906929B690693069B57E0026815
:10163000136823F4806313600023079303685A69D7
:1016400007929A690792079A1A6842F400721A6020
:1016500045E0438D9BB2022B2BD1C36A022B11D0E4
:101660000268136843F4006313600023089303685F
:101670005A6908929A690892089A1A6822F4806254
:101680001A600CE00268136843F48063136000235F
:10169000099303685A6909929B690993099B036836
:1016A0005A6812F4006F1AD05A6842F480525A6095
:1016B00015E00268136843F48063136003685A6896
:1016C00012F4006F03D05A6842F480525A6000232B
:1016D0000A9303685A690A929B690A930A9B00233A
:1016E000036507E000230B9303685A690B929B691B
:1016F0000B930B9B00200DB010BC7047438D9BB229
:1017000053B10268436A591C41621B781361438DCF
:101710009BB2013B9BB2438500207047438D9BB237
:1017200053B1436A5A1C4262026812691A70438DAF
:101730009BB2013B9BB2438500207047002800F01C
:10174000A28070B5044690F83D3013F0FF0F04D12D
:10175000002380F83C3004F073FC242384F83D30EF
:101760002268136823F00103136001F063FD6268CF
:10177000474B9A4205D8474B98428CBF0023012320
:1017800004E0454B98428CBF00230123002B7CD101
:10179000424BA3FB00239B0C2268536021686568C1
:1017A0003B4A954201D8013308E04FF4967202FBA0
:1017B00003F33B4AA2FB03239B0901330B6222681C
:1017C0006168334B99420AD801384900B0FBF1F007
:1017D0000130C0F30B00042838BF042035E0A568B1
:1017E0005DB9431E01EB4106B3FBF6F30133C3F3CE
:1017F0000B03B3FA83F35B090CE0431E01EB810694
:1018000006EB8606B3FBF6F30133C3F30B03B3FA1F
:1018100083F35B09C3B955B9431E01EB4100B3FB28
:10182000F0F00130C0F30B0040F400400DE0431E27
:1018300001EB810000EB8000B3FBF0F00130C0F35E
:101840000B0040F4404000E00120D0612268E169D3
:10185000236A0B43136022682169E3680B4393609A
:1018600022686169A3690B43D3602268136843F05F
:101870000103136000202064202384F83D3020639E
:1018800084F83E0070BD01207047012070BD00BF8C
:10189000A08601007F841E00FF083D0083DE1B43FD
:1018A000D34D6210704700BF704700BF704700BF44
:1018B00090F83D30DAB2438D9BB2F3B110B50168B8
:1018C000436A5C1C44621B780B61438D9BB2013BF5
:1018D0009BB24385438D9BB26BB9292A0BD1026819
:1018E000536823F48063536021230363282380F823
:1018F0003D30FFF7DBFF002010BD0020704700BF28
:10190000704700BF08B590F83D30DAB2438D9BB206
:10191000DBB1436A591C4162016809691970438D42
:101920009BB2013B9BB24385438D9BB26BB92A2A84
:101930000BD10268536823F480635360222303634E
:10194000282380F83D30FFF7DBFF002008BD00BFF3
:10195000704700BF08B503689A6912F0040F01D000
:10196000002100E001219B6913F0800F01D18289E1
:1019700000E0028BFFF7ECFF002008BD704700BFBE
:1019800008B590F83D30DBB2C26A042A01D0082ABB
:101990001BD1282B19D11E4BC3620268536823F454
:1019A000E063536003686FF480625A6102681368F1
:1019B00023F48063136000230363202280F83D201A
:1019C00080F83E30FFF7DAFF20E0212B1AD1104BD0
:1019D000C36221230363202380F83D30002380F875
:1019E0003E300268536823F4E063536003686FF489
:1019F00080625A610268136823F480631360FFF702
:101A000055FF03E003686FF480625A61002008BD4F
:101A10000000FFFF704700BF10B590F83D30DBB20B
:101A200090F83E20D2B2C46A018D002938D1212B12
:101A300036D1042C14D0082C12D014F5803F0FD0CE
:101A40000268536823F4E0635360112303630023A7
:101A500080F83E30202380F83D30FFF723FF7EE002
:101A60000268536823F4E06353600268136843F428
:101A70000073136000230363202380F83D3090F847
:101A80003E30DBB2402B05D1002380F83E30FFF71B
:101A9000C1FF64E0002380F83E30FFF703FF5EE003
:101AA000212B03D0402A5AD1222B58D1438D9BB2EF
:101AB0002BB90268536823F4806353604FE090F8B9
:101AC0003E30DBB2402B3FD1036D9BB9C36C012B81
:101AD00007D10268836CDBB21361036D02330365C7
:101AE0003DE00268836CC3F307231361036D013388
:101AF000036534E0036D012B07D10268836CDBB210
:101B00001361036D0133036529E0036D022B26D1B8
:101B100090F83D30DBB2222B05D10268136843F404
:101B2000807313601BE090F83D30DBB2212B16D19F
:101B30000268436A591C41621B781361438D9BB252
:101B4000013B9BB243850AE00268436A591C41622B
:101B50001B781361438D9BB2013B9BB243850020F0
:101B600010BD00BF08B5C26A90F83D30DBB2212B32
:101B700044D1438D9BB25BB10268436A591C4162F8
:101B80001B781361438D9BB2013B9BB2438535E0CB
:101B9000042A14D0082A12D012F5803F0FD0026810
:101BA000536823F4E063536011230363002380F838
:101BB0003E30202380F83D30FFF774FE1EE00268BF
:101BC000536823F4E06353600268136843F40073BE
:101BD000136000230363202380F83D3090F83E30EB
:101BE000DBB2402B05D1002380F83E30FFF712FF17
:101BF00004E0002380F83E30FFF754FE002008BDCB
:101C0000704700BF08B590F83D30DBB2222B5ED1A3
:101C1000438D9BB2032B0BD9436A5A1C4262026864
:101C200012691A70438D9BB2013B9BB243854EE013
:101C3000023B012B18D8C36A022B0AD00268136832
:101C400023F4806313600268136843F40063136035
:101C500004E00268136843F4806313600268536809
:101C600023F48063536032E0C36A022B05D002681C
:101C7000136823F48063136004E00268136843F47C
:101C8000806313600268536823F4E0635360436A1F
:101C90005A1C4262026812691A70438D9BB2013B62
:101CA0009BB24385202380F83D300023036390F8E6
:101CB0003E30DBB2402B05D1002380F83E30FFF7E9
:101CC0009FFF04E0002380F83E30FFF7EDFD002089
:101CD00008BD00BF08B5C26A438D9BB2032B17D164
:101CE000042A04D0082A02D012F5803F04D10268E9
:101CF000136823F480631360436A5A1C42620268CB
:101D000012691A70438D9BB2013B9BB243855EE022
:101D1000438D9BB2022B4FD1042A17D0082A15D02D
:101D200012F5803F12D0022A05D00268136823F40E
:101D30008063136004E00268136843F480631360F7
:101D40000268536823F44073536009E002685368E3
:101D500023F4407353600268136843F40073136004
:101D6000436A5A1C4262026812691A70438D9BB220
:101D7000013B9BB24385436A5A1C42620268126966
:101D80001A70438D9BB2013B9BB24385202380F8A0
:101D90003D300023036390F83E30DBB2402B05D189
:101DA000002380F83E30FFF72BFF10E0002380F87F
:101DB0003E30FFF779FD0AE0436A5A1C426202682E
:101DC00012691A70438D9BB2013B9BB24385002080
:101DD00008BD00BF704700BF704700BF10B5044684
:101DE00090F83D30293B012B05D8002303632823BD
:101DF00080F83D3010E090F83D30DBB2602B07D02A
:101E000003685B6813F4006F02D1202380F83D3033
:101E10000023236384F83E302268136823F40063B0
:101E2000136023685A6812F4006F39D05A6822F49C
:101E300000625A60636B93F82120012A12D0374A5E
:101E40005A63606BFFF7D0F9002851D022681368FD
:101E500023F001031360202384F83D30606B436B53
:101E6000984745E0A36B2D4A5A63A06BFFF7BCF976
:101E700000283DD023685A6912F0400F04D0626AEE
:101E8000511C61621B6913702268136823F00103FF
:101E90001360202384F83D30A06B436B984727E004
:101EA00094F83D20D2B2602A16D1202284F83D2039
:101EB000002222645A6912F0400F04D0626A511C59
:101EC00061621B6913702268136823F001031360B9
:101ED0002046FFF781FF0BE05A6912F0400F04D053
:101EE000626A511C61621B6913702046FFF772FF22
:101EF00094F83D30DBB2282B0FD1236C13F0040F84
:101F00000BD0074BE36200232363202284F83D209B
:101F100084F83E302046FFF731FD10BD61220008F5
:101F20000000FFFF10B582B090F83D30DBB20168D1
:101F30004A6822F4E0624A60002201920268516914
:101F40000191116841F001011160019A01680A686C
:101F500022F480620A6001684A6812F4006F14D0AB
:101F600090F83D20D2B2222A04D090F83D20D2B27F
:101F70002A2A05D1826B1268526892B2428504E027
:101F8000426B1268526892B24285428D92B202B39D
:101F90004A6912F0040F09D0426A541C446209696C
:101FA0001170428D92B2013A92B242850268516933
:101FB00011F0400F09D0416A4C1C446212690A704A
:101FC000428D92B2013A92B24285026C42F0040212
:101FD0000264026C12B1FFF701FF1FE0282B03D04F
:101FE0002A2B01D0292B0BD10E4BC3620023036394
:101FF000202280F83D2080F83E30FFF7BFFC0DE046
:10200000026B222A01D0222B08D100230363202255
:1020100080F83D2080F83E30FFF772FC002002B0CF
:1020200010BD00BF0000FFFFF8B5054603689F69BB
:102030005C695E6890F83E30DBB2102B01D0402B1B
:102040004FD114F0011F06D016F4007F03D02846AC
:10205000FFF720FA12E0454B234033B116F4007F1E
:1020600003D02846FFF758FA08E0414B23402BB134
:1020700016F4007F02D02846FFF754FA3D4B3B4050
:10208000BBB13D4B23404BB116F4806F06D03B4BA8
:1020900023401BB92846FFF7BFFCF8BD374B234050
:1020A000002B61D016F4007F5ED02846FFF75AFD62
:1020B000F8BD334B23404BB116F4806F06D02F4B45
:1020C00023401BB92846FFF79DFDF8BD2B4B23404D
:1020D000002B49D016F4007F46D02846FFF7FAFDC2
:1020E000F8BD234B23402BB116F4007F02D0FFF73D
:1020F00031FCF8BD234B234033B116F4007F03D0ED
:102100002846FFF70FFFF8BD1A4B3B40B3B11A4BFF
:1021100023404BB116F4806F06D0184B23401BB9F7
:102120002846FFF7C5FBF8BD144B2340E3B116F476
:10213000007F19D02846FFF7E1FAF8BD104B234085
:102140004BB116F4806F06D00C4B23401BB92846C8
:10215000FFF7D8FBF8BD094B23402BB116F4007FE5
:1021600002D02846FFF7DAFAF8BD00BF08000100E8
:1021700002000100040010008000010004000100C2
:10218000400001001000010070B5044603685D695D
:102190005E68324A15420ED016F4807F0BD0026C76
:1021A00042F0010202646FF480725A61026813689F
:1021B00043F40043136015F4813F0AD016F4807F86
:1021C00007D0236C43F00203236423686FF400728A
:1021D0005A6115F4823F2CD016F4807F29D094F8F0
:1021E0003E30DBB2628D91B294F83D20D2B2206BCA
:1021F000202B0CD159B9212A05D0292A03D0282A0D
:1022000005D1212803D12046FFF7BAFB11E0236C4A
:1022100043F00403236494F83E30DBB2102B04D166
:102220002268136843F40073136023686FF48062BC
:102230005A6115F4843F0AD016F4807F07D0236CCE
:1022400043F00803236423686FF400625A61236C2F
:1022500013B12046FFF7C2FD70BD00BF00010100B1
:1022600008B5406A0268136823F480631360002392
:102270004385426B5363826B536390F83D30DBB20E
:10228000602B0ED1202380F83D30002380F83E30B3
:1022900003640268136823F001031360FFF79CFDD9
:1022A00008BD202380F83D30002380F83E300268CE
:1022B000136823F001031360FFF78CFD08BD00BF16
:1022C000002867D0F0B587B0044690F8293413F0A1
:1022D000FF0F04D1002380F8283404F08DF8032385
:1022E00084F82934206802F085F9254655F8107BDA
:1022F0006E460FCD0FC62B683360231D0ECB3846BC
:1023000002F066F90021206802F07EF9002310E057
:1023100004EB4312012182F8291082F828309386B9
:10232000002182F82B109163D1639A1C5201A150B5
:1023300001330E2BECD9002312E004EB43120021F1
:1023400082F8291282F82832938682F82B12C2F87A
:102350003812C2F83C1203F112025201A1500133AB
:102360000E2BEAD9254655F8107B6E460FCD0FC6C9
:102370002B683360231D0ECB384602F047F9002549
:1023800084F82450012384F82934206802F066FC84
:10239000284601E00120704707B0F0BD90F82834CE
:1023A000012B10D010B50446012180F8281404F048
:1023B0005CF9206802F050FC206802F011F900205E
:1023C00084F8280410BD0220704700BF90F828341C
:1023D000012B0DD010B50446012380F8283480F875
:1023E0002410006802F032FC002084F8280410BD9C
:1023F0000220704738B54DB2002D05DA01F07F0498
:1024000064012834044405E001F07F04640104F50C
:102410000A74044401F07F012170ED0F65702261A0
:10242000E37090F82834012B0BD00546012380F887
:1024300028342146006802F0FFF8002085F82804BF
:1024400038BD022038BD00BF4AB2002A05DA01F0CB
:102450007F035B012833034405E001F07F035B0148
:1024600003F50A73034401F07F011970D20F5A700B
:1024700090F82824012A0CD010B50446012280F8D7
:1024800028241946006802F075FA002084F8280410
:1024900010BD0220704700BF70B501F07F056C01D0
:1024A00004F50A7101440444C4F83C2205F1120207
:1024B0005201861883500023736084F8293284F80F
:1024C00028521DB9006802F0E5FB02E0006802F046
:1024D000E1FB002070BD00BF01F00F01123100EBE5
:1024E00041108088704700BF70B501F07F056C0116
:1024F00004F1280101440444E263AA1C5201861835
:10250000835000237360012384F8293084F8285015
:102510001DB9006802F0BEFB02E0006802F0BAFBE1
:10252000002070BD70B582B005460023ADF80630BE
:10253000ADF8043016E2BDF8064014F00F0440F088
:10254000C880BDF8063003F010039BB29BBB038824
:102550009BB223F4E14323F070039BB2038029680C
:10256000B1F850309AB295F8283002EBC303023329
:1025700001EB4303D3F80034C3F309036B64EA6B44
:102580001344EB630021284603F068FF95F82430DC
:1025900013F0FF0F00F0E6812B6C002B40F0E2817E
:1025A0002A6895F8243043F08003A2F84C300023C9
:1025B00085F82430D6E103889BB2ADF80430BDF82D
:1025C000043003F400639BB203B3B0F850309BB205
:1025D00095F8282203EBC203063300EB4303D3F83C
:1025E0000034C3F30903C5F84432B5F82C2205F2D0
:1025F0002C4102F0C3FC2A68138823F070031B05EA
:102600001B0D1380284603F017FFABE1BDF8043023
:1026100013F4004F00F0A681038823F070031B051C
:102620001B0D03802868B0F850309BB295F8282223
:1026300003EBC203063300EB4303D3F80034C3F3C8
:102640000903C5F8443263B1B5F82C22D5F83C1221
:1026500002F094FCD5F83C22D5F844321344C5F876
:102660003C320021284603F0EFFE2A68B2F85030D1
:102670009BB2063302EB4303D5F838123E290ED93C
:10268000C1F34F1211F01F0F01D1013A92B26FEA5C
:10269000C2626FEA524292B2C3F800240AE0C1F368
:1026A0004F0211F0010F01D0013292B2920292B2A8
:1026B000C3F800242A6813889BB223F4804323F0D4
:1026C000700383F4405343F4004343F080031380CA
:1026D00048E130F824309BB2ADF80430BDF8043046
:1026E00013F4004F00F0968030F8243023F070038C
:1026F0001B051B0D20F8243005EB441393F83232F0
:10270000E3B92868B0F850309BB205EB441292F858
:10271000282203EBC203063300EB4303B3F8006443
:10272000C6F30906002E52D005EB44113346B1F82A
:102730002C22D1F83C1202F021FC48E0286805EB7D
:10274000441393F8281230F8213003F480439BB2ED
:10275000B3B1B0F8502092B202EBC103023300EBE8
:102760004303B3F80064C6F30906FEB105EB441158
:102770003346B1F82E22D1F83C1202F0FFFB15E0EF
:10278000B0F850309BB203EBC103063300EB4303B8
:10279000B3F80064C6F3090646B105EB44113346AD
:1027A000B1F83022D1F83C1202F0E8FB2A6805EBC0
:1027B000441393F8281232F8213023F0F0031B055C
:1027C0001B0D43F4004343F0C00322F8213004F111
:1027D00012035B01E9184A6832444A6005EB441170
:1027E000D1F83C223244C1F83C22EB581BB1D1F85D
:1027F00038128E4207D205EB441393F8281228466C
:1028000003F022FE06E005EB441191F82812284659
:10281000FFF742FEBDF8043003F080039BB2002BAB
:1028200000F0A0802A6832F824309BB223F4E14300
:1028300023F070039BB222F8243005EB441393F885
:102840003230EBB92868B0F850309BB205EB441237
:1028500092F8282003EBC203023300EB4303D3F8C2
:102860000034C3F30903A21C05EB42125360002B92
:1028700051D005EB44118A8DC96B02F0F7F94AE09B
:10288000286805EB441393F8281030F8213003F042
:1028900040039BB2BBB1B0F8502092B202EBC1032F
:1028A000023300EB4303D3F80034C3F30903A21C43
:1028B00005EB42125360EBB105EB4411CA8DC96BB5
:1028C00002F0D4F916E0B0F850309BB203EBC1032C
:1028D000063300EB4303D3F80034C3F30903A21C0F
:1028E00005EB421253602BB105EB44110A8EC96B04
:1028F00002F0BCF92A6805EB441393F8281032F86B
:10290000213023F0F0031B051B0D43F4404343F03B
:10291000800322F821302968B1F850309AB205EBD3
:10292000441090F8283002EBC303023301EB430359
:10293000D3F80034C3F30903A11C49016A1853609A
:10294000C26B1A44C2636B582BB990F82810284602
:1029500003F084FD06E005EB441494F828102846A3
:10296000FFF7C2FD2868B0F844309BB2ADF80630DE
:1029700013F4004F7FF4DFAD002002B070BD00BF44
:1029800010B50446006802F06BF910F4004F02D055
:102990002046FFF7C7FD206802F062F910F4806F4F
:1029A0000FD02268B2F844309BB223F480639BB20C
:1029B000A2F84430204603F060FD00212046FFF7D6
:1029C00005FD206802F04CF910F4804F08D0226811
:1029D000B2F844309BB223F480439BB2A2F8443057
:1029E000206802F03DF910F4005F08D02268B2F8C8
:1029F00044309BB223F400539BB2A2F844302068C9
:102A000002F02EF910F4805F1DD02268B2F8403039
:102A10009BB223F004039BB2A2F840302268B2F8C4
:102A200040309BB223F008039BB2A2F8403020460E
:102A300003F040FD2268B2F844309BB223F4805387
:102A40009BB2A2F84430206802F00AF910F4006F3B
:102A500021D02268B2F840309BB243F00803A2F8BC
:102A600040302268B2F844309BB223F400639BB23A
:102A7000A2F844302268B2F840309BB243F004031D
:102A8000A2F84030206802F0EBF810F4805F02D129
:102A9000204603F0FFFC206802F0E2F810F4007F0B
:102AA0000BD02268B2F844309BB223F400739BB27F
:102AB000A2F84430204603F0DAFC206802F0D0F897
:102AC00010F4807F08D02268B2F844309BB223F41F
:102AD00080739BB2A2F8443010BD00BF38B54AB233
:102AE000002A05DA01F07F035B012833034403E089
:102AF0004B0103F50A73034401249C7001F07F0429
:102B00001C70D20F5A7090F82824012A11D0054663
:102B1000012280F828241946006802F013F824B92D
:102B200005F22C41286802F09FF8002085F828045F
:102B300038BD022038BD00BF10B54AB2002A05DA00
:102B400001F07F035B012833034403E04B0103F5ED
:102B50000A73034400249C7001F07F011970D20FA6
:102B60005A7090F82824012A0BD00446012280F8DC
:102B700028241946006802F01DF8002084F8280473
:102B800010BD022010BD00BF10B401F08004A4B23B
:102B90002CB101F07F0149012831014403E04901D2
:102BA00001F50A71014412B98A728B8004E0012296
:102BB0008A72CB801B0C0B81002010BC704700BFB9
:102BC0000122014B1A60704720000E4290FAA0F0DB
:102BD000B0FA80F0024B03449B0000221A60704759
:102BE0002080831082B0084B1B68084AA2FB032395
:102BF0005B0A00FB03F0019000BF019B5A1E01928B
:102C0000002BF9D102B0704738010020D34D62107B
:102C100070B582B00446036813F0010F6BD0A84B67
:102C20005B6803F00C03042B0AD0A54B5B6803F030
:102C30000C03082B0DD1A24B5B6813F4803F08D026
:102C40009F4B1B6813F4003F55D06368002B52D193
:102C5000B8E16368B3F5803F05D1994A136843F43E
:102C60008033136026E063B903F1804303F5043336
:102C70001A6822F480321A601A6822F480221A60DC
:102C800018E0B3F5A02F0CD103F18043A3F53C333A
:102C90001A6842F480221A601A6842F480321A607C
:102CA00008E0874B1A6822F480321A601A6822F40E
:102CB00080221A6063687BB1FEF7BEF8054605E026
:102CC000FEF7BAF8401B642800F27E817C4B1B683B
:102CD00013F4003FF4D00EE0FEF7AEF8054605E031
:102CE000FEF7AAF8401B642800F27081744B1B6841
:102CF00013F4003FF4D1236813F0020F50D0704B4F
:102D00005B6813F00C0F0AD06D4B5B6803F00C038B
:102D1000082B16D16A4B5B6813F4803F11D1684BC6
:102D20001B6813F0020F03D02369012B40F0508180
:102D3000634A136823F0F803616943EAC10313602F
:102D40002EE02369D3B101225E4B1A60FEF774F8BE
:102D5000054605E0FEF770F8401B022800F23A81B4
:102D6000574B1B6813F0020FF4D0554A136823F039
:102D7000F803616943EAC103136011E00022514B7B
:102D80001A60FEF759F8054605E0FEF755F8401BB6
:102D9000022800F221814A4B1B6813F0020FF4D184
:102DA000236813F0080F29D0A369ABB10122464B69
:102DB0001A60FEF741F8054605E0FEF73DF8401BB6
:102DC000022800F20B813E4B5B6A13F0020FF4D035
:102DD0000120FFF707FF11E000223B4B1A60FEF7CE
:102DE0002BF8054605E0FEF727F8401B022800F205
:102DF000F780334B5B6A13F0020FF4D1236813F0B2
:102E0000040F00F089802E4BDB6913F0805F0BD13B
:102E10002B4BDA6942F08052DA61DB6903F08053B0
:102E20000193019B012500E00025284B1B6813F44A
:102E3000807F13D1254A136843F480731360FDF734
:102E4000FBFF064605E0FDF7F7FF801B642800F254
:102E5000C9801E4B1B6813F4807FF4D0E368012BFC
:102E600005D1174A136A43F00103136222E063B9E4
:102E700003F1804303F504331A6A22F001021A6257
:102E80001A6A22F004021A6214E0052B09D10C4BD5
:102E90001A6A42F004021A621A6A42F001021A62C5
:102EA00008E0074B1A6A22F001021A621A6A22F03D
:102EB00004021A62E368CBB1FDF7BEFF06460FE0DD
:102EC0000010024000004242800442420070004074
:102ED000FDF7B2FF801B41F28833984200F28480F4
:102EE000494B1B6A13F0020FF2D00FE0FDF7A4FF6D
:102EF000064606E0FDF7A0FF801B41F288339842AA
:102F000074D8414B1B6A13F0020FF3D125B13E4A2E
:102F1000D36923F08053D361E369002B68D03A4A28
:102F2000526802F00C02082A64D0022B37D100222A
:102F3000364B1A60FDF780FF054604E0FDF77CFF85
:102F4000401B022858D8304B1B6813F0007FF5D186
:102F5000236AB3F5803F06D12B494B6823F4003236
:102F6000A36813434B602848436823F47411236A11
:102F7000626A13430B4343600122244B1A60FDF73E
:102F80005BFF044604E0FDF757FF001B022835D81D
:102F90001D4B1B6813F0007FF5D0002031E00022AC
:102FA0001A4B1A60FDF748FF044604E0FDF744FFA2
:102FB000001B022824D8144B1B6813F0007FF5D1A6
:102FC00000201EE001201CE003201AE0032018E08E
:102FD000012016E0032014E0032012E0032010E09B
:102FE00003200EE003200CE003200AE0032008E0A9
:102FF000002006E0012004E0032002E0032000E0BE
:10300000032002B070BD00BF0010024060004242C9
:1030100030B486B0164D02AC28686968AA68EB68BF
:103020000FC42B8AADF80430124B5B6803F00C021E
:10303000082A19D1C3F3834206A90A4412F8100CD6
:1030400013F4803F0CD00B4B5B68C3F340430B443D
:1030500013F8142C084B03FB00F0B0FBF2F004E073
:10306000064B03FB00F000E0034806B030BC70479D
:10307000E48200080010024000127A0000093D00BE
:1030800070B5654B1B6803F007038B420BD2624A95
:10309000136823F007030B431360136803F007035F
:1030A000994240F0A880036813F0020F17D013F084
:1030B000040F04D0594A536843F4E0635360036833
:1030C00013F0080F04D0554A536843F4605353601B
:1030D000524C636823F0F0028368134363600D462B
:1030E0000446036813F0010F4DD04268012A05D150
:1030F0004A4B1B6813F4003F0DD17EE0022A05D134
:10310000464B1B6813F0007F05D178E0434B1B68EA
:1031100013F0020F75D041494B6823F003031343AA
:103120004B60FDF789FE06466368012B0ED106E071
:10313000FDF782FE801B41F28833984263D8374BFB
:103140005B6803F00C03042BF2D11CE0022B15D1B9
:1031500006E0FDF771FE801B41F28833984254D897
:103160002E4B5B6803F00C03082BF2D10BE0FDF74C
:1031700063FE801B41F28833984248D8274B5B6836
:1031800013F00C0FF3D1244B1B6803F007039D428F
:103190000AD2214A136823F007032B4313601368F4
:1031A00003F007039D4234D1236813F0040F06D0C7
:1031B0001A494B6823F4E062E36813434B602368C9
:1031C00013F0080F07D0154A536823F460532169A0
:1031D00043EAC1035360FFF71BFF104B5B68C3F367
:1031E00003130F4AD35CD8400E4B18600020FDF744
:1031F000E1FD002070BD012070BD012070BD0120E7
:1032000070BD012070BD032070BD032070BD032080
:1032100070BD012070BD00BF0020024000100240C0
:103220000C83000838010020014B1868704700BF6C
:103230003801002008B5FFF7F7FF044B5B68C3F3C4
:103240000223034AD35CD84008BD00BF00100240EF
:103250001C83000808B5FFF7E7FF044B5B68C3F366
:10326000C223034AD35CD84008BD00BF001002400F
:103270001C83000870B582B00446036813F0010F88
:103280005CD03E4BDB6913F0805F0BD13B4BDA69BE
:1032900042F08052DA61DB6903F080530193019BB5
:1032A000012600E00026364B1B6813F4807F12D104
:1032B000334A136843F480731360FDF7BDFD054680
:1032C00004E0FDF7B9FD401B64284FD82C4B1B6868
:1032D00013F4807FF5D0294B1B6A13F4407321D07F
:1032E000626802F4407293421CD0244A136A23F4A9
:1032F0004070244901250D6000250D60106213F017
:10330000010F0FD0FDF798FD054606E0FDF794FD8F
:10331000401B41F2883398422AD8184B1B6A13F09D
:10332000020FF3D015490B6A23F44072636813430C
:103330000B621EB1CB6923F08053CB61236813F07D
:10334000020F06D00D494B6823F44042A368134393
:103350004B60236813F0100F0CD008494B6823F41E
:103360008002E36813434B60002004E0032002E086
:10337000032000E0002002B070BD00BF001002403A
:10338000007000404004424270B586B006463B4D96
:1033900002AC28686968AA68EB680FC42B8AADF88C
:1033A0000430022E4ED0102E02D0012E55D12DE029
:1033B000334B5A681B6813F0807F50D0C2F38343AD
:1033C00006A90B4413F8103C12F480320ED02C499D
:1033D0004968C1F3404106A8014411F8140C4AB1F0
:1033E000284AB2FBF0F000FB03F004E0264800FBA3
:1033F00003F000E00020224B5B6813F4800F3AD109
:103400004000224BA3FB0030400834E01C4B1B6AF9
:1034100040F202321A40B2F5817F22D003F44073A9
:10342000B3F5007F04D1164A526A12F0020F1BD185
:10343000B3F5407F1BD1124B1B6813F4003F18D12A
:10344000002018E0FFF706FF0D4B5B68C3F38133E4
:1034500001335B00B0FBF3F00DE000200BE0002037
:1034600009E04FF4004006E049F6404003E0002048
:1034700001E04FF2244006B070BD00BFF8820008A2
:103480000010024000127A0000093D00ABAAAAAA6F
:1034900030B4026891698DB2D369906984B2A54253
:1034A00004D0D3699BB243EA004002E09BB243EAF6
:1034B000014030BC704700BF0368186A5B6A9BB26A
:1034C00043EA0040704700BF030903EB83035A003F
:1034D00000F00F001044C0B2704700BF10B400F5F8
:1034E000FA64022920D801EB4103C1EBC3011F4B51
:1034F000A3FB013102EB5102224400F2CF7002EB38
:1035000090021B4BA3FB0013A2EB531202EBD3134D
:1035100004331848A3FB0001581A01EB500080083F
:10352000C0EBC000181A1DE001EB4103C1EBC30161
:103530000E4BA3FB011302EB5302A31803EB9402FF
:103540000B4BA3FB0434A2EB541303EBD413023351
:103550000848A3FB0001581A01EB50008008C0EB9B
:10356000C000181AC0B210BC704700BF398EE338D3
:103570001F85EB512549922438B50446FDF75CFCC4
:10358000054605E0FDF758FC401BB0F57A7F0AD8E8
:1035900023685A6812F0200FF4D05A6842F01002E3
:1035A0005A60002038BD032038BD00BF38B504463E
:1035B0000268536823F010035360FDF73DFC054695
:1035C00005E0FDF739FC401BB0F57A7F06D823688B
:1035D0005B6813F0200FF4D0002038BD032038BD05
:1035E00038B505460C46FFF7C7FF50B92B68220CCB
:1035F0009A612B68A4B2DC612846FFF7D7FF10B9A7
:1036000038BD012038BD012038BD00BF38B50546A2
:103610000C46FFF7B1FF50B92B68220C1A622B68D9
:10362000A4B25C622846FFF7C1FF10B938BD012083
:1036300038BD012038BD00BF70B5002855D0044604
:10364000002954D0037C012B53D00E460123037470
:10365000022343745AB90A784B78C3EB03139900D9
:103660004FF4616505FB0215B3781D4411E008783D
:10367000FFF72AFF4FF4616505FB00F57078FFF74F
:1036800023FFC0EB001083001D44B078FFF71CFF40
:10369000054429462046FFF7A3FF064628B1042328
:1036A000637400232374012624E02268536823F006
:1036B000050353602046FFF7FFFEB0F1FF3F0FD038
:1036C00085420DD900F5A83101F5C0712046FFF7FC
:1036D0009DFF28B10423637400232374012609E0AD
:1036E000012363740023237404E0012602E0012611
:1036F00000E00226304670BD00285CD038B5044694
:1037000000295AD0037C012B59D00D4601230374A4
:103710000223437432B9CB78C3734B7843738B78ED
:1037200083730BE0C878FFF7CFFEE0736878FFF78C
:10373000CBFE6073A878FFF7C7FEA073A27B617B06
:10374000E07BFFF7CBFE207328702046FFF7A0FE3A
:103750001C4BA3FB0023B3F5484F27D31A4DA5FB01
:1037600000352B0C194D05FB130529462046FFF7A4
:1037700037FF28B10423637400232374012038BD6C
:103780002046FFF799FEB0F1FF3F0FD085420DD9DB
:1037900000F5A83101F5C0712046FFF737FF28B1C9
:1037A0000423637400232374012038BD0123637450
:1037B0000020207438BD01207047012038BD022050
:1037C00038BD00BFC5B3A29107452EC2805101008C
:1037D000B8B138B504460268536823F00803536053
:1037E000FDF72AFB054605E0FDF726FB401BB0F57B
:1037F0007A7F08D823685B6813F0080FF4D00020A4
:1038000038BD01207047032038BD00BF002859D0C3
:1038100010B50446437C13F0FF0F03D1002303745B
:1038200002F050FC022363742046FFF7D1FF18B169
:1038300004236374012348E02046FFF79DFE18B17E
:1038400004236374012340E02268536823F00703D4
:103850005360A36823B11E4A136B23F00103136363
:103860001B49CB6A23F46072A3681343CB62606880
:10387000B0F1FF3F08D10120FFF786FD18B90423FE
:103880006374012321E001382268936823F00F0359
:1038900043EA104393602268D3681B0C1B0480B278
:1038A0001843D0602046FFF781FE034618B1042379
:1038B0006374012309E00022E27301226273A273A0
:1038C000627402E0012318467047184610BD00BF1D
:1038D000006C0040704700BF704700BF03681A6863
:1038E00012F0010F1BD05A6812F0010F17D010B55B
:1038F00004465B6813F0040F08D0FFF7EDFF236860
:103900006FF004025A600423637403E0FFF7E2FFE0
:103910000123637423686FF001025A6010BD704781
:10392000F8B505460F4616461C4636E0B4F1FF3F93
:1039300033D02CB1FDF780FA069BC01A84422CD8F4
:103940002A68536823F0E00353606B68B3F5827F05
:103950000BD1AB68B3F5004F02D0B3F5806F04D143
:103960002A68136823F040031360AB6AB3F5005F65
:103970000BD12A68136823F400531B041B0C13603B
:103980002A68136843F400531360012385F851300B
:10399000002385F850300320F8BD2B689B6837EA78
:1039A000030301D1012300E00023B342BED1002074
:1039B000F8BD00BF10B582B0044600920B4600224D
:1039C0008021FFF7ADFF034620B1636D43F0200374
:1039D00063650323184602B010BD00BF2DE9F04116
:1039E00084B01D4690F85030012B00F0CB80044687
:1039F0000E469046012380F85030FDF71DFA074629
:103A000094F85130DBB2012B40F0A480002E00F07E
:103A1000A380B8F1000F00F0A180032384F8513097
:103A2000002363652663A4F83480A4F83680A3637A
:103A3000A387E38763642364A368B3F5004F04D1CD
:103A40002268136843F48043136023681A6812F0F5
:103A5000400F03D11A6842F040021A60E368B3F5E0
:103A6000006F2CD163681BB1E38E9BB2012B21D177
:103A7000236836F8022BDA60E38E9BB2013B9BB2DF
:103A8000E38617E023689A6812F0020F08D036F830
:103A9000022BDA60E38E9BB2013B9BB2E38609E026
:103AA000002D5DD0B5F1FF3F04D0FDF7C5F9C01B77
:103AB000854257D9E38E9BB2002BE3D12BE063689C
:103AC0001BB1E38E9BB2012B21D1236816F8012B89
:103AD0001A73E38E9BB2013B9BB2E38617E0236827
:103AE0009A6812F0020F08D016F8012B1A73E38EB1
:103AF0009BB2013B9BB2E38609E0002D34D0B5F1C7
:103B0000FF3F04D0FDF798F9C01B85422ED9E38E04
:103B10009BB2002BE3D100972B46012202212046C5
:103B2000FFF7FEFE20BB3A4629462046FFF742FF3C
:103B300018B12023636501201DE0A36833B9039306
:103B40002368DA6803929B680393039B636D8BB9C8
:103B5000002010E002200EE001200CE001200AE02D
:103B6000032008E0032006E0032004E0032002E035
:103B7000032000E00120012384F85130002384F861
:103B8000503000E0022004B0BDE8F081704700BF73
:103B900010B584B0044602685168936803F0410090
:103BA000012806D111F0400F03D0236C204698471E
:103BB0005FE013F0020F06D011F0800F03D0636CAA
:103BC0002046984755E013F0600F52D011F0200FB7
:103BD0004FD013F0400F18D094F85100C0B2032812
:103BE0000BD0606D40F00400606500200190D0684B
:103BF000019090680190019807E000230293D36838
:103C0000029393680293029B33E013F0200F0CD0D1
:103C1000636D43F00103636500230393936803938B
:103C2000136823F040031360039B636D0BB322689A
:103C3000536823F0E0035360012384F8513011F0FE
:103C4000030F13D02268536823F003035360E36C1F
:103C500023B1094A5A63E06CFDF7C6FAA36C43B17D
:103C6000054A5A63A06CFDF7BFFA02E02046FFF751
:103C70008DFF04B010BD00BF7D3C000808B5406A50
:103C80000023C387C386FFF781FF08BD90F851006A
:103C9000704700BF00283CD010B504460023836263
:103CA00090F8513013F0FF0F01D102F031FA0223E6
:103CB00084F851302268136823F0400313602168B0
:103CC0006268A3681A43E3681A4323691A43636965
:103CD0001A43A36903F400731343E2691343226A8E
:103CE0001343A26A1A430A602168638B03F004023B
:103CF000636A13434B602368E26A1A612268D369DE
:103D000023F40063D36100206065012384F85130FF
:103D100010BD0120704700BF10B4036A046A24F08C
:103D200001040462846924F0F00444EA021223F0DE
:103D30000A0319438261016210BC704710B4036A20
:103D400023F0100303628469036A24F4704444EA94
:103D5000023223F0A00343EA01118261016210BC28
:103D6000704700BF836823F0700341F007010B43E5
:103D70008360704710B4846824F47F4442EA0323CC
:103D8000194344EA0103836010BC7047022380F8A2
:103D90003D300268136843F001031360012380F88B
:103DA0003D300020704700BF022380F83D3003689B
:103DB000196A41F21112114208D1196A40F24442C3
:103DC000114203D11A6822F001021A60012380F81F
:103DD0003D300020704700BF90F83C30012B00F0D0
:103DE000838010B50446012380F83C30022380F81C
:103DF0003D300268936823F47F4323F07703936098
:103E00000B68402B4CD00AD8102B58D002D8002B6E
:103E100050D062E0202B57D0302B5AD05DE0702B71
:103E200012D004D8502B27D0602B2FD055E0B3F5FB
:103E3000805F03D0B3F5005F12D04EE00268936854
:103E400023F00703936048E0CB684A6889680068FC
:103E5000FFF790FF2268936843F0770393603CE09C
:103E6000CB684A6889680068FFF784FF2268936816
:103E700043F48043936030E0CA6849680068FFF704
:103E80004BFF50212068FFF76DFF26E0CA684968A4
:103E90000068FFF753FF60212068FFF763FF1CE015
:103EA000CA6849680068FFF737FF40212068FFF7BC
:103EB00059FF12E000210068FFF754FF0DE01021C8
:103EC0000068FFF74FFF08E020210068FFF74AFF76
:103ED00003E030210068FFF745FF012384F83D30FF
:103EE000002084F83C0010BD0220704703681A4A85
:103EF00090420AD0B0F1804F07D0A2F594329042A0
:103F000003D002F58062904203D123F070034A6827
:103F10001343114A90420AD0B0F1804F07D0A2F566
:103F20009432904203D002F58062904203D123F490
:103F30004073CA68134323F080034A691343036044
:103F40008B68C3620B688362034B984201D10B6993
:103F50000363012343617047002C0140B8B110B5E1
:103F6000044690F83D3013F0FF0F04D1002380F891
:103F70003C3002F011F9022384F83D30211D206805
:103F8000FFF7B4FF012384F83D30002010BD01206D
:103F9000704700BF90F83C30012B21D030B4012293
:103FA00080F83C20022380F83D300468636823F0E9
:103FB00070036360046865680B682B436360046882
:103FC000A36823F08003A3600468A5684B682B43B3
:103FD000A36080F83D20002380F83C30184601E0C3
:103FE0000220704730BC70470268D36823F4907396
:103FF000D3600268536923F001035361202380F8E2
:104000003A30704790F83930DBB2212B2BD18368DE
:10401000B3F5805F0FD1036A02681B88C3F30803FE
:10402000536003691BB9036A0233036209E0036A40
:104030000133036205E00268036A591C01621B78C0
:104040005360C38C9BB2013B9BB2C3846BB90268C3
:10405000D36823F08003D3600268D36843F0400341
:10406000D36000207047022070470020704700BFD7
:104070002DE9F843814601680B6923F44052C36877
:1040800013430B618168036919434369194300684D
:10409000C26822F4B05323F00C030B43C360D9F879
:1040A00000104B6923F44072D9F8183013434B6168
:1040B000D9F800505B4B9D4259D1FFF7CBF800EB8C
:1040C000800000EB8000D9F80440A400B0FBF4F4B9
:1040D000554EA6FB043464092401FFF7BBF800EB3E
:1040E000800000EB8000D9F804309B00B0FBF3F7B0
:1040F000FFF7B0F800EB800000EB8000D9F8043047
:104100009B00B0FBF3F3A6FB03235B094FF06408AD
:1041100008FB13731B013233A6FB03235B0903F077
:10412000F0031C44FFF796F800EB800000EB8000E2
:10413000D9F804309B00B0FBF3F7FFF78BF800EBE6
:10414000800000EB8000D9F804309B00B0FBF3F353
:10415000A6FB03235B0908FB13731B013233A6FB89
:104160000323C3F343131C44AC60BDE8F883FFF79B
:1041700061F800EB800000EB8000D9F80440A40057
:10418000B0FBF4F4284EA6FB043464092401FFF7C5
:1041900051F800EB800000EB8000D9F804309B0060
:1041A000B0FBF3F7FFF746F800EB800000EB800070
:1041B000D9F804309B00B0FBF3F3A6FB03235B09A3
:1041C0004FF0640808FB13731B013233A6FB032373
:1041D0005B0903F0F0031C44FFF72CF800EB8000B0
:1041E00000EB8000D9F804309B00B0FBF3F7FFF739
:1041F00021F800EB800000EB8000D9F804309B0030
:10420000B0FBF3F3A6FB03235B0908FB13731B014D
:104210003233A6FB0323C3F343131C44AC60BDE855
:10422000F88300BF003801401F85EB512DE9F041B4
:1042300005460F4616469846069C1EE0B4F1FF3F21
:104240001BD02CB1FCF7F8FDC8EB0000844214D25F
:104250002A68D36823F4D073D3602A68536923F0A3
:1042600001035361202385F8393085F83A30002363
:1042700085F838300320BDE8F0812B681B6837EAE9
:1042800003030CBF01230023B342D7D00020BDE8B5
:10429000F08100BF68B310B5044690F8393013F0D0
:1042A000FF0F04D1002380F8383001F089FF242368
:1042B00084F839302268D36823F40053D360204651
:1042C000FFF7D6FE2268136923F490431361226836
:1042D000536923F02A0353612268D36843F40053DF
:1042E000D3600020E063202384F8393084F83A302A
:1042F00010BD0120704700BF2DE9F04182B01E467D
:1043000090F83930DBB2202B56D104460D4690464A
:10431000002953D0002A53D090F83830012B51D0C7
:10432000012380F838300023C363212380F839301B
:10433000FCF782FD0746A4F82480A4F8268027E035
:10434000E38C9BB2013B9BB2E384A368B3F5805F2F
:1043500012D100963B46002280212046FFF766FFDF
:1043600090BB22682B88C3F30803536023690BB901
:1043700002350DE001350BE000963B46002280211E
:104380002046FFF753FF08BB23682A785A6001359F
:10439000E38C9BB2002BD3D100963B4600224021F8
:1043A0002046FFF743FF034690B9202284F83920C6
:1043B000002284F838200CE002230AE0012308E000
:1043C000012306E0022304E0032302E0032300E0CC
:1043D0000323184602B0BDE8F08100BF704700BF5C
:1043E00008B50168CB6823F04003CB60202380F838
:1043F0003930FFF7F3FF002008BD00BF704700BF52
:1044000008B590F83A30DBB2222B44D18368B3F57B
:10441000805F13D1826A036943B903685B68C3F3A1
:1044200008031380836A0233836218E003685B68C1
:10443000DBB21380836A0133836210E0036933B90E
:10444000836A5A1C8262026852681A7007E0826AA4
:10445000531C836203685B6803F07F031370C38D92
:104460009BB2013B9BB2C385BBB90268D36823F002
:104470002003D3600268D36823F48073D36002689A
:10448000536923F001035361202380F83A30FFF78A
:10449000B5FF002008BD022008BD002008BD00BFF8
:1044A000704700BF10B5044602681368D1685269AE
:1044B00013F00F0009D113F0200F06D011F0200FD8
:1044C00003D02046FFF79CFF10BD002862D012F0F9
:1044D000010202D111F4907F5CD013F0010F06D0DD
:1044E00011F4807F03D0E06B40F00100E06313F033
:1044F000040F04D01AB1E06B40F00200E06313F047
:10450000020F04D01AB1E06B40F00400E06313F036
:10451000080F04D01AB1E26B42F00802E263E26BCA
:10452000002A4AD013F0200F05D011F0200F02D03E
:104530002046FFF765FF23685B6903F04003E26BE9
:1045400012F0080F00D1FBB12046FFF74DFD2368A4
:104550005A6912F0400F13D05A6922F040025A6192
:10456000636B4BB1154A5A63606BFCF73DFE20B399
:10457000606B436B984710BD2046FFF791FF10BD5D
:104580002046FFF78DFF10BD2046FFF789FF00236F
:10459000E36310BD13F0800F06D011F0800F03D03D
:1045A0002046FFF72FFD10BD13F0400F05D011F08E
:1045B000400F02D02046FFF713FF10BDC145000891
:1045C00008B5406A0023C385C384FFF769FF08BDAF
:1045D00084B001A880E80E00002004B0704700BF3E
:1045E000B0F840309BB243F43F43A0F84030002085
:1045F000704700BFB0F8403023F474535B045B0C89
:10460000A0F84030002070470020704784B038B5D3
:1046100005AC84E80E000123A0F840300024A0F887
:104620004040A0F84440A0F85040FFF7D9FF204692
:10463000BDE8384004B0704710B4CB78032B35D8B0
:10464000DFE803F002280F1B0A7830F822309BB213
:1046500023F4EC4323F0700343F4007320F822307A
:1046600024E00A7830F822309BB223F4EC4323F0A4
:1046700070039BB220F8223018E00A7830F822301C
:104680009BB223F4EC4323F0700343F4C06320F89F
:1046900022300BE00A7830F822309BB223F4EC434E
:1046A00023F0700343F4806320F822300A7830F856
:1046B000223023F0F0031B051B0D134343F400438A
:1046C00043F0800320F822308B7A002B40F08B805F
:1046D0004B7883B3B0F850309BB20A7803EBC20337
:1046E00000EB43038A8852085200C3F800240A787A
:1046F00030F8223003F040039BB25BB130F8223037
:1047000023F0F0031B051B0D43F4004343F0C003EB
:1047100020F822300A7830F822309BB223F4E043AC
:1047200023F0400383F0200343F4004343F080036D
:1047300020F822301BE1B0F850309BB20A7803EB2E
:10474000C203043300EB43038A8852085200C3F8C3
:104750000024B0F850309BB20A7803EBC203063352
:1047600000EB43030C693E2C0ED9C4F34F1214F036
:104770001F0F01D1013A92B26FEAC2626FEA524250
:1047800092B2C3F800240AE0C4F34F0214F0010F00
:1047900001D0013292B2920292B2C3F800240A7898
:1047A00030F8223003F480439BB25BB130F8223002
:1047B00023F0F0031B051B0D43F4404343F080033B
:1047C00020F822300A7830F822309BB223F480435C
:1047D00023F0700383F4405343F4004343F0800319
:1047E00020F82230C3E00A7830F8223023F4F8733E
:1047F0001B051B0D43F4014343F0800320F82230D6
:10480000B0F850309BB20A7803EBC20300EB4303CD
:10481000CA8852085200C3F80024B0F850309BB246
:104820000A7803EBC203043300EB43030A895208FE
:104830005200C3F800244B78002B4DD10A7830F891
:10484000223003F480439BB25BB130F8223023F076
:10485000F0031B051B0D43F4404343F0800320F895
:1048600022300A7830F8223003F040039BB25BB16B
:1048700030F8223023F0F0031B051B0D43F40043F6
:1048800043F0C00320F822300A7830F8223023F0B9
:10489000F0031B051B0D43F4004343F0C00320F855
:1048A00022300C7830F824309BB223F4804323F07C
:1048B000700383F4405348F28002134320F82430FD
:1048C000097830F821309BB223F4E04323F0400311
:1048D000134320F821304AE00A7830F8223003F4FC
:1048E00080439BB25BB130F8223023F0F0031B050C
:1048F0001B0D43F4404343F0800320F822300A7834
:1049000030F8223003F040039BB25BB130F8223024
:1049100023F0F0031B051B0D43F4004343F0C003D9
:1049200020F822300A7830F8223023F0F0031B05FB
:104930001B0D43F4404343F0800320F822300C78F1
:1049400030F824309BB223F4E04323F0400348F2D4
:104950008002134320F82430097830F821309BB2CC
:1049600023F4804323F07003134320F82130002008
:1049700010BC70478B7A002B46D14B7813B30A7862
:1049800030F8223003F040039BB25BB130F82230A4
:1049900023F0F0031B051B0D43F4004343F0C00359
:1049A00020F822300A7830F822309BB223F4E0431A
:1049B00023F0400343F4004343F0800320F8223007
:1049C000002070470A7830F8223003F480439BB20D
:1049D0005BB130F8223023F0F0031B051B0D43F4CC
:1049E000404343F0800320F822300A7830F8223028
:1049F0009BB223F4804323F0700343F4004343F05D
:104A0000800320F82230DBE710B44B78002B4BD129
:104A10000A7830F8223003F480439BB25BB130F85F
:104A2000223023F0F0031B051B0D43F4404343F0F9
:104A3000800320F822300A7830F8223003F0400357
:104A40009BB25BB130F8223023F0F0031B051B0D45
:104A500043F4004343F0C00320F822300A7830F8D2
:104A6000223023F0F0031B051B0D43F4004343F0F9
:104A7000C00320F822300C7830F824309BB223F4A5
:104A8000804323F0700348F28002134320F824305F
:104A9000097830F821309BB223F4E04323F040033F
:104AA000134320F821304AE00A7830F8223003F42A
:104AB00080439BB25BB130F8223023F0F0031B053A
:104AC0001B0D43F4404343F0800320F822300A7862
:104AD00030F8223003F040039BB25BB130F8223053
:104AE00023F0F0031B051B0D43F4004343F0C00308
:104AF00020F822300A7830F8223023F0F0031B052A
:104B00001B0D43F4404343F0800320F822300C781F
:104B100030F824309BB223F4E04323F0400348F202
:104B20008002134320F82430097830F821309BB2FA
:104B300023F4804323F07003134320F82130002036
:104B400010BC70470A788AB930F822309BB223F43F
:104B5000804323F0400383F4805383F0100343F435
:104B6000004343F0800320F8223020E04B787BB1F3
:104B700030F822309BB223F4E04323F0400383F06B
:104B8000100343F4004343F0800320F822300EE08A
:104B900030F822309BB223F4804323F0700383F477
:104BA000805343F4004343F0800320F82230002078
:104BB000704700BF4B781BB30A7830F8223003F0FF
:104BC00040039BB25BB130F8223023F0F0031B05A9
:104BD0001B0D43F4004343F0C00320F822300A7851
:104BE00030F822309BB223F4E04323F0400383F0FB
:104BF000300343F4004343F0800320F8223022E0E6
:104C00000A7830F8223003F480439BB25BB130F86D
:104C1000223023F0F0031B051B0D43F4404343F007
:104C2000800320F822300A7830F822309BB223F437
:104C3000804323F0700383F4405343F4004343F074
:104C4000800320F822300020704700BF11B9802374
:104C5000A0F84C30002070470020704700207047BB
:104C6000B0F8440080B270470020704710B40133A0
:104C70005B1000EB420202F5806207E00C78487896
:104C800044EA002422F8044B0231013B002BF5D109
:104C900010BC704770B54A78012A40F0C2808E6916
:104CA0000B699E4203D9F61A8E611E4601E000236D
:104CB0008B610D4604468B7A83B9B3B28A88496901
:104CC000FFF7D4FFB4F850309BB22A7803EBC2034D
:104CD000023304EB4303C3F8006491E0097830F831
:104CE000213003F040039BB29BB322BBB0F850309D
:104CF0009BB203EBC101063100EB41013E2E0ED900
:104D0000C6F34F1316F01F0F01D1013B9BB26FEAA0
:104D1000C3636FEA53439BB2C1F8003417E0C6F394
:104D20004F0316F0010F01D001339BB29B029BB2DF
:104D3000C1F800340BE0012A09D1B0F850309BB221
:104D400003EBC103023300EB4303C3F800642A8979
:104D500032E022BBB0F850309BB203EBC10102310C
:104D600000EB41013E2E0ED9C6F34F1316F01F0F74
:104D700001D1013B9BB26FEAC3636FEA53439BB21D
:104D8000C1F8003417E0C6F34F0316F0010F01D04D
:104D900001339BB29B029BB2C1F800340BE0012AA5
:104DA00009D1B0F850309BB203EBC103023300EBE2
:104DB0004303C3F80064EA88B3B269692046FFF789
:104DC00055FF6B786BB92A7834F8223023F0F00362
:104DD0001B051B0D43F4004343F0C00324F82230AD
:104DE0000EE0012B0CD12A7834F8223023F0F003A6
:104DF0001B051B0D43F4404343F0800324F822308D
:104E00002A7834F822309BB223F4E04323F04003A5
:104E100083F0300343F4004343F0800324F822304E
:104E2000AAE08B690C69A34203D91B1B8B61234643
:104E300001E000248C618C7A2CBBB0F8502092B237
:104E40000C7802EBC402063200EB42023E2B0ED974
:104E5000C3F34F1413F01F0F01D1013CA4B26FEA4A
:104E6000C4646FEA5444A4B2C2F8004474E0C3F3CB
:104E70004F0413F0010F01D00134A4B2A402A4B274
:104E8000C2F8004468E02ABBB0F8502092B20C7817
:104E900002EBC402023200EB42023E2B0ED9C3F3F6
:104EA0004F1413F01F0F01D1013CA4B26FEAC46488
:104EB0006FEA5444A4B2C2F8004418E0C3F34F04AC
:104EC00013F0010F01D00134A4B2A402A4B2C2F8BD
:104ED00000440CE0012A0AD1B0F8502092B20C78BC
:104EE00002EBC402023200EB4202C2F800344A78FC
:104EF0002ABBB0F8502092B20C7802EBC402063202
:104F000000EB42023E2B0ED9C3F34F1413F01F0FD8
:104F100001D1013CA4B26FEAC4646FEA5444A4B264
:104F2000C2F8004418E0C3F34F0413F0010F01D09E
:104F30000134A4B2A402A4B2C2F800440CE0012AD5
:104F40000AD1B0F8502092B20C7802EBC4020232BF
:104F500000EB4202C2F800340A7830F822309BB2EB
:104F600023F4804323F0700383F4405343F400435D
:104F700043F0800320F82230002070BD01335B1025
:104F800000EB420202F5806204E0106821F8020B97
:104F9000013B0432002BF8D1704700BFD0F8183223
:104FA0001BB10020C3F8140270470220704710B5EF
:104FB000D0F81842D0F81C325BB194F80002FF28F8
:104FC00007D09B6894F8012221469847FF2384F874
:104FD0000032002010BD00004323038000487047CA
:104FE0000800002043230380004870474C00002045
:104FF0004323038000487047900000200A23038069
:1050000000487047D400002038B50446D0F8185244
:1050100001F020FBC5F80C02D4F818324BB1D4F8DB
:105020001C32DB6805F50371D5F8040298470020AF
:1050300038BD0220FCE7000070B505460C46D0F8EC
:1050400018620B7813F0600225D0202A07D1CA8895
:105050003AB9D0F81C329B68002248789847002063
:1050600070BD13F0800F0BD0D0F81C329B68314616
:1050700060789847E2883146284600F071FCEEE7F8
:105080004B7886F80032CB8886F80132CA883146E0
:1050900000F07BFCE3E74B780A2BE0D101220249C8
:1050A00000F05EFCDBE700BF3C02002010B50446C8
:1050B000812101F068FA0121204601F064FA822181
:1050C000204601F060FAD4F8183253B1D4F81C32FB
:1050D0005B689847D4F8180201F0C6FA0023C4F8B8
:1050E0001832002010BD38B50446037C73BB4FF462
:1050F00000730222812101F035FA4FF4007302227D
:105100000121204601F02EFA0823032282212046A5
:1051100001F028FA4FF4077001F0A2FA0546C4F82E
:10512000180248B3D4F81C321B6898470023C5F80E
:105130001432C5F81832237CA3B14023D5F80422D9
:105140000121204601F078FA002038BD40230222D8
:10515000812101F007FA402302220121204601F0BB
:1051600001FAD1E74FF40073D5F80422012120465B
:1051700001F062FA0020E8E70120E6E719B1C0F883
:105180001C120020704702207047D0F81832C3F874
:105190000812C3F8102200207047D0F81832C3F864
:1051A000041200207047D0F818228AB108B5D2F84E
:1051B00014320BB1012008BD0123C2F81432B2F839
:1051C0001032D2F80822812101F028FA0020F2E7FB
:1051D00002207047D0F818229AB108B5037C3BB181
:1051E0004023D2F80422012101F026FA002008BD54
:1051F0004FF40073D2F80422012101F01DFA0020BF
:10520000F5E70220704798B108B50346D0F81402BC
:1052100010B10020C3F8140209B1C3F810121846E7
:10522000012380F8FC31027001F04AF9002008BD2A
:105230000220704719B1C0F81412002070470220F4
:10524000704708B501F080F9002008BD08B5D0F816
:10525000143233B11B68984708B9002008BD0220FA
:10526000FCE70220FAE708B5D0F814325B689847EB
:10527000002008BD38B5044600F50275284600F048
:105280000CF90123C4F8F431B4F80E32C4F8F83143
:1052900094F8081201F01F03012B0ED03BB1022B32
:1052A00010D001F08001204601F07BF903E029468F
:1052B000204600F06CFA002038BD2946204600F058
:1052C0008AFAF8E72946204600F0A1FAF3E710B57C
:1052D000044621BB1346D0F8F421032A01D0002054
:1052E00010BDD0F80C11D0F8102191420CD8D0F894
:1052F00014321B6923B190F8FC21032A00D198478E
:10530000204600F059FBEAE7891AC0F80C118A42DE
:1053100028BF0A4692B2194600F046FBDFE70A466C
:10532000D0F814329B69002BD9D090F8FC110329D6
:10533000D5D111469847D2E710B50446002946D189
:105340001346D0F8F421022A05D094F80032012B3C
:1053500039D0002010BDC169026A914219D8816913
:10536000B1FBF2F302FB13132BB98A4203D8D0F836
:10537000F83199421AD3D4F81432DB682BB194F87F
:10538000FC21032A01D120469847204600F01FFB4C
:10539000DBE78A1AC26192B2194600F0EEFA0023E6
:1053A0001A461946204601F047F9CEE70022114679
:1053B00000F0E3FA0021C4F8F8110B460A46204633
:1053C00001F03AF9C1E7002384F80032C1E70A4648
:1053D000D0F814325B69002BBBD090F8FC11032984
:1053E000B7D111469847B4E738B5044640230022A8
:1053F000114601F0B7F84025C4F810512B460022A1
:105400008021204601F0AEF82562012384F8FC31AA
:10541000D4F818322BB1D4F814325B6821792046C5
:105420009847002038BD01740020704790F8FC3187
:1054300080F8FD31042380F8FC310020704790F89B
:10544000FD3180F8FC310020704708B590F8FC3140
:10545000032B01D0002008BDD0F81432DB69002BEB
:10546000F8D09847F6E7002302E00133DBB20130C1
:105470000278002AF9D1184670474B88012B0BD1CE
:1054800010B50446C0F80432D0F814329B6898472F
:10549000204600F091FA10BD70470B7803704B78EE
:1054A00043708B78CA7803EB022343800B794A79E7
:1054B00003EB022383808B79CA7903EB0223C38039
:1054C000704710B50446802101F06BF8002120469A
:1054D00001F067F810BD30B583B004460D464A8828
:1054E000130A013B062B00F28180DFE803F004136E
:1054F000277F7F637000D0F810321B680DF1060122
:10550000007C9847BDF8062012B1EB88002B71D1C2
:1055100003B030BD037C43B9D0F814329B6A0DF15F
:105520000600984702234370ECE7D0F81432DB6A98
:105530000DF10600984702234370E3E7D2B2052A33
:1055400034D8DFE802F0030B131B232BD0F8103202
:105550005B680DF10601007C9847D3E7D0F8103264
:105560009B680DF10601007C9847CBE7D0F810321C
:10557000DB680DF10601007C9847C3E7D0F81032D4
:105580001B690DF10601007C9847BBE7D0F810328B
:105590005B690DF10601007C9847B3E7D0F8103243
:1055A0009B690DF10601007C9847ABE72946FFF7A0
:1055B00088FFADE7037C33B9D0F814325B6B0DF193
:1055C000060098479EE72946FFF77BFFA0E7037C8C
:1055D00043B9D0F814321B6B0DF10600984707232E
:1055E00043708FE72946FFF76CFF91E72946FFF7E5
:1055F00068FF8DE79A4228BF1A46ADF8062001469B
:10560000204600F0ADF983E738B504468B88E3B94E
:10561000CB88D3B98D7805F07F0590F8FC31032B4A
:105620000CD080F8FE51294600F0EAFF204600F039
:10563000C3F935B1022384F8FC3109E0FFF741FFDB
:1056400006E0012384F8FC3102E02046FFF739FF31
:1056500038BD000038B504460D468978254B1970D1
:10566000012909D890F8FC31022B09D0032B1CD05A
:105670002946FFF726FF02E02946FFF722FF38BD43
:1056800081B14160032380F8FC31FFF7DFFD022880
:1056900003D0204600F090F9F1E729462046FFF7B5
:1056A00010FFECE700F088F9E9E789B14368994217
:1056B0001DD0D9B2FFF7D7FD0E4B19786160204697
:1056C000FFF7C4FD02280DD0204600F075F9D6E79B
:1056D000022380F8FC314160FFF7C5FD204600F051
:1056E0006BF9CCE729462046FFF7EBFEC7E700F051
:1056F00063F9C4E73D02002008B5CB88012B08D12F
:1057000090F8FC31022B07D0032B0DD0FFF7D9FE08
:1057100001E0FFF7D6FE08BD0146002341F8083F2F
:10572000012200F01DF9F6E70122011D00F018F931
:10573000F1E708B590F8FC31023B012B0CD80123AE
:10574000C360D0F804320BB10323C360022200F11E
:105750000C0100F005F908BDFFF7B3FEFBE710B53B
:10576000044690F8FC31023B012B0DD84B88012BED
:1057700009D10023C0F80432D0F814329B6898474E
:10578000204600F019F910BDFFF79BFEFBE708B5B6
:105790004B78092B1CD8DFE803F012181B151B09E6
:1057A000051B0F0CFFF797FE002008BDFFF72CFF2D
:1057B000FAE7FFF74FFFF7E7FFF79EFFF4E7FFF782
:1057C000B8FFF1E7FFF759FEEEE7FFF7C8FFEBE799
:1057D000FFF777FEE8E738B504460D4690F8FC3150
:1057E000032B11D10B79012B0BD8D0F814329B6805
:1057F0009847EB880BB1002038BD204600F0DCF85C
:10580000F9E7FFF75EFEF6E7FFF75BFEF3E738B573
:1058100005460C468A880B7803F06003202B05D1DF
:10582000D0F814329B689847002038BDD1B2637815
:10583000012B25D0002B47D0032BF5D190F8FC315C
:10584000022B05D0032B0AD02146FFF73AFEEBE7E7
:105850000029E9D08029E7D000F0A3FEE4E76388BF
:1058600023B919B1802901D000F09BFED5F814327C
:105870009B68214628469847284600F09DF8D3E7C4
:1058800090F8FC31022B05D0032B0AD02146FFF7FC
:1058900018FEC9E70029C7D08029C5D000F081FED5
:1058A000C2E76388002BBFD111F07F0F03D12846D8
:1058B00000F082F8B8E700F082FED5F814329B6859
:1058C000214628469847F2E790F8FC31022B05D094
:1058D000032B09D02146FFF7F4FDA5E711F07F0F58
:1058E000A2D000F05EFE9FE712F0800F11D101F010
:1058F0007F04103400EB04140434284600F06DFEDD
:1059000070B10123236002222146284600F028F8C6
:105910008AE701F07F04013400EB04140434ECE75F
:1059200000232360EFE7D0B170B50D46164604465C
:10593000FFF799FD0130400080B2308028700323CA
:105940006B70022307E001345A1CD2B2E9540233CF
:10595000DBB20021A95421780029F4D170BD704731
:1059600010B513460222C0F8F4218361C3610A46D0
:10597000002100F053FE002010BD08B513460A4672
:10598000002100F04BFE002008BD10B51346032295
:10599000C0F8F421C0F80831C0F80C310A460021E3
:1059A00000F04AFE002010BD08B513460A4600214B
:1059B00000F042FE002008BD08B50423C0F8F43111
:1059C00000231A46194600F029FE002008BD08B53C
:1059D0000523C0F8F43100231A46194600F02CFEC6
:1059E000002008BD70B594B000240C940D940F9461
:1059F00005940694079408940994019402940394DE
:105A0000049409230A934FF480330B9301250E95D8
:105A100010950226119612934FF4801313930AA83F
:105A2000FDF7F6F80F230593069607944FF480636D
:105A300008930994294605A8FDF722FB1323019337
:105A40004FF4007302934FF4004303934FF4800329
:105A5000049301A8FDF70EFC14B070BD70B584B0BE
:105A600000250195029503950C4C0D4B2360A56014
:105A7000E56065614FF46023E3616560012626619E
:105A80002046FBF7B7FA0C2301930296039501A970
:105A90002046FBF7EBF904B070BD00BF0C060020F8
:105AA0000024014008B50948094B0360094B4360D5
:105AB00000238360C3604FF48042026143618361CD
:105AC000C3610362FBF73AFE08BD00BFB8050020C2
:105AD00000540040A086010030B583B00024ADF82A
