:020000040800F2
:1000000000500020695F00080D4D00080F4D0008EA
:10001000114D0008134D0008154D000800000000A8
:10002000000000000000000000000000174D000864
:10003000194D0008000000001B4D00081D4D000870
:10004000B15F0008B15F0008B15F0008254D0008EE
:10005000B15F0008B15F0008354D0008B15F0008CE
:10006000B15F0008B15F0008B15F0008B15F000830
:10007000B15F0008B15F0008B15F0008B15F000820
:10008000B15F0008B15F0008B15F0008B15F000810
:10009000414D0008B15F0008B15F0008B15F000882
:1000A000B15F0008B15F0008B15F0008B15F0008F0
:1000B000B15F0008B15F0008B15F0008514D000852
:1000C000614D0008B15F0008B15F0008B15F000832
:1000D000714D0008B15F0008B15F0008814D000854
:1000E000B15F0008B15F0008B15F000800000000C8
:1000F0000000000000000000000000000000000000
:0C01000000000000000000005FF808F1A3
:10010C0010B5054C237833B9044B13B10448AFF345
:10011C0000800123237010BD180200200000000095
:10012C00D069000808B5034B1BB103490348AFF372
:10013C00008008BD000000001C020020D0690008EF
:10014C0010B504460E4B18784FF47A73B3FBF0F3EA
:10015C000C4A1068B0FBF3F000F0F6F968B90F2CFC
:10016C0001D901200AE0002221464FF0FF3000F0B7
:10017C009FF9034B5C60002000E0012010BD00BF24
:10018C00000000200800002008B5074A136843F05F
:10019C0010031360032000F079F90020FFF7D0FF63
:1001AC0004F05AFC002008BD00200240034A1168EC
:1001BC00034B1B780B441360704700BFEC0200200C
:1001CC0000000020014B1868704700BFEC020020B3
:1001DC0038B50446FFF7F6FF0546B4F1FF3F02D0F1
:1001EC00044B1B781C44FFF7EDFF401BA042FAD3D5
:1001FC0038BD00BF0000002030B482B00023019352
:10020C0090F82430012B00F08B800246012380F8FB
:10021C0024304B68062B29D80568686B03EB8303E5
:10022C00053B1F249C4020EA04000C6804FA03F3ED
:10023C0003436B630B68092B38D91568E86803EB2B
:10024C0043031E3B07249C4020EA04008C6804FAFC
:10025C0003F30343EB600B68103B012B34D90020F4
:10026C00002382F8243002B030BC70470C2B0ED81F
:10027C000568286B03EB8303233B1F249C4020EA77
:10028C0004000C6804FA03F303432B63D2E70568FC
:10029C00E86A03EB8303413B1F249C4020EA0400E3
:1002AC000C6804FA03F30343EB62C3E7156828698F
:1002BC0003EB430307249C4020EA04008C6804FAF7
:1002CC0003F303432B61C6E713681648834205D03A
:1002DC00936A43F0200393620120C1E7986810F4FD
:1002EC00000F1BD1986840F4000098600B68102B2D
:1002FC0001D00020B4E70C4B1B680C49A1FB031385
:10030C009B0C03EB83035900019102E0019B013B21
:10031C000193019B002BF9D10020A1E700209FE75E
:10032C000220A0E7002401400800002083DE1B43CC
:10033C0038B503689A6812F0010F01D1002038BD5E
:10034C0004469A6822F001029A60FFF73BFF0546CB
:10035C0023689B6813F0010F0ED0FFF733FF401B8F
:10036C000228F5D9A36A43F01003A362E36A43F0B1
:10037C000103E3620120E2E70020E0E700287FD0E0
:10038C0038B50446836A002B33D02046FFF7D0FFE4
:10039C00A36A13F010036DD100286BD1A26A22F46A
:1003AC00885222F0020242F00202A2626268E16903
:1003BC000A43E56842EA4502A168B1F5807F21D085
:1003CC0001291CD0616901291FD02568696821F4B5
:1003DC0069410B436B6021688D682A4B2B4013439A
:1003EC008B60A368B3F5807F20D0012B1ED0002139
:1003FC001FE0C36280F8243004F04EFBC5E74FF4D5
:10040C008073DFE74FF48073DCE735B9A1690139FC
:10041C0043EA413343F40063D7E7A16A41F020017A
:10042C00A162E16A41F00101E162CEE72369013B7F
:10043C0019052568EB6A23F470030B43EB62236800
:10044C009968114B0B409A420BD0A36A23F012030C
:10045C0043F01003A362E36A43F00103E36201205B
:10046C000DE00023E362A36A23F0030343F00103CE
:10047C00A36204E0A36A43F01003A362012038BD19
:10048C0001207047FDF7E1FFFE0E1FFF074AD368FE
:10049C0023F4E0631B041B0C000200F4E06018431F
:1004AC0040F0BF6040F40030D060704700ED00E0D9
:1004BC0030B4174BDB68C3F30223C3F10704042CDD
:1004CC0028BF04241D1D062D18D9033B4FF0FF3502
:1004DC0005FA04F421EA0401994005FA03F322EA2F
:1004EC000303194300280BDB0901C9B200F160407A
:1004FC0000F5614080F8001330BC70470023E5E73D
:10050C0000F00F000901C9B2024B1954F4E700BF07
:10051C0000ED00E014ED00E000F01F0240090123A3
:10052C009340024A42F82030704700BF00E100E0DF
:10053C0000F01F024009012393402030014A42F889
:10054C002030704700E100E00138B0F1807F0AD222
:10055C00064B5860064AF02182F823100020986060
:10056C0007221A6070470120704700BF10E000E0BE
:10057C0000ED00E008B590F82130022B03D00423E5
:10058C008363012008BD0268136823F00E03136017
:10059C000268136823F0010313600368194A93423D
:1005AC0014D0143293421FD0143293421ED0143202
:1005BC0093421ED0143293421ED01432934202D076
:1005CC004FF0807203E04FF4801200E001220E4BDA
:1005DC005A60012380F82130002380F82030436BCF
:1005EC006BB198470020CDE71022F0E74FF48072F2
:1005FC00EDE74FF48052EAE74FF48032E7E7002052
:10060C00C0E700BF0800024000000240F0B482B016
:10061C0000263546A1E0002C59D0012C00D1CE6823
:10062C00FF2B68D88446FF2B68D8AC00DCF8002080
:10063C000F27A74022EA070206FA04F42243CCF85B
:10064C0000204A6812F0805F00F086805E4A946950
:10065C0044F001049461926902F001020192019A42
:10066C00AC08A71C594A52F8272005F00307BF0015
:10067C004FF00F0C0CFA07FC22EA0C0C544A904277
:10068C0042D002F5806290427FD002F580629042A7
:10069C007DD002F58062904234D0042235E04D4F7B
:1006AC00BC4214D00BD94C4FBC4210D007F580374C
:1006BC00BC420CD0A7F58017BC42B1D107E0A7F51E
:1006CC008017BC4203D007F58037BC42A8D18C6898
:1006DC007CB1012C08D042610826A1E7CE6808360F
:1006EC009EE7CE680C369BE70261082698E7002649
:1006FC0096E7042694E700F1040C94E7A5F10804AE
:10070C00A40093E7032200E00022BA4042EA0C0264
:10071C0002342E4F47F824204A6812F4803F38D018
:10072C002E4C22681A4322604A6812F4003F36D0DD
:10073C002A4C62681A4362604A6812F4801F34D0F3
:10074C00264CA2681A43A2604A6812F4001F32D0E9
:10075C00224CE2681343E36001350F2D31D801229E
:10076C00AA400B6813409A42F6D14C68122CB8D0B0
:10077C0095D8022CB2D07FF64EAF032CB7D0112CEB
:10078C007FF44EAFCE6804364AE70122BDE7022261
:10079C00BBE7124C226822EA03022260C4E70F4C2A
:1007AC00626822EA03026260C6E70C4CA26822EA85
:1007BC000302A260C8E7094CE26822EA0303E36083
:1007CC00CAE702B0F0BC70470010024000000140C4
:1007DC00000801400000211000003110000401400D
:1007EC008368194201D1002070470120704712B96B
:1007FC0009040161704701617047C3685940C160C9
:10080C007047000008B5054B5B69034200D108BD79
:10081C00024B586105F0D6F9F9E700BF000401401E
:10082C0090F83E30DBB2402B13D00369B3F5804F08
:10083C001ED0036D002B2DD0036D012B33D1436CD7
:10084C00C3F3C813026803F0060343F0F10313610A
:10085C0029E0036D2BB9436C026803F0FE031361AE
:10086C0021E0436C026843F00103DBB213611AE030
:10087C0090F83D30DBB2212B06D0436C026843F07C
:10088C000103DBB213610EE0436C026803F0FE035C
:10089C00136108E0436CC3F3C813026803F006034A
:1008AC0043F0F003136100207047436C0268DBB225
:1008BC0013610020704710B48DB090F83E30DAB25E
:1008CC00C16A046B90F83D30DBB2222B0BD00023B5
:1008DC000B9303685A690B929B690B930B9B00203B
:1008EC000DB010BC7047036D0BB9402A17D0036DC7
:1008FC001BB90369B3F5404F19D0438D9BB2002B44
:10090C0025D1039303685A6903929A690392039A57
:10091C001A6842F400721A6000230365DFE7019342
:10092C0003685A6901929B690193019BD7E70023E5
:10093C00029303685A6902929A690292029A1A689F
:10094C0042F480721A60036D01330365C7E7438D6F
:10095C009BB2012B1AD0438D9BB2022B6BD0026839
:10096C00136843F48063136003685A6812F4006FD1
:10097C0003D05A6842F480525A6000230A930368E9
:10098C005A690A929B690A930A9BC5E711F5803F45
:10099C0016D004293DD008293BD0122C39D0C36A7B
:1009AC00022B30D00268136823F480631360002399
:1009BC00069303685A6906929B690693069BABE7FC
:1009CC000268136823F48063136003685A6812F496
:1009DC00006F0CD01A6822F480621A600023049312
:1009EC0003685A6904929B690493049B94E7002260
:1009FC0005925A6905929A690592059A1A6842F409
:100A0C0000721A6088E70268136843F4806313600D
:100A1C00CDE70268136823F4806313600023079307
:100A2C0003685A6907929A690792079A1A6842F4FE
:100A3C0000721A6070E7C36A022B1BD0026813683D
:100A4C0043F4006313600023089303685A69089207
:100A5C009A690892089A1A6822F480621A600368EC
:100A6C005A6812F4006F3FF457AF5A6842F4805240
:100A7C005A6051E70268136843F4806313600023E3
:100A8C00099303685A6909929B690993099BE6E7E4
:100A9C00438D9BB24BB1436A5A1C426202681B786D
:100AAC001361438D013B9BB2438500207047438DFE
:100ABC009BB24BB103681A69436A591C41621A70A4
:100ACC00438D013B9BB2438500207047002800F00A
:100ADC00A28038B5044690F83D30002B4FD024232B
:100AEC0084F83D302268136823F00103136001F091
:100AFC005FFC62684A4B9A4246D84A4B98428CBF7C
:100B0C0000230123002B40F08880474BA3FB0023DC
:100B1C009B0C226853606168414A91423AD8013378
:100B2C002268136261683E4B99423DD8431E4900CE
:100B3C00B3FBF1F30133C3F30B03042B38BF0423D2
:100B4C002268D361E369216A22680B43136023692D
:100B5C00E16822680B4393606369A16922680B43C7
:100B6C00D3602268136843F00103136000202064F3
:100B7C00202384F83D30206384F83E0038BD80F893
:100B8C003C3003F0B9FFAAE7284B98428CBF0023F6
:100B9C000123B7E74FF4967202FB03F3244AA2FB3E
:100BAC0003239B090133BBE7A368BBB9421E01EBCE
:100BBC004105B2FBF5F20132C2F30B02B2FA82F23A
:100BCC00520932BBC3B9013801EB4103B0FBF3F35B
:100BDC000133C3F30B0343F40043B1E7421E01EBB3
:100BEC00810505EB8505B2FBF5F20132C2F30B0270
:100BFC00B2FA82F25209E4E7013801EB810303EB0C
:100C0C008303B0FBF3F30133C3F30B0343F440430F
:100C1C0096E7012394E7012070470120AEE700BF5F
:100C2C00A08601007F841E0083DE1B43FF083D006D
:100C3C00D34D621070477047704708B590F83D303F
:100C4C00DAB2438D9BB273B1436A591C416201689D
:100C5C001B780B61438D013B9BB24385438D9BB24B
:100C6C000BB9292A01D0002008BD0268536823F46F
:100C7C008063536021230363282380F83D30FFF702
:100C8C00DBFFF0E7704790F83D30DAB2438D9BB252
:100C9C00F3B110B503681969436A5C1C446219709E
:100CAC00438D013B9BB24385438D9BB20BB92A2AE2
:100CBC0001D0002010BD0268536823F48063536098
:100CCC0022230363282380F83D30FFF7DBFFF0E796
:100CDC0000207047704708B503689A6912F0040F3A
:100CEC0009D000219B6913F0800F06D0028BFFF70F
:100CFC00F1FF002008BD0121F4E78289F7E7704776
:100D0C0008B590F83D30DBB2C26A042A01D0082A3B
:100D1C0001D1282B07D0212B1FD003686FF48062E0
:100D2C005A61002008BD1A4BC3620268536823F451
:100D3C00E063536003686FF480625A610268136861
:100D4C0023F48063136000230363202280F83D208A
:100D5C0080F83E30FFF7D3FFE3E70D4BC36221234E
:100D6C000363202380F83D30002380F83E30026876
:100D7C00536823F4E063536003686FF480625A6134
:100D8C000268136823F480631360FFF755FFC8E70C
:100D9C000000FFFF704710B590F83D30DBB290F8C3
:100DAC003E20D2B2C46A018D09B9212B05D0212B6A
:100DBC003CD0402A38D0002010BD042C04D0082C84
:100DCC0002D014F5803F19D10268536823F4E06314
:100DDC0053600268136843F40073136000230363C9
:100DEC00202380F83D3090F83E30DBB2402B15D0FC
:100DFC00002380F83E30FFF71DFFDCE702685368E4
:100E0C0023F4E063536011230363002380F83E3026
:100E1C00202380F83D30FFF70DFFCCE7002380F84E
:100E2C003E30FFF7B7FFC6E7222BC4D1438D9BB2F0
:100E3C007BB190F83E30DBB2402B10D0436A5A1C89
:100E4C00426202681B781361438D013B9BB2438560
:100E5C00B1E70268536823F480635360ABE7036D1A
:100E6C009BB9C36C012B08D0836CC3F307230268B6
:100E7C001361036D013303659DE7836C0268DBB27C
:100E8C001361036D0233036595E7036D012B17D0D6
:100E9C00036D022B8FD190F83D30DBB2222B17D093
:100EAC0090F83D30DBB2212B85D1436A5A1C42624B
:100EBC0002681B781361438D013B9BB243857AE733
:100ECC00836C0268DBB21361036D0133036572E757
:100EDC000268136843F4807313606CE708B5C26A48
:100EEC0090F83D30DBB2212B01D0002008BD438DA2
:100EFC009BB203BB042A04D0082A02D012F5803F0F
:100F0C0024D10268536823F4E063536002681368C9
:100F1C0043F40073136000230363202380F83D30F7
:100F2C0090F83E30DBB2402B20D0002380F83E30CE
:100F3C00FFF780FED9E7436A5A1C426202681B78AD
:100F4C001361438D013B9BB24385CEE70268536826
:100F5C0023F4E063536011230363002380F83E30D5
:100F6C00202380F83D30FFF765FEBEE7002380F8B4
:100F7C003E30FFF70FFFB8E7704708B590F83D30EB
:100F8C00DBB2222B01D0002008BD438D9BB2032B7A
:100F9C0029D8023B012B31D9C36A022B47D00268F6
:100FAC00136823F4806313600268536823F4E063CE
:100FBC00536003681A69436A591C41621A70438D65
:100FCC00013B9BB24385202380F83D300023036313
:100FDC0090F83E30DBB2402B2FD0002380F83E300F
:100FEC00FFF729FECFE703681A69436A591C41626F
:100FFC001A70438D013B9BB24385C4E7C36A022B35
:10100C000FD00268136823F48063136002681368BE
:10101C0043F4006313600268536823F480635360E5
:10102C00B1E70268136843F480631360F3E7026866
:10103C00136843F480631360B6E7002380F83E30F6
:10104C00FFF79AFF9FE708B5C26A438D9BB2032B4B
:10105C000FD0438D9BB2022B22D003681A69436ACE
:10106C00591C41621A70438D013B9BB24385002091
:10107C0008BD042A04D0082A02D012F5803F04D1FE
:10108C000268136823F48063136003681A69436A67
:10109C00591C41621A70438D013B9BB24385E6E7B4
:1010AC00042A17D0082A15D012F5803F12D0022A34
:1010BC000AD00268136823F48063136002685368D3
:1010CC0023F4407353600FE00268136843F48063A9
:1010DC001360F3E70268536823F4407353600268AB
:1010EC00136843F40073136003681A69436A591C4C
:1010FC0041621A70438D013B9BB2438503681A69A8
:10110C00436A591C41621A70438D013B9BB2438563
:10111C00202380F83D300023036390F83E30DBB28F
:10112C00402B05D0002380F83E30FFF784FD9EE76E
:10113C00002380F83E30FFF71FFF98E77047704799
:10114C0010B5044690F83D30293B012B36D990F868
:10115C003D30DBB2602B07D003685B6813F4006F83
:10116C0002D1202380F83D300023236384F83E30E5
:10117C002268136823F40063136023685A6812F41E
:10118C00006F3ED05A6822F400625A60636B93F889
:10119C002120012A18D03A4A5A63606BFFF7EAF90A
:1011AC0000283FD02268136823F00103136020232A
:1011BC0084F83D30606B436B984733E00023036346
:1011CC00282380F83D30D3E7A36B2D4A5A63A06BDC
:1011DC00FFF7D0F930B323685A6912F0400F04D0EE
:1011EC001A69636A591C61621A702268136823F0C9
:1011FC0001031360202384F83D30A06B436B9847A8
:10120C0010E094F83D20D2B2602A11D05A6912F045
:10121C00400F04D01A69636A591C61621A70204627
:10122C00FFF78CFF94F83D30DBB2282B17D010BDA4
:10123C00202284F83D20002222645A6912F0400FCB
:10124C0004D01A69636A591C61621A7022681368A7
:10125C0023F0010313602046FFF771FFE2E7236CD4
:10126C0013F0040FE3D0074BE36200232363202227
:10127C0084F83D2084F83E302046FFF740FDD6E749
:10128C00D91500080000FFFF10B582B090F83D3072
:10129C00DBB201684A6822F4E0624A6000220192E3
:1012AC00026851690191116841F001011160019AC4
:1012BC0001680A6822F480620A6001684A6812F4C4
:1012CC00006F14D090F83D20D2B2222A0AD090F8A8
:1012DC003D20D2B22A2A05D0426B1268526892B2D3
:1012EC00428504E0826B1268526892B24285428D4C
:1012FC0092B2F2B14A6912F0040F08D00969426A3D
:10130C00541C44621170428D013A92B242850268BB
:10131C00516911F0400F08D01169426A541C4462A3
:10132C001170428D013A92B24285026C42F0040275
:10133C000264026CA2B9282B15D02A2B13D0292BAE
:10134C0011D0026B222A01D0222B17D10023036368
:10135C00202280F83D2080F83E30FFF793FC0DE012
:10136C00FFF7EEFE0AE0074BC36200230363202263
:10137C0080F83D2080F83E30FFF7C1FC002002B021
:10138C0010BD00BF0000FFFFF8B5054603689F695C
:10139C005C695E6890F83E30DBB2102B25D0402B98
:1013AC0023D04C4B234013B116F4007F6ED14A4B23
:1013BC00234013B116F4007F6BD1484B3B40002BFC
:1013CC006FD0474B234033B116F4806F03D0454B9D
:1013DC002340002B61D0434B234053B316F4007FC2
:1013EC0027D02846FFF754FB23E014F0011F02D04E
:1013FC0016F4007F1ED13C4B234013B116F4007F32
:10140C001CD1344B234013B116F4007F1AD1334B4B
:10141C003B401BB3324B23402BB116F4806F02D0F0
:10142C00304B234093B12F4B234013B116F4007F64
:10143C0010D1F8BD2846FFF7F3F9E8E72846FFF787
:10144C0034FAE4E72846FFF736FAE0E72846FFF7D8
:10145C00A2FCEEE72846FFF741FDEAE7234B2340C9
:10146C002BB116F4806F02D01E4B234053B11D4B91
:10147C002340002BDDD016F4007FDAD02846FFF78E
:10148C00E2FDD6E72846FFF778FDD2E7FFF723FC0D
:10149C00CFE72846FFF7F8FECBE72846FFF7CDFB52
:1014AC00C7E7124B23402BB116F4806F02D00D4BC3
:1014BC00234053B10B4B2340002BBAD016F4007FC2
:1014CC00B7D02846FFF7F3FAB3E72846FFF7DBFB64
:1014DC00AFE700BF02000100100001000400100083
:1014EC008000010004000100080001004000010020
:1014FC0070B5044603685D695E68334A15420ED0C8
:10150C0016F4807F0BD0026C42F0010202646FF47F
:10151C0080725A610268136843F40043136015F437
:10152C00813F0AD016F4807F07D0236C43F002036E
:10153C00236423686FF400725A6115F4823F1AD049
:10154C0016F4807F17D094F83E30DBB2628D91B2E6
:10155C0094F83D20D2B2206B202B1DD0236C43F08D
:10156C000403236494F83E30DBB2102B22D02368A2
:10157C006FF480625A6115F4843F0AD016F4807FB0
:10158C0007D0236C43F00803236423686FF40062D4
:10159C005A61236CA3B970BD0029DFD1212A05D073
:1015AC00292A03D0282AD9D12128D7D12046FFF7C0
:1015BC00A7FBE0E72268136843F400731360D6E7D7
:1015CC002046FFF7BDFDE6E70001010008B5406AC3
:1015DC000268136823F48063136000234385426B15
:1015EC005363826B536390F83D30DBB2602B0DD0AC
:1015FC00202380F83D30002380F83E3002681368C9
:10160C0023F001031360FFF799FD08BD202380F838
:10161C003D30002380F83E3003640268136823F0E9
:10162C0001031360FFF78BFDEFE790F82834012BD3
:10163C000DD010B50446012380F8283480F824100E
:10164C00006802F061FA002084F8280410BD022022
:10165C00704738B54DB2002D1CDB01F07F046401DE
:10166C0004F50A74044401F07F012170ED0F6570DC
:10167C002261E37090F82834012B11D00546012328
:10168C0080F828342146006802F02AF8002085F8FA
:10169C00280438BD01F07F04640128340444E2E7D7
:1016AC000220F6E770B501F07F056C0104F50A71B4
:1016BC0001440444C4F83C2205F11202520186187C
:1016CC0083500023736084F8293284F8285225B1A2
:1016DC00006802F039FA002070BD006802F034FA9C
:1016EC00F9E770B501F07F056C0104F128010144A4
:1016FC000444E263AA1C52018618835000237360D1
:10170C00012384F8293084F8285025B1006802F0B0
:10171C001BFA002070BD006802F016FAF9E770B5EC
:10172C0082B004460023ADF80630ADF804302068D2
:10173C00B0F844309BB2ADF8063013F4004F00F013
:10174C000D82BDF8065015F00F0540F0C280BDF8B3
:10175C00063013F0100F50D003889BB2ADF8043054
:10176C00BDF8043013F4006F79D1BDF8043013F4D4
:10177C00004FDCD0038823F070031B051B0D038086
:10178C002068B0F8503094F8282203EBC2030633DB
:10179C0000EB4303D3F80034C3F30903C4F8443219
:1017AC00002B7CD10021204603F030FB2368B3F8DA
:1017BC005020063203EB4203D4F838123E297CD970
:1017CC00C1F34F1211F01F0F01D1013A92B26FEA1F
:1017DC00C2626FEA524292B2C3F8002422681388A4
:1017EC009BB223F4804323F0700383F4405343F4FF
:1017FC00004343F08003138099E703889BB223F4E2
:10180C00E14323F070039BB203802268B2F850309E
:10181C0094F8281003EBC103023302EB4303D3F813
:10182C000034C3F309036364E26B1344E3630021E4
:10183C00204603F0F5FA94F82430002B3FF477AFF0
:10184C00236C002B7FF473AF94F82430226843F0A0
:10185C008003A2F84C30002384F8243067E7B0F8FA
:10186C00503094F8282203EBC203063300EB4303F9
:10187C00D3F80034C3F30903C4F84432B4F82C226F
:10188C0004F22C4102F0BDFA2268138823F0700395
:10189C001B051B0D1380204603F0B0FA47E7B4F884
:1018AC002C22D4F83C1202F0ACFAD4F84422D4F82E
:1018BC003C321344C4F83C3274E7C1F34F0211F0CC
:1018CC00010F01D0013292B2920292B2C3F80024FD
:1018DC0084E730F825309BB2ADF80430BDF8043005
:1018EC0013F4004F35D1BDF8043013F0800F3FF4E2
:1018FC001EAF226832F825309BB223F4E14323F06B
:10190C0070039BB222F8253004EB451393F8323068
:10191C00002B40F0B2802068B0F8503004EB451238
:10192C0092F8282003EBC203023300EB4303D3F8F5
:10193C000034C3F30903AA1C04EB42125360002BBE
:10194C0000F0C68004EB45118A8DC96B02F0E7F8F4
:10195C00BEE030F8253023F070031B051B0D20F87A
:10196C00253004EB451393F83232D3B92068B0F824
:10197C00503004EB451292F8282203EBC2030633D5
:10198C0000EB4303B3F80064C6F3090686B304EB1B
:10199C0045113346B1F82C22D1F83C1202F031FA41
:1019AC0026E0206804EB451393F8282230F8223007
:1019BC0013F4804F42D0B0F8503003EBC203023323
:1019CC0000EB4303B3F80064C6F3090666BB226858
:1019DC0004EB451393F8281232F8213023F0F0036E
:1019EC001B051B0D43F4004343F0C00322F82130C8
:1019FC0005F112035B01E1184A6832444A6004EBBA
:101A0C004511D1F83C223244C1F83C22E3581BB1B9
:101A1C00D1F838128E4228D204EB451393F82812D1
:101A2C00204603F0F3F95EE704EB45113346B1F8B9
:101A3C002E22D1F83C1202F0E4F9C8E7B0F850308D
:101A4C0003EBC203063300EB4303B3F80064C6F3A5
:101A5C000906002EBBD004EB45113346B1F83022F9
:101A6C00D1F83C1202F0CDF9B1E704EB451191F835
:101A7C0028122046FFF716FE35E7206804EB4513C5
:101A8C0093F8282030F8223013F0400F46D0B0F8ED
:101A9C00503003EBC203023300EB4303D3F80034A2
:101AAC00C3F30903AA1C04EB421253607BBB2268EC
:101ABC0004EB451393F8281032F8213023F0F0038F
:101ACC001B051B0D43F4404343F0800322F82130E7
:101ADC002268B2F8503004EB451090F8281003EB54
:101AEC00C103023302EB4303D3F80024C2F309020F
:101AFC00AB1C5B01E1184A60C16B0A44C263E3583A
:101B0C0023BB90F82810204603F08AF90FE604EB6B
:101B1C004511CA8DC96B02F002F8C8E7B0F8503015
:101B2C0003EBC203063300EB4303D3F80034C3F3D7
:101B3C000903AA1C04EB42125360002BB7D004EB30
:101B4C0045110A8EC96B01F0EAFFB0E704EB4515AD
:101B5C0095F828102046FFF7C4FDE8E5002002B0F8
:101B6C0070BD10B50446006801F0D4FF10F4004FAE
:101B7C0045D1206801F0CEFF10F4806F43D120686E
:101B8C0001F0C8FF10F4804F08D02268B2F844303E
:101B9C009BB223F480439BB2A2F84430206801F03E
:101BAC00B9FF10F4005F08D02268B2F844309BB241
:101BBC0023F400539BB2A2F84430206801F0AAFF32
:101BCC0010F4805F30D1206801F0A4FF10F4006F96
:101BDC0049D1206801F09EFF10F4007F64D1206889
:101BEC0001F098FF10F4807F08D02268B2F84430DE
:101BFC009BB223F480739BB2A2F8443010BD2046F4
:101C0C00FFF78DFDB5E72268B2F844309BB223F4A0
:101C1C0080639BB2A2F84430204603F010F90021F7
:101C2C002046FFF702FDAAE72268B2F840309BB2CB
:101C3C0023F004039BB2A2F840302268B2F8403083
:101C4C009BB223F008039BB2A2F84030204603F06D
:101C5C0013F92268B2F844309BB223F480539BB240
:101C6C00A2F84430AFE72268B2F8403043F00803E2
:101C7C00A2F840302268B2F844309BB223F40063DF
:101C8C009BB2A2F844302268B2F8403043F004030F
:101C9C00A2F84030206801F03DFF10F4805F98D12D
:101CAC00204603F0D9F894E72268B2F844309BB28E
:101CBC0023F400739BB2A2F84430204603F0B9F829
:101CCC008DE738B54AB2002A1BDB4B0103F50A73CA
:101CDC00034401249C7001F07F051D70D20F5A70D3
:101CEC0090F82824A24218D00446012280F8282417
:101CFC001946006801F088FE4DB1002084F82804D4
:101D0C0038BD01F07F035B0128330344E1E704F2A3
:101D1C002C41206801F001FFEFE70220F0E710B53D
:101D2C004AB2002A1ADB4B0103F50A730344002460
:101D3C009C7001F07F011970D20F5A7090F8282412
:101D4C00012A11D00446012280F828241946006883
:101D5C0001F091FE002084F8280410BD01F07F03EF
:101D6C005B0128330344E2E70220F6E7014B012232
:101D7C001A60704720000E4290FAA0F0B0FA80F082
:101D8C00024B03449B0000221A6070472080831092
:101D9C0082B0084B1B68084AA2FB03235B0A00FBBA
:101DAC0003F0019000BF019B5A1E0192002BF9D148
:101DBC0002B0704708000020D34D621070B582B09D
:101DCC000446036813F0010F2CD0AB4B5B6803F097
:101DDC000C03042B1DD0A84B5B6803F00C03082BE1
:101DEC0012D06368B3F5803F41D0002B55D103F17D
:101DFC00804303F504331A6822F480321A601A689F
:101E0C0022F480221A6037E09B4B5B6813F4803F0E
:101E1C00E7D0994B1B6813F4003F03D06368002B89
:101E2C0000F0AE81236813F0020F76D0924B5B6802
:101E3C0013F00C0F5FD0904B5B6803F00C03082B76
:101E4C0054D02369002B00F08A808C4B01221A603D
:101E5C00FEF7B8F90546884B1B6813F0020F75D1D5
:101E6C00FEF7B0F9401B0228F5D903208BE1824A1A
:101E7C00136843F480331360636843B3FEF7A2F92D
:101E8C0005467D4B1B6813F4003FCBD1FEF79AF946
:101E9C00401B6428F5D9032075E1B3F5A02F09D0B8
:101EAC00754B1A6822F480321A601A6822F4802268
:101EBC001A60E1E703F18043A3F53C331A6842F45E
:101ECC0080221A601A6842F480321A60D4E7FEF756
:101EDC0079F90546684B1B6813F4003FA2D0FEF756
:101EEC0071F9401B6428F5D903204CE1624B5B6807
:101EFC0013F4803FA5D1604B1B6813F0020F04D084
:101F0C002369012B01D001203DE15B4A136823F0CA
:101F1C00F803616943EAC1031360236813F0080FE7
:101F2C0032D0A369002B5BD0554B01221A60FEF70F
:101F3C0049F90546504B5B6A13F0020F21D1FEF7AD
:101F4C0041F9401B0228F5D903201CE14A4A1368C9
:101F5C0023F0F803616943EAC1031360DDE7474BE3
:101F6C0000221A60FEF72EF90546434B1B6813F04E
:101F7C00020FD2D0FEF726F9401B0228F5D9032018
:101F8C0001E10120FFF704FF236813F0040F00F0B8
:101F9C009780394BDB6913F0805F33D1364BDA69AC
:101FAC0042F08052DA61DB6903F080530193019BAC
:101FBC000125344B1B6813F4807F25D0E368012B7B
:101FCC0036D0002B4CD103F1804303F504331A6A4D
:101FDC0022F001021A621A6A22F004021A622CE040
:101FEC00274B00221A60FEF7EDF80546224B5B6A80
:101FFC0013F0020FC8D0FEF7E5F8401B0228F5D904
:10200C000320C0E00025D4E71E4A136843F4807314
:10201C001360FEF7D7F806461A4B1B6813F4807F43
:10202C00CCD1FEF7CFF8801B6428F5D90320AAE0A9
:10203C00114A136A43F001031362E36873B3FEF7AA
:10204C00C1F806460C4B1B6A13F0020F37D1FEF792
:10205C00B9F8801B41F288339842F3D9032092E0FF
:10206C00052B11D0044B1A6A22F001021A621A6A6B
:10207C0022F004021A62E0E7001002400000424223
:10208C008004424200700040414B1A6A42F0040244
:10209C001A621A6A42F001021A62CEE7FEF792F84F
:1020AC0006463B4B1B6A13F0020F08D0FEF78AF86A
:1020BC00801B41F288339842F3D9032063E0E5B9E1
:1020CC00E369002B5ED0324A526802F00C02082AF7
:1020DC005BD0022B17D02F4B00221A60FEF772F840
:1020EC0004462B4B1B6813F0007F47D0FEF76AF8B1
:1020FC00001B0228F5D9032045E0254AD36923F0BB
:10210C008053D361DCE7234B00221A60FEF75AF8A8
:10211C0005461F4B1B6813F0007F06D0FEF752F8E4
:10212C00401B0228F5D903202DE0236AB3F5803F2C
:10213C001AD017494B6823F47413226A606A02435D
:10214C0013434B60134B01221A60FEF73BF8044615
:10215C000F4B1B6813F0007F0ED1FEF733F8001BFA
:10216C000228F5D903200EE0094A536823F4003302
:10217C00A1680B435360DCE7002004E0002002E080
:10218C00012000E0002002B070BD0120FBE700BF81
:10219C00001002406000424210B487B0164C94E824
:1021AC000F000DF1180C0CE90F00238AADF8043068
:1021BC00124B5B6803F00C02082A1AD1C3F383425A
:1021CC00624412F8102C13F4803F05D10C4800FB2C
:1021DC0002F007B010BC7047084B5B68C3F3404378
:1021EC00634413F8143C074800FB02F0B0FBF3F017
:1021FC00EFE70448EDE700BFE86900080010024073
:10220C0000093D0000127A00624B1B6803F00703C3
:10221C008B420CD25F4A136823F007030B43136005
:10222C00136803F007038B4201D00120704770B58F
:10223C00036813F0020F17D013F0040F04D0564AA2
:10224C00536843F4E0635360036813F0080F04D041
:10225C00514A536843F4605353604F4A536823F018
:10226C00F0038468234353600D460446036813F05F
:10227C00010F52D04368012B23D0022B28D0464AA1
:10228C00126812F0020F00F0828043494A6822F073
:10229C00030213434B60FDF795FF06466368012B61
:1022AC001DD0022B2AD03C4B5B6813F00C0F34D0A2
:1022BC00FDF788FF801B41F288339842F3D9032045
:1022CC0064E0354A126812F4003FDED101205DE073
:1022DC00314A126812F0007FD7D1012056E02E4B04
:1022EC005B6803F00C03042B17D0FDF76BFF801B0E
:1022FC0041F288339842F2D9032047E0264B5B68C1
:10230C0003F00C03082B08D0FDF75CFF801B41F297
:10231C0088339842F2D9032038E01E4B1B6803F037
:10232C000703AB420CD91B4A136823F007032B435A
:10233C001360136803F00703AB4201D0012025E0C2
:10234C00236813F0040F06D0134A536823F4E06398
:10235C00E1680B435360236813F0080F07D00E4A53
:10236C00536823F46053216943EAC1035360FFF7B8
:10237C0013FF094B5B68C3F30313084AD35CD840C3
:10238C00074B18600020FDF7DBFE002070BD01201C
:10239C00FCE700BF0020024000100240106A000859
:1023AC0008000020014B1868704700BF080000208F
:1023BC0008B5FFF7F7FF044B5B68C3F30223034A2E
:1023CC00D35CD84008BD00BF00100240206A000852
:1023DC0008B5FFF7E7FF044B5B68C3F3C223034A5E
:1023EC00D35CD84008BD00BF00100240206A000832
:1023FC0070B582B00446036813F0010F34D03E4B25
:10240C00DB6913F0805F48D13B4BDA6942F08052B4
:10241C00DA61DB6903F080530193019B0125374B93
:10242C001B6813F4807F3AD0334B1B6A13F4407350
:10243C0011D0626802F440729A420CD02E4A136A90
:10244C0023F440702E4901260E6000260E601062A7
:10245C0013F0010F37D1284A136A23F440736168D3
:10246C000B431362002D3FD1236813F0020F06D0EB
:10247C00214A536823F44043A1680B4353602368FB
:10248C0013F0100F35D01C4A536823F48003E16815
:10249C000B435360002002B070BD0025BFE7174A04
:1024AC00136843F480731360FDF78CFE0646134BE0
:1024BC001B6813F4807FB7D1FDF784FE801B642862
:1024CC00F5D90320E7E7FDF77DFE06460A4B1B6AAC
:1024DC0013F0020FBFD1FDF775FE801B41F288335C
:1024EC009842F3D90320D6E7D36923F08053D36104
:1024FC00BAE70020CFE700BF001002400070004098
:10250C004004424230B587B00546384C94E80F0081
:10251C000DF1180C0CE90F00238AADF80430022DD4
:10252C0050D0102D03D0012D2BD0002054E0304B77
:10253C005A681B6813F0807F50D0C2F3834306A9FE
:10254C000B4413F8100C12F4803F16D0284B5B6828
:10255C00C3F340430B4413F8142C264BB3FBF2F398
:10256C0000FB03F0224B5B6813F4800F34D1400066
:10257C00214BA3FB003040082EE0204B03FB00F066
:10258C00F0E71B4B1B6A40F202321A40B2F5817F16
:10259C0026D003F44073B3F5007F04D0B3F5407F2D
:1025AC0009D0002018E0124A526A12F0020FF5D03E
:1025BC0049F6404010E00E4B1B6813F4003F12D15B
:1025CC00002009E0FFF704FF094B5B68C3F381337C
:1025DC0001335B00B0FBF3F007B030BD0020FBE72C
:1025EC004FF40040F8E74FF22440F5E7FC6900088F
:1025FC000010024000127A00ABAAAAAA00093D0002
:10260C0030B402689469A5B2D369916988B28542E5
:10261C0005D0D06980B240EA014030BC704798B216
:10262C0040EA0440F9E70368186A5B6A9BB243EA24
:10263C0000407047030903EB83035A0000F00F00BE
:10264C001044C0B27047000010B400F5FA640229BF
:10265C0020D901EB4103C1EBC3011F4BA3FB0113B9
:10266C0002EB5303234403EB94031C4AA2FB042404
:10267C00A3EB541303EBD41302331948A0FB032030
:10268C001A1A00EB52008008C0EBC000181AC0B236
:10269C0010BC704701EB4103C1EBC3010E4BA3FB14
:1026AC00011302EB5303234400F2CF7003EB9003AE
:1026BC000A4AA2FB0020A3EB501303EBD013043304
:1026CC000748A0FB03201A1A00EB52008008C0EB4D
:1026DC00C000181ADBE700BF398EE3381F85EB51B9
:1026EC002549922438B50446FDF76CFD0546236850
:1026FC005A6812F0200F07D1FDF764FD401BB0F5AE
:10270C007A7FF4D9032004E05A6842F010025A6030
:10271C00002038BD38B504460268536823F0100316
:10272C005360FDF74FFD054623685B6813F0200FDF
:10273C0007D1FDF747FD401BB0F57A7FF4D9032094
:10274C0000E0002038BD38B505460C46FFF7CAFF3F
:10275C0010B10123184638BD2B68220C9A612B68E6
:10276C00A4B2DC612846FFF7D5FF03460028F1D060
:10277C000123EFE738B505460C46FFF7B3FF10B160
:10278C000123184638BD2B68220C1A622B68A4B2A0
:10279C005C622846FFF7BEFF03460028F1D00123F8
:1027AC00EFE770B5002857D00446002956D0037CBB
:1027BC00012B55D00E460123037402234374BAB97E
:1027CC000D784B78C3EB03139A004FF4616303FB52
:1027DC0005258B781D4429462046FFF7B4FF064695
:1027EC00C8B104236374002323740126304670BDE2
:1027FC000878FFF71FFF4FF4616505FB00F5707853
:10280C00FFF718FFC0EB001083001D44B078FFF7F2
:10281C0011FF0544DFE72268536823F0050353607A
:10282C002046FFF700FFB0F1FF3F01D0854204D8EE
:10283C000123637400232374D8E700F5A83101F554
:10284C00C0712046FFF796FF0028F1D00423637473
:10285C00002323740126C9E70126C7E70126C5E733
:10286C000226C3E700285DD038B5044600295BD0AA
:10287C00037C012B5AD00D460123037402234374AD
:10288C00D2B9CB78C3734B7843738B788373A27BA9
:10289C00617BE07BFFF7D8FE207328702046FFF7A2
:1028AC00AFFE234BA3FB0023B3F5484F11D20123FA
:1028BC0063740020207438BDC878FFF7BBFEE0734A
:1028CC006878FFF7B7FE6073A878FFF7B3FEA073C4
:1028DC00DDE7184DA5FB00352D0C174B03FB15053B
:1028EC0029462046FFF72FFF28B1042363740023E9
:1028FC0023740120DFE72046FFF795FEB0F1FF3F80
:10290C00D5D08542D3D900F5A83101F5C071204648
:10291C00FFF730FF0028CAD004236374002323740C
:10292C000120C8E7012070470120C4E70220C2E75C
:10293C00C5B3A29107452EC280510100C0B138B574
:10294C0004460268536823F008035360FDF73AFC11
:10295C00054623685B6813F0080F07D1FDF732FCBE
:10296C00401BB0F57A7FF4D9032000E0002038BD7D
:10297C000120704700285AD010B50446437C53B14F
:10298C00022363742046FFF7D9FF40B1042363741C
:10299C000123184610BD037402F0F0F8F0E720464E
:1029AC00FFF7A0FE002830D12268536823F00703FC
:1029BC005360A36823B11F4A136B23F00103136305
:1029CC001C4AD36A23F46073A1680B43D362626818
:1029DC00B2F1FF3F1DD021688B6823F00F0343EA4F
:1029EC0012438B602168CB681B0C1B0492B21343FF
:1029FC00CB602046FFF78EFE0346A0B90022E2739F
:102A0C0001226273A2736274C3E70423637401230B
:102A1C00BFE70120FFF776FD08B1421EDBE7042378
:102A2C0063740123B5E7042363740123B1E7012325
:102A3C0018467047006C00407047704703681A686E
:102A4C0012F0010F1BD05A6812F0010F17D010B5FD
:102A5C0004465B6813F0040F0CD0FFF7EEFF2368FD
:102A6C006FF004025A600423637423686FF0010250
:102A7C005A6010BDFFF7E0FF01236374F5E7704760
:102A8C00F8B505460F4616461C463BE02CB1FDF743
:102A9C0099FB069BC01AA04234D32A68536823F0D2
:102AAC00E00353606B68B3F5827F0BD0AB6AB3F570
:102ABC00005F14D0012385F85130002385F8503085
:102ACC00032027E0AB68B3F5004F02D0B3F5806F5D
:102ADC00ECD12A68136823F040031360E6E72A68F8
:102AEC00136823F400531B041B0C13602A6813682F
:102AFC0043F400531360DDE70123B34209D0B4F172
:102B0C00FF3FC3D12B689B6837EA0303F4D0002343
:102B1C00F3E70020F8BD10B582B0044600920B46D6
:102B2C0000228021FFF7ACFF034610B9184602B013
:102B3C0010BD636D43F0200363650323F6E72DE9B5
:102B4C00F04184B01E4690F85030012B00F0C88044
:102B5C0004460D469046012380F85030FDF732FBB9
:102B6C00074694F85130DBB2012B0AD00223012224
:102B7C0084F85120002284F85020184604B0BDE897
:102B8C00F081002D00F0A480B8F1000F00F0A280BD
:102B9C00032384F85130002363652563A4F8348043
:102BAC00A4F83680A363A387E38763642364A368D4
:102BBC00B3F5004F1BD023681A6812F0400F03D1F5
:102BCC001A6842F040021A60E368B3F5006F14D043
:102BDC0063681BB1E38E9BB2012B3ED1236815F8C1
:102BEC00012B1A73E38E013B9BB2E38635E022681E
:102BFC00136843F480431360DDE763681BB1E38E15
:102C0C009BB2012B0DD1236835F8022BDA60E38ED1
:102C1C00013B9BB2E38604E0002E5DD0B6F1FF3F92
:102C2C000FD1E38E9BB27BB323689A6812F0020F2C
:102C3C00F2D035F8022BDA60E38E013B9BB2E386CF
:102C4C00EFE7FDF7BFFAC01BB042EAD303238EE7D0
:102C5C00002E43D0B6F1FF3F0FD1E38E9BB29BB158
:102C6C0023689A6812F0020FF2D015F8012B1A7330
:102C7C00E38E013B9BB2E386EFE7FDF7A3FAC01BA3
:102C8C00B042EAD3032372E70097334601220221B4
:102C9C002046FFF7F5FE08B1032368E73A463146B4
:102CAC002046FFF738FF034618B120236365012344
:102CBC005DE7A26832B903922268D16803919268E9
:102CCC000392039A626D002A3FF451AF01234EE741
:102CDC0001234CE701234AE7032348E7032346E794
:102CEC0002234AE77047000010B584B0044602681E
:102CFC005068936803F0410101290AD013F0020FC8
:102D0C000ED010F0800F0BD0636C2046984704B0A7
:102D1C0010BD10F0400FF1D0236C20469847F6E719
:102D2C0013F0600FF3D010F0200FF0D013F0400F21
:102D3C000FD094F85110C9B203293DD0616D41F008
:102D4C000401616500210191D168019191680191A3
:102D5C00019913F0200F0CD0636D43F001036365F0
:102D6C000023039393680393136823F040031360C9
:102D7C00039B636D002BCAD02268536823F0E003D9
:102D8C005360012384F8513010F0030F1CD02268DB
:102D9C00536823F003035360E36C23B10C4A5A636A
:102DAC00E06CFDF7E7FBA36C002BB0D0084A5A632C
:102DBC00A06CFDF7DFFBAAE700230293D368029314
:102DCC0093680293029BA2E72046FFF78BFF9EE7D6
:102DDC00E12D000808B5406A0023C387C386FFF7BE
:102DEC0081FF08BD90F85100704700283CD010B509
:102DFC0004460023836290F85130002B31D002231B
:102E0C0084F851302268136823F040031360636820
:102E1C00A2681343E26813432269134362691343A4
:102E2C00A26902F400721343E2691343226A13434A
:102E3C00A16A22680B431360638B03F00403616A7D
:102E4C0022680B4353602368E26A1A612268D369D3
:102E5C0023F40063D36100206065012384F85130B2
:102E6C0010BD01F0B1FECAE70120704710B4036A2F
:102E7C00046A24F001040462846924F0F00444EA36
:102E8C00021223F00A030B438261036210BC7047E9
:102E9C0010B4036A23F0100303628469036A24F4F8
:102EAC00704444EA023223F0A00343EA0113826126
:102EBC00036210BC7047836823F0700341F0070174
:102ECC0019438160704710B4846824F47F4442EA4B
:102EDC0003230B432343836010BC7047022380F809
:102EEC003D300268136843F001031360012380F83E
:102EFC003D3000207047022380F83D300368196A8A
:102F0C0041F21112114208D1196A40F244421142A5
:102F1C0003D11A6822F001021A60012380F83D30B7
:102F2C000020704790F83C30012B7DD010B5044642
:102F3C00012380F83C30022380F83D30026893680E
:102F4C0023F47F4323F0770393600B68402B57D017
:102F5C0010D9702B3ED01FD8502B47D0602B32D1BC
:102F6C00CA6849680068FFF793FF60212068FFF783
:102F7C00A2FF28E0102B4DD008D9202B4FD0302B9E
:102F8C0021D130210068FFF796FF1CE0DBB900214E
:102F9C000068FFF790FF16E0B3F5805F0ED0B3F535
:102FAC00005F10D1CB684A6889680068FFF78BFF17
:102FBC002268936843F48043936004E0026893684A
:102FCC0023F007039360012384F83D30002084F83C
:102FDC003C0010BDCB684A6889680068FFF773FF36
:102FEC002268936843F077039360ECE7CA684968FA
:102FFC000068FFF73BFF50212068FFF75CFFE2E71A
:10300C00CA6849680068FFF731FF40212068FFF764
:10301C0052FFD8E710210068FFF74DFFD3E72021BE
:10302C000068FFF748FFCEE70220704703681B4A91
:10303C0090420AD0B0F1804F07D0A2F59432904262
:10304C0003D002F58062904203D123F070034A68EA
:10305C001343124A90420AD0B0F1804F07D0A2F528
:10306C009432904203D002F58062904203D123F453
:10307C004073CA68134323F080034A691343036007
:10308C008B68C3620B688362044B984202D00123A5
:10309C00436170470B690363F9E700BF002C0140E3
:1030AC00A8B110B5044690F83D305BB1022384F80A
:1030BC003D30211D2068FFF7B9FF012384F83D3016
:1030CC00002010BD80F83C3001F0C2FDEEE701207D
:1030DC00704790F83C30012B22D030B4012280F89C
:1030EC003C20022380F83D300468636823F07003B1
:1030FC006360046863680D682B4363600468A368AD
:10310C0023F08003A3600468A36849680B43A360A1
:10311C0080F83D20002380F83C30184630BC7047C6
:10312C00022070470268D36823F49073D36002685E
:10313C00536923F001035361202380F83A30704720
:10314C0090F83930DBB2212B2AD18368B3F5805F3C
:10315C0016D0036A5A1C02621A7803685A60C38C30
:10316C00013B9BB2C384EBB90268D36823F08003A4
:10317C00D3600268D36843F04003D36000207047EB
:10318C00036A1B880268C3F30803536003691BB905
:10319C00036A02330362E2E7036A01330362DEE788
:1031AC0002207047002070472DE9F843054602685D
:1031BC00136923F44053C1680B431361836802699C
:1031CC001343426913430168CA6822F4B05222F0D7
:1031DC000C021343CB600268536923F4407381697A
:1031EC000B4353610268594B9A4257D0FFF7E0F8F2
:1031FC0000EB800000EB80006C68A400B0FBF4F4E2
:10320C00534FA7FB043464092601FFF7D1F800EBF8
:10321C00800000EB80006C68A400B0FBF4F9FFF7B1
:10322C00C7F800EB800000EB80006C68A400B0FBDA
:10323C00F4F4A7FB043464094FF0640808FB1494FD
:10324C0024013234A7FB0434640904F0F004344440
:10325C00FFF7AEF800EB800000EB80006E68B60064
:10326C00B0FBF6F6FFF7A4F800EB800000EB800053
:10327C006B689B00B0FBF3F0A7FB0030400908FB28
:10328C0010684FEA081808F13208A7FB0837C7F393
:10329C0043172B6827449F60BDE8F883FFF798F825
:1032AC0000EB800000EB80006C68A400B0FBF4F431
:1032BC00274FA7FB043464092601FFF789F800EBBC
:1032CC00800000EB80006C68A400B0FBF4F9FFF701
:1032DC007FF800EB800000EB80006C68A400B0FB72
:1032EC00F4F4A7FB043464094FF0640808FB14944D
:1032FC0024013234A7FB0434640904F0F004344490
:10330C00FFF766F800EB800000EB80006E68B600FB
:10331C00B0FBF6F6FFF75CF800EB800000EB8000EA
:10332C006B689B00B0FBF3F0A7FB0030400908FB77
:10333C0010684FEA081808F13208A7FB0837C7F3E2
:10334C0043172B6827449F60A6E700BF0038014055
:10335C001F85EB512DE9F04105460F461646984660
:10336C00069C2B681B6837EA03030CBF0123002360
:10337C00B3421DD1B4F1FF3FF3D02CB1FCF722FFC7
:10338C00A0EB0800A042ECD92A68D36823F4D073D0
:10339C00D3602A68536923F001035361202385F815
:1033AC00393085F83A30002385F83830032000E0B6
:1033BC000020BDE8F08158B310B5044690F83930C0
:1033CC000BB3242384F839302268D36823F40053D8
:1033DC00D3602046FFF7E8FE2268136923F490437C
:1033EC0013612268536923F02A0353612268D3685E
:1033FC0043F40053D3600020E063202384F8393079
:10340C0084F83A3010BD80F8383001F035FCD8E73C
:10341C00012070472DE9F04182B01E4690F83930FA
:10342C00DBB2202B55D104460D469046002955D0D1
:10343C00002A55D090F83830012B53D0012380F856
:10344C0038300023C363212380F83930FCF7BAFEEF
:10345C000746A4F82480A4F8268010E000963B468A
:10346C00002280212046FFF775FF00283CD12B88D5
:10347C002268C3F3080353602369C3B90235E38C94
:10348C009BB2B3B1E38C013B9BB2E384A368B3F56D
:10349C00805FE3D000963B46002280212046FFF758
:1034AC0059FF18BB2A7823685A600135E7E70135C4
:1034BC00E5E700963B46002240212046FFF74AFFF5
:1034CC000346A8B9202284F83920002284F8382039
:1034DC0000E00223184602B0BDE8F0810123F9E7B1
:1034EC000123F7E70223F5E70323F3E70323F1E7CF
:1034FC000323EFE7704708B50168CB6823F040035E
:10350C00CB60202380F83930FFF7F4FF002008BD92
:10351C00704708B590F83A30DBB2222B45D183685E
:10352C00B3F5805F0ED0036903BB03685A68836AE6
:10353C00591C81621A70C38D013B9BB2C385F3B1D8
:10354C00002033E0826A036943B903685B68C3F304
:10355C0008031380836A02338362ECE703685B68B9
:10356C00DBB21380836A01338362E4E703685B6830
:10357C00826A511C816203F07F031370DBE70268DF
:10358C00D36823F02003D3600268D36823F48073DC
:10359C00D3600268536923F001035361202380F840
:1035AC003A30FFF7B5FF002000E0022008BD70475D
:1035BC0010B5044602681368D168526913F00F0005
:1035CC0005D113F0200F02D011F0200F53D1002899
:1035DC0067D012F0010202D111F4907F61D013F088
:1035EC00010F06D011F4807F03D0E06B40F0010096
:1035FC00E06313F0040F04D01AB1E06B40F002004A
:10360C00E06313F0020F04D01AB1E06B40F0040039
:10361C00E06313F0080F04D01AB1E26B42F0080219
:10362C00E263E26B002A48D013F0200F02D011F0B5
:10363C00200F24D123685B6903F04003E26B12F086
:10364C00080F00D13BB32046FFF76CFD23685A6985
:10365C0012F0400F1BD05A6922F040025A61636B82
:10366C008BB11A4A5A63606BFCF784FF28B3606B0A
:10367C00436B984721E02046FFF74BFF1DE02046A7
:10368C00FFF747FFD6E72046FFF791FF15E02046EE
:10369C00FFF78DFF11E02046FFF789FF0023E3635E
:1036AC000BE013F0800F02D011F0800F06D113F055
:1036BC00400F02D011F0400F04D110BD2046FFF78F
:1036CC003FFDFAE72046FFF716FFF6E7DD36000868
:1036DC0008B5406A0023C385C384FFF768FF08BDA3
:1036EC0010B4CB78032B0FD8DFE803F0026D5460D5
:1036FC000A7830F822309BB223F4EC4323F07003A9
:10370C0043F4007320F822300A7830F8223023F08A
:10371C00F0031B051B0D134343F4004343F08003DC
:10372C0020F822308B7A002B40F0AF804B78002BA6
:10373C0056D08A885208B0F850300C7803EBC4038A
:10374C0000EB43035200C3F800240A7830F822300F
:10375C0013F0400F0BD030F8223023F0F0031B0590
:10376C001B0D43F4004343F0C00320F822300A78C9
:10377C0030F822309BB223F4E04323F0400383F073
:10378C00200343F4004343F0800320F82230002050
:10379C0010BC70470A7830F822309BB223F4EC430B
:1037AC0023F070039BB220F82230ADE70A7830F892
:1037BC0022309BB223F4EC4323F0700343F4C06338
:1037CC0020F82230A0E70A7830F822309BB223F49C
:1037DC00EC4323F0700343F4806320F8223093E72A
:1037EC008A885208B0F850300C7803EBC4030433C9
:1037FC0000EB43035200C3F80024B0F850300A78B1
:10380C0003EBC203063300EB43030C693E2C30D9A7
:10381C00C4F34F1214F01F0F01D1013A92B26FEAA8
:10382C00C2626FEA524292B2C3F800240A7830F8AE
:10383C00223013F4804F0BD030F8223023F0F003F9
:10384C001B051B0D43F4404343F0800320F822304A
:10385C000A7830F822309BB223F4804323F07003B3
:10386C0083F4405343F4004343F0800320F82230A8
:10387C008DE7C4F34F0214F0010F01D0013292B264
:10388C00920292B2C3F80024D0E70A7830F82230C2
:10389C0023F4F8731B051B0D43F4014343F0800321
:1038AC0020F82230CA885208B0F850300C7803EB5C
:1038BC00C40300EB43035200C3F800240A895208E6
:1038CC00B0F850300C7803EBC403043300EB430323
:1038DC005200C3F800244B78002B4BD10A7830F8F7
:1038EC00223013F4804F0BD030F8223023F0F00349
:1038FC001B051B0D43F4404343F0800320F822309A
:10390C000A7830F8223013F0400F0BD030F8223008
:10391C0023F0F0031B051B0D43F4004343F0C003DD
:10392C0020F822300A7830F8223023F0F0031B05FF
:10393C001B0D43F4004343F0C00320F822300A78F7
:10394C0030F822309BB223F4804323F0700383F4CD
:10395C00405348F28004234320F822300A7830F890
:10396C0022309BB223F4E04323F04003234320F89E
:10397C0022300CE70A7830F8223013F4804F0BD049
:10398C0030F8223023F0F0031B051B0D43F44043A9
:10399C0043F0800320F822300A7830F8223013F0FC
:1039AC00400F0BD030F8223023F0F0031B051B0D19
:1039BC0043F4004343F0C00320F822300A7830F877
:1039CC00223023F0F0031B051B0D43F4404343F05E
:1039DC00800320F822300B7830F8232092B222F4A6
:1039EC00E04222F0400248F28004224320F82320D7
:1039FC000A7830F822309BB223F4804323F0700312
:103A0C00234320F82230C2E60A788AB14B7813BBE4
:103A1C0030F822309BB223F4804323F0700383F4FC
:103A2C00805343F4004343F0800320F8223010E02D
:103A3C0030F822309BB223F4804323F0400383F40C
:103A4C00805383F0100343F4004343F0800320F8C9
:103A5C0022300020704730F822309BB223F4E04330
:103A6C0023F0400383F0100343F4004343F080033E
:103A7C0020F82230EDE74B781BB30A7830F822306F
:103A8C0013F0400F0BD030F8223023F0F0031B055D
:103A9C001B0D43F4004343F0C00320F822300A7896
:103AAC0030F822309BB223F4E04323F0400383F040
:103ABC00300343F4004343F0800320F8223000200D
:103ACC0070470A7830F8223013F4804F0BD030F85E
:103ADC00223023F0F0031B051B0D43F4404343F04D
:103AEC00800320F822300A7830F822309BB223F47D
:103AFC00804323F0700383F4405343F4004343F0BA
:103B0C00800320F82230DAE711B98023A0F84C307A
:103B1C0000207047B0F84400704700207047013314
:103B2C005B1000EB420202F5806263B110B40C78BA
:103B3C00487844EA002422F8044B0231013B002B64
:103B4C00F5D110BC70477047F8B58A694D78012DD6
:103B5C0034D00B69934280F0EA80D21A8A618A7A57
:103B6C00002A40F0F480B0F850200C7802EBC4022C
:103B7C00063200EB42023E2B40F2DD80C3F34F14C1
:103B8C0013F01F0F01D1013CA4B26FEAC4646FEAB9
:103B9C005444A4B2C2F800440A7830F822309BB2E4
:103BAC0023F4804323F0700383F4405343F4004325
:103BBC0043F0800320F822300020F8BD0F699742B3
:103BCC0025D2D21B8A610E4604468B7A1BB30B7826
:103BDC0030F8232012F0400F69D0002D37D1B0F807
:103BEC00502002EBC303063300EB43033E2F22D9D4
:103BFC00C7F34F1217F01F0F01D1013A92B26FEABF
:103C0C00C2626FEA524292B2C3F8002428E0002349
:103C1C008B611746D7E7BBB28A884969FFF77FFFEC
:103C2C00B4F85030327803EBC203023304EB430395
:103C3C00C3F800742AE0C7F34F0217F0010F01D04C
:103C4C00013292B2920292B2C3F8002408E0B0F8AA
:103C5C00502002EBC303023300EB4303C3F80074A0
:103C6C003289BBB271692046FFF759FF7378002B7C
:103C7C004DD1327834F8223023F0F0031B051B0DA4
:103C8C0043F4004343F0C00324F82230327834F874
:103C9C0022309BB223F4E04323F0400383F0300343
:103CAC0043F4004343F0800324F8223084E71DBB27
:103CBC00B0F8502002EBC303023300EB43033E2F5A
:103CCC000ED9C7F34F1217F01F0F01D1013A92B260
:103CDC006FEAC2626FEA524292B2C3F8002414E057
:103CEC00C7F34F0217F0010F01D0013292B29202CA
:103CFC0092B2C3F8002408E0B0F8502002EBC303E2
:103D0C00023300EB4303C3F80074F288A9E7012BDC
:103D1C00BCD1327834F8223023F0F0031B051B0D94
:103D2C0043F4404343F0800324F82230AEE70023F1
:103D3C008B61134613E7C3F34F0413F0010F01D04B
:103D4C000134A4B2A402A4B2C2F8004424E7BDB961
:103D5C00B0F850200C7802EBC402023200EB4202A5
:103D6C003E2B28D9C3F34F1413F01F0F01D1013C84
:103D7C00A4B26FEAC4646FEA5444A4B2C2F800441B
:103D8C004A7882BBB0F850200C7802EBC4020632A1
:103D9C0000EB42023E2B1AD9C3F34F1413F01F0F42
:103DAC0001D1013CA4B26FEAC4646FEA5444A4B2DA
:103DBC00C2F80044F0E6C3F34F0413F0010F01D036
:103DCC000134A4B2A402A4B2C2F80044D8E7C3F3ED
:103DDC004F0413F0010F01D00134A4B2A402A4B219
:103DEC00C2F80044D8E6012A7FF4D6AEB0F85020D1
:103DFC000C7802EBC402023200EB4202C2F800342F
:103E0C00CAE601335B1000EB420202F5806204E06B
:103E1C00106821F8020B013B0432002BF8D17047DB
:103E2C00D0F81832C3F80812C3F8102200207047DB
:103E3C00D0F818228AB108B5D2F814320BB101208F
:103E4C0008BD0123C2F81432B2F81032D2F808229D
:103E5C00812101F065F80020F2E70220704708B5D7
:103E6C00D0F8143233B11B68984708B9002008BD4C
:103E7C000220FCE70220FAE708B5D0F814325B68A0
:103E8C009847002008BD38B5044600F50275284651
:103E9C0000F002F90123C4F8F431B4F80E32C4F87E
:103EAC00F83194F8081201F01F03012B0ED03BB12E
:103EBC00022B10D001F08001204600F0F4FF03E04B
:103ECC002946204600F061FA002038BD29462046DC
:103EDC0000F07FFAF8E72946204600F096FAF3E75F
:103EEC0010B5044621BB1346D0F8F421032A01D0A7
:103EFC00002010BDD0F80C11D0F8102191420CD834
:103F0C00D0F814321B6923B190F8FC21032A00D19C
:103F1C009847204600F022FBEAE7891AC0F80C11FA
:103F2C008A4228BF0A4692B2194600F00FFBDFE71F
:103F3C000A46D0F814329B69002BD9D090F8FC11AA
:103F4C000329D5D111469847D2E710B5044600296C
:103F5C0046D11346D0F8F421022A05D094F8003249
:103F6C00012B39D0002010BDC169026A914219D8C9
:103F7C008169B1FBF2F302FB13132BB98A4203D80C
:103F8C00D0F8F83199421AD3D4F81432DB682BB13B
:103F9C0094F8FC21032A01D120469847204600F0D2
:103FAC00E8FADBE78A1AC26192B2194600F0C6FA47
:103FBC0000231A461946204600F0C0FFCEE7002227
:103FCC00114600F0BBFA0021C4F8F8110B460A4662
:103FDC00204600F0B3FFC1E7002384F80032C1E7AC
:103FEC000A46D0F814325B69002BBBD090F8FC1158
:103FFC000329B7D111469847B4E738B50446402396
:10400C000022114600F03EFF4025C4F810512B460B
:10401C0000228021204600F035FF2562012384F820
:10402C00FC31D4F818322BB1D4F814325B682179F6
:10403C0020469847002038BD01740020704790F846
:10404C00FC3180F8FD31042380F8FC3100207047EE
:10405C0090F8FD3180F8FC310020704708B590F8DD
:10406C00FC31032B01D0002008BDD0F81432DB69E1
:10407C00002BF8D09847F6E74B88012B0BD110B5E5
:10408C000446C0F80432D0F814329B689847204696
:10409C0000F064FA10BD70470B7803704B784370D6
:1040AC008B78CA7803EB022343800B794A7903EBB4
:1040BC00022383808B79CA7903EB0223C380704778
:1040CC0010B50446802100F0EEFE0021204600F0E1
:1040DC00EAFE10BD30B583B004460D464A88130A7B
:1040EC00013B062B00F28180DFE803F00413277FED
:1040FC007F637000D0F810321B680DF10601007C54
:10410C009847BDF8062012B1EB88002B71D103B093
:10411C0030BD037C43B9D0F814329B6A0DF1060014
:10412C00984702234370ECE7D0F81432DB6A0DF1A8
:10413C000600984702234370E3E7D2B2052A34D82D
:10414C00DFE802F0030B131B232BD0F810325B6853
:10415C000DF10601007C9847D3E7D0F810329B682C
:10416C000DF10601007C9847CBE7D0F81032DB68E4
:10417C000DF10601007C9847C3E7D0F810321B699B
:10418C000DF10601007C9847BBE7D0F810325B6953
:10419C000DF10601007C9847B3E7D0F810329B690B
:1041AC000DF10601007C9847ABE72946FFF788FF25
:1041BC00ADE7037C33B9D0F814325B6B0DF106001C
:1041CC0098479EE72946FFF77BFFA0E7037C43B99E
:1041DC00D0F814321B6B0DF106009847072343707F
:1041EC008FE72946FFF76CFF91E72946FFF768FF39
:1041FC008DE79A4228BF1A46ADF8062001462046A4
:10420C0000F08FF983E738B504468B88E3B9CB8887
:10421C00D3B98D7805F07F0590F8FC31032B0CD0C9
:10422C0080F8FE51294600F06DFE204600F096F90C
:10423C0035B1022384F8FC3109E0FFF741FF06E0B9
:10424C00012384F8FC3102E02046FFF739FF38BD2A
:10425C0038B504460D468978254B1970012909D8C3
:10426C0090F8FC31022B09D0032B1CD02946FFF708
:10427C0027FF02E02946FFF723FF38BD81B14160DB
:10428C00032380F8FC31FFF7EAFD022803D0204617
:10429C0000F064F9F1E729462046FFF711FFECE73F
:1042AC0000F05CF9E9E789B1436899421DD0D9B2B5
:1042BC00FFF7E2FD0E4B197861602046FFF7CFFD4A
:1042CC0002280DD0204600F049F9D6E7022380F8E9
:1042DC00FC314160FFF7D0FD204600F03FF9CCE700
:1042EC0029462046FFF7ECFEC7E700F037F9C4E794
:1042FC003402002008B5CB88012B08D190F8FC3192
:10430C00022B07D0032B0DD0FFF7DAFE01E0FFF7ED
:10431C00D7FE08BD0146002341F8083F012200F0FA
:10432C0000F9F6E70122011D00F0FBF8F1E708B5F2
:10433C0090F8FC31023B012B0CD80123C360D0F860
:10434C0004320BB10323C360022200F10C0100F014
:10435C00E8F808BDFFF7B4FEFBE710B5044690F88B
:10436C00FC31023B012B0DD84B88012B09D10023CA
:10437C00C0F80432D0F814329B689847204600F0FD
:10438C00EDF810BDFFF79CFEFBE708B54B78092B49
:10439C001CD8DFE803F012181B151B09051B0F0CAA
:1043AC00FFF798FE002008BDFFF72DFFFAE7FFF797
:1043BC004FFFF7E7FFF79EFFF4E7FFF7B8FFF1E7D2
:1043CC00FFF75AFEEEE7FFF7C8FFEBE7FFF778FEC3
:1043DC00E8E738B504460D4690F8FC31032B11D1B3
:1043EC000B79012B0BD8D0F814329B689847EB88CB
:1043FC000BB1002038BD204600F0B0F8F9E7FFF70C
:10440C005FFEF6E7FFF75CFEF3E738B505460C46B2
:10441C008A880B7803F06003202B05D1D0F8143276
:10442C009B689847002038BDD1B26378012B25D00A
:10443C00002B47D0032BF5D190F8FC31022B05D083
:10444C00032B0AD02146FFF73BFEEBE70029E9D00E
:10445C008029E7D000F027FDE4E7638823B919B180
:10446C00802901D000F01FFDD5F814329B6821463D
:10447C0028469847284600F071F8D3E790F8FC31AD
:10448C00022B05D0032B0AD02146FFF719FEC9E7F2
:10449C000029C7D08029C5D000F005FDC2E763888C
:1044AC00002BBFD111F07F0F03D1284600F056F836
:1044BC00B8E700F006FDD5F814329B682146284673
:1044CC009847F2E790F8FC31022B05D0032B09D06A
:1044DC002146FFF7F5FDA5E711F07F0FA2D000F004
:1044EC00E2FC9FE712F0800F11D101F07F04103431
:1044FC0000EB04140434284600F0F1FC70B10123E5
:10450C00236002222146284600F00BF88AE701F0CE
:10451C007F04013400EB04140434ECE70023236023
:10452C00EFE710B513460222C0F8F4218361C36192
:10453C000A46002100F0F4FC002010BD08B513461B
:10454C000A46002100F0ECFC002008BD08B513461B
:10455C000A46002100F0F2FC002008BD08B5042337
:10456C00C0F8F43100231A46194600F0D9FC00209B
:10457C0008BD08B50523C0F8F43100231A461946C6
:10458C0000F0DCFC002008BD70B594B000240C9445
:10459C000D940F940594069407940894099401942F
:1045AC0002940394049409230A934FF480330B93DD
:1045BC0001250E9510950226119612934FF4801337
:1045CC0013930AA8FDF7FAFB0F230593069607949D
:1045DC004FF4806308930994294605A8FDF714FE4F
:1045EC00132301934FF4007302934FF4004303938E
:1045FC004FF48003049301A8FDF7FAFE14B070BDCC
:10460C0070B584B000250195029503950C4C0D4BAB
:10461C002360A560E56065614FF46023E36165602C
:10462C00012626612046FBF7A9FE0C230193029676
:10463C00039501A92046FBF7DFFD04B070BD00BF58
:10464C00DC0300200024014008B50948094B036035
:10465C00094B436000238360C3604FF480420261C6
:10466C0043618361C3610362FCF730FA08BD00BF8C
:10467C008803002000540040A086010030B583B0B0
:10468C000024ADF804408DF806400094124D134BF5
:10469C002B604FF0FF336B604FF48073AB60284698
:1046AC00FEF768F98DF804408DF805408DF806404A
:1046BC00012201A92846FEF774F801228DF800208A
:1046CC008DF801208DF802208DF8034069462846AC
:1046DC00FEF7C8F803B030BD0C04002000280040E1
:1046EC0008B50C480C4B03604FF4827343600023F5
:1046FC008360C360036143614FF4007282610822DE
:10470C00C2610362436283620A23C362FEF76DFBDC
:10471C0008BD00BFF00200200038004030B587B063
:10472C0000240294039404940594009401940F4D76
:10473C004FF080432B6040F2DF136B60AC600C4B8E
:10474C00EB602C61AC612846FEF7AAFC4FF4805359
:10475C00029302A92846FEF7E5FB009401946946F2
:10476C002846FEF7B6FC07B030BD00BF2004002081
:10477C0040420F0008B50848084B03604FF4E13382
:10478C00436000238360C36003610C224261836138
:10479C00C361FEF710FE08BD48030020004800402E
:1047AC002DE9F04389B000240494059406940794F1
:1047BC003A4B9A6942F010029A619A6902F010021F
:1047CC000092009A9A6942F020029A619A6902F06A
:1047DC0020020192019A9A6942F004029A619A6944
:1047EC0002F004020292029A9A6942F008029A615B
:1047FC009B6903F008030393039BDFF8AC902246FC
:10480C004FF480414846FBF7F2FFDFF8A0802246C8
:10481C0040F604314046FBF7EAFF214E22464FF4A6
:10482C0080513046FBF7E3FF4FF48043049301259E
:10483C00059506940227079704A94846FBF7E6FE60
:10484C0004950594069404A94046FBF7DFFE40F658
:10485C000433049305950694079704A94046FBF787
:10486C00D5FE04950F4B0593069404A93046FBF72F
:10487C00CDFE4FF48053049305950694079704A935
:10488C003046FBF7C3FE224629460620FBF710FEF6
:10489C000620FBF741FE09B0BDE8F0830010024092
:1048AC00000C0140000011100010014000080140F4
:1048BC0008B54FF0804300225A620248FEF70EFB07
:1048CC0008BD00BF2004002008B50348FEF713FB09
:1048DC004FF08043586A08BD200400202DE9F043B6
:1048EC008DB04E4B93E803000A90ADF82C100124C8
:1048FC0007944FF4804506950026089602230993E9
:10490C00FBF742FCFFF740FEFFF74AFFFFF7E8FE1C
:10491C00FFF730FFFFF798FEFFF7B0FEFFF7FEFE44
:10492C00FFF76EFE3E4B9A6942F010029A619B694A
:10493C0003F010030193019BDFF8189106A9484678
:10494C00FBF764FE4FF48058CDF81880354F06A95C
:10495C003846FBF75BFE4FF48070FDF70DFA0294BE
:10496C000396049402A93048FBF750FE01F0C6F9F7
:10497C002E4B40F6BE225A8200F071FB2C4B186075
:10498C00224629464846FBF732FF22464146384626
:10499C00FBF72DFF642306220AA92648FEF73AFDF1
:1049AC000FE0254C254BD3E900232549204601F087
:1049BC0033FB0146204600F00BFAFFF785FF1C4B3A
:1049CC009860FFF775FF194C0121204601F0C0F9E2
:1049DC000221204601F0BCF90321204601F0B8F970
:1049EC000421204601F0B4F9164800F050FB104B9E
:1049FC001B79012BD5D10E4B00221A71124801F0F4
:104A0C00D2FA82B2114B1A800B4C1149204601F09C
:104A1C0003FB0146204600F0DBF9C2E7386B0008C7
:104A2C0000100240000C01400008014090040020DE
:104A3C003802002048030020B8040020B0040020F5
:104A4C002C6B000860040020DC05002044050020CD
:104A5C00186B00080010014082B00D4B9A6942F0AF
:104A6C0001029A619A6902F001020092009ADA69D5
:104A7C0042F08052DA61DB6903F080530193019BB1
:104A8C00044A536823F0E063536002B0704700BFE0
:104A9C00001002400000014000B587B000230293D3
:104AAC000393049305930268114B9A4202D007B00A
:104ABC005DF804FB03F56C439A6942F400729A6149
:104ACC009A6902F400720092009A9A6942F01002FC
:104ADC009A619B6903F010030193019B0C230293D1
:104AEC000323039302A90348FBF790FDDFE700BF04
:104AFC00002401400010014010B586B00023029341
:104B0C000393049305930268194B9A4201D006B0A3
:104B1C0010BD184CA36943F00803A361A36903F00B
:104B2C0008030093009BC0230293122303930323D7
:104B3C00059302A91048FBF769FDE36943F40013E0
:104B4C00E361E36903F400130193019B002202214A
:104B5C001F20FBF7ADFC1F20FBF7DEFC00221146EB
:104B6C002020FBF7A5FC2020FBF7D6FCCFE700BFED
:104B7C000054004000100240000C014002680F4B32
:104B8C009A4200D0704700B583B0FDF7EFF80C4B9C
:104B9C00DA6942F00062DA61DB6903F000630193C9
:104BAC00019B0121074B196000220320FBF780FCBD
:104BBC000320FBF7B1FC03B05DF804FB00280040B8
:104BCC00001002403C04424270B586B000230293B0
:104BDC0003930493059302681B4B9A4201D006B0D1
:104BEC0070BD03F5EC33DA6942F48042DA61DA69BC
:104BFC0002F480420092009A9A6942F008029A618B
:104C0C009B6903F008030193019B4FF4204302932B
:104C1C0002250395032305930C4E02A93046FBF79E
:104C2C00F5FC4FF48043029300240394049402A9EE
:104C3C003046FBF7EBFC224629462420FBF738FCD8
:104C4C002420FBF769FCCAE700380040000C014047
:104C5C000368B3F1804F00D0704782B003F5043382
:104C6C00DA6942F00102DA61DB6903F001030193B6
:104C7C00019B02B07047000030B587B0002302934F
:104C8C0003930493059302681B4B9A4201D007B01F
:104C9C0030BD03F5E433DA6942F48022DA61DA6973
:104CAC0002F480220092009A9A6942F008029A61FA
:104CBC009B6903F008030193019B4FF480630293FB
:104CCC0002230393032305930C4D02A92846FBF7FB
:104CDC009DFC4FF40063029300240394049402A9F6
:104CEC002846FBF793FC224601212720FBF7E0FB2B
:104CFC002720FBF711FCCAE700480040000C0140DC
:104D0C007047FEE7FEE7FEE7FEE770477047704727
:104D1C0008B5FBF74BFA08BD08B50248FDF78EFE47
:104D2C0008BD00BF0C04002008B50120FBF76AFD8C
:104D3C0008BD000008B50248FCF713FF08BD00BF12
:104D4C002808002008B50248FCF71EFB08BD00BF70
:104D5C008803002008B50248FCF7CAFB08BD00BF59
:104D6C008803002008B50248FDF7BEFF08BD00BF50
:104D7C00F002002008B50248FEF71AFC08BD00BF7F
:104D8C00480300200F4B1A6842F001021A60596860
:104D9C000D4A0A405A601A6822F0847222F480325A
:104DAC001A601A6822F480221A605A6822F4FE02F1
:104DBC005A604FF41F029A60044B4FF000629A60E5
:104DCC00704700BF001002400000FFF800ED00E04B
:104DDC00094BD3F81832D3F814320BB101207047B9
:104DEC0010B50A460146044C2046FFF719F8204638
:104DFC00FFF71EF810BD00BF0406002008B500F236
:104E0C002C41D0F85C04FFF73EF808BD08B500EB68
:104E1C004113D3F83C22D0F85C04FFF761F808BDCD
:104E2C0008B500EB4113DA6BD0F85C04FFF78DF892
:104E3C0008BD08B5D0F85C04FFF710F908BD10B533
:104E4C0004460121D0F85C04FFF7F6F8D4F85C04B2
:104E5C00FFF7D3F810BD000010B50446D0F85C0481
:104E6C00FFF7EDF8A36923B1024A136943F0060377
:104E7C00136110BD00ED00E008B5D0F85C04FFF73D
:104E8C00E7F808BD10B51C4613462246D0F82002A0
:104E9C00FCF7DFFB18B1022803D0022010BD002064
:104EAC00FCE70120FAE708B5D0F82002FCF709FF6F
:104EBC0018B1022803D0022008BD0020FCE7012015
:104ECC00FAE708B5D0F82002FCF729FF18B1022840
:104EDC0003D0022008BD0020FCE70120FAE7D0F83F
:104EEC00203211F0800F06D101F07F0103EB41114C
:104EFC0091F82A02704701F07F0103EB411191F800
:104F0C002A00704708B5D0F82002FCF78EFB18B1C8
:104F1C00022803D0022008BD0020FCE70120FAE79C
:104F2C0008B5D0F82002FCF7DCFB18B1022803D03E
:104F3C00022008BD0020FCE70120FAE708B5D0F8F4
:104F4C002002FCF7AFFB18B1022803D0022008BDE9
:104F5C000020FCE70120FAE710B582B081B10C46C5
:104F6C0060F03F008DF804007F2913D961F07F01B8
:104F7C008DF80510C4F3C7148DF80640032004E027
:104F8C0060F07F008DF80400012001A900F0BAFC4C
:104F9C0002B010BD8DF805100220F6E71318B3F51A
:104FAC00806F09DC10B514460B46821E2146092081
:104FBC00FFF7D2FF002010BD4FF0FF30704710B547
:104FCC0082B081B10C4640F040008DF804007F297E
:104FDC0011D961F07F018DF80510C4F3C7148DF859
:104FEC000640032002E08DF80400012001A900F026
:104FFC00BFFC02B010BD8DF805100220F6E710B50D
:10500C00144603460A4621461120FFF7D8FF10BD6F
:10501C0008B50346052200211720FFF7D0FF08BD75
:10502C0008B50346052200211520FFF7C8FF08BD6F
:10503C0000B583B001AB042289B280B2FFF7BFFF89
:10504C000323002006E002AA1A4412F8042C02EBF7
:10505C000020013B002BF6DA03B05DF804FB08B529
:10506C0000210846FFF7E4FF08BD00B583B001AB93
:10507C00022289B280B2FFF7A2FF9DF805309DF89D
:10508C00040000EB032080B203B05DF804FB10B504
:10509C00044605211520FFF7E8FFE08100212E20B2
:1050AC00FFF7E3FF234623F8040B0822002112200C
:1050BC00FFF785FF07211520FFF7D7FF6080002140
:1050CC001020FFF7B5FF000DA08110BD00B583B017
:1050DC000DF10703012289B280B2FFF770FF9DF832
:1050EC00070003B05DF804FB00B583B002AB03F816
:1050FC00012D012289B280B2FFF72EFF03B05DF8BB
:10510C0004FB00B583B08DF80420120A8DF805203D
:10511C0001AB022289B280B2FFF71EFF03B05DF82B
:10512C0004FB08B5024641F604012E20FFF7E9FF07
:10513C0008BD08B5024600211820FFF7E2FF08BDA4
:10514C0010B582B0002305E002AC1C4404F8042C1A
:10515C00120A0133032BF7DD01AB042289B280B2B2
:10516C00FFF7FAFE02B010BD08B5064B1B68DB68F2
:10517C00184340EA815040EAC23200210820FFF770
:10518C00DFFF08BD0C00002008B5024604212D20CD
:10519C00FFF7B7FF032206212D20FFF7A5FF002202
:1051AC0006212D20FFF7A0FF0A212D20FFF740FF3D
:1051BC0008BD08B5002202212C20FFF795FF022222
:1051CC0011462C20FFF790FF08BD10B504466D2248
:1051DC0040F606012E20FFF787FF3CB941F207622B
:1051EC0041F606012E20FFF78CFF10BD40F207623E
:1051FC0041F606012E20FFF784FFF6E72DE9F0417A
:10520C00044605784279794B33F812804678013E92
:10521C00F6B2042D00F0C680072D00F0C1800027E7
:10522C00E379002B40F0C080714B1A68136943F48A
:10523C00800313614FEAD8086D4B1968237A8B727F
:10524C000A6922F440320A61237A1B0403F44033C6
:10525C001A430A6100210420FFF772FF424642F60E
:10526C0004012E20FFF74DFF3046FFF7AEFF614BD8
:10527C0013F80580604B53F8282007212B20FFF7EB
:10528C005FFF5E4B13F808200B212B20FFF72CFF40
:10529C00FFB25B4BDA5D0B212820FFF725FF594B42
:1052AC0053F828200C212820FFF74AFFE279A37934
:1052BC0003EB4203544A32F8132002212720FFF754
:1052CC0020FF524B33F8162004212720FFF719FF3B
:1052DC00E379002B6FD0A378042B72D02022062107
:1052EC002720FFF70EFF282226212720FFF7FCFEA0
:1052FC00E37803EB8603464A52F823200821272043
:10530C00FFF71EFF638913B941F241036381628980
:10531C0020212720FFF7F5FE3E4F3A680C21232071
:10532C00FFF70EFF07EB4606B28804212320FFF798
:10533C00E8FEA279002A4FD1104605F00F032D018B
:10534C00EDB22B436178890401F440210B43120523
:10535C0002F440121343400400F400321343227948
:10536C00920502F0F8621343627943EAC2620021AB
:10537C001F20FFF7E5FEA27863781343E27952030E
:10538C001B49096842EA0342CA6000210820FFF762
:10539C00D7FE422200210D20FFF7A6FEBDE8F081CA
:1053AC0001273DE701273BE7114B1A68136923F4EA
:1053BC008003136140E7642206212720FFF7A1FE3A
:1053CC0096E7102206212720FFF79BFE10222621AC
:1053DC002720FFF789FE8BE7E3790F4AD25C002187
:1053EC002120FFF781FE01200322A6E7286A00088E
:1053FC000C000020D46A0008A46A00089C6A00080B
:10540C00986A0008BC6A0008806A00087C6A000878
:10541C005C6A0008906A00088C6A000810B50446A3
:10542C0000211A20FFF704FE000D0005C4F313023F
:10543C00024300211A20FFF783FE10BD38B510F08F
:10544C00010F2AD0044600212620FFF7F1FD20F49D
:10545C00705242F4A05200212620FFF771FE002169
:10546C003620FFF7E5FD40F4040200213620FFF75B
:10547C0067FE14F002040ED14FF488752A462821D9
:10548C003620FFF75DFE94B105F488722821362092
:10549C00FFF756FE0BE0064DF0E700212620FFF744
:1054AC00C7FD20F4705200212620FFF749FE38BDBD
:1054BC0010010F0010B582B0044601AB022200218E
:1054CC003620FFF77CFD0E2C12D8DFE804F0200804
:1054DC002911111111324111114E555C6500002337
:1054EC008DF804309DF8053003F0FE038DF805307F
:1054FC0001AB012200213620FFF72EFD0DF1050333
:10550C00012211463620FFF727FD02B010BD9DF990
:10551C00043023F0030343F001038DF80430E7E774
:10552C009DF9043023F0030343F002038DF804309B
:10553C00DEE79DF9043023F04C0343F048038DF86B
:10554C0004309DF8053063F07F038DF80530CFE70C
:10555C009DF8043003F0B3038DF804309DF805304A
:10556C0003F07F038DF80530C2E79DF8053043F05A
:10557C0002038DF80530BBE79DF8053003F0FD0301
:10558C008DF80530B4E79DF9043023F0300343F077
:10559C0020038DF80430ABE701238DF8043003238E
:1055AC008DF80530A4E708B50E20FFF783FF4FF404
:1055BC00004206212D20FFF7A4FD012000F09EF9EA
:1055CC000120FFF777FF08BD08B50020FFF772FF39
:1055DC00002204213620FFF794FD08BD08B50246D1
:1055EC0001210A20FFF7ACFD08BD000008B510F042
:1055FC00020F16D0144B1B6801225A75802210F032
:10560C00010F18D042F0060200210D20FFF76CFDAF
:10561C0003210F20FFF729FD10F4816F03D1002027
:10562C0008BD0022EBE7402200210D20FFF75CFDB6
:10563C004FF0FF30F4E742F0020200210D20FFF79B
:10564C0053FD4FF0FF30EBE70C00002038B505465A
:10565C0003210420FFF73AFD044665B90F4B1A6885
:10566C00136923F08053136100F0EF02032104202F
:10567C00FFF73AFD38BD2A4600210C20FFF741FD0B
:10568C0044F01002054B19680B6943F080530B6111
:10569C00D2B203210420FFF727FDEBE70C0000201A
:1056AC0008B5024624212720FFF72BFD08BD08B5BD
:1056BC00E02203213620FFF717FDF02203213620CC
:1056CC00FFF712FD08BD000008B5FFF77DFF0022B3
:1056DC0011462C20FFF715FD002206212C20FFF788
:1056EC0003FDFFF766FD002203213620FFF7FCFCCB
:1056FC00012000F003F9F02203213620FFF7F4FC1F
:10570C00024B1B6800225A7508BD00BF0C0000201C
:10571C0008B500F01F0242F060020E212B20FFF7AB
:10572C00E3FC08BD70B504466A4B1B6800221A7571
:10573C005A75DA829A62DA621A635A63FFF78FFC3F
:10574C00654B984240F0C28014F002051BD015B195
:10575C0014F0F80F02D10020FFF7ACFE0422002158
:10576C002420FFF7C1FCEDB90420FFF70DFDC0B2FA
:10577C0060B92DB304F00A030A2B21D0554B1B68DA
:10578C000020D87224E0FFF79FFFE0E702221221ED
:10579C002D20FFF7A9FC4F4B1A68D38A43F4805392
:1057AC00D382E6E730212820FFF742FCB0F1883F96
:1057BC00DFD0484B1A68D38A43F48053D382D8E79E
:1057CC001E20FFF7E1FC80B2424B1B68020ADA7222
:1057DC0035B910F01F0F00D11020C0B2FFF798FFA1
:1057EC0014F0100F40D13B4B1B6800221A6014F0D0
:1057FC00200F40D1374B1B6800225A6014F0400F29
:10580C0040D1344B1B6800221A7214F0800F40D127
:10581C00304B1B6800225A72002D4DD114F0010F31
:10582C003ED0FFF7C0FE2B4B1A68D38A43F40063BB
:10583C00D3820120FFF73EFE00220A212C20FFF725
:10584C0053FC244C256800210420FFF7F1FB286150
:10585C002468638A03F00303A37200210820FFF776
:10586C00E7FBE060002070BD1A4B1E680620FFF7B6
:10587C008BFC3060BBE7174B1E680720FFF784FCDE
:10588C007060BBE70820FFF77FFC124B1B68187297
:10589C00BBE70920FFF778FC0E4B1B685872BBE77F
:1058AC0005213620FFF7E1FB20F4007292B20521AE
:1058BC003620FFF726FCBCE714F0040FB9D1054BDA
:1058CC001A68D38A43F40063D382B2E74FF0FF30F7
:1058DC00C9E700BF0C0000203001CADE10B500F093
:1058EC00A7F9044608B9204610BD00F093F9FAE771
:1058FC0000B9704708B500F094F908BD08B500F080
:10590C00C0F808BD2DE9F0478246894690461F46EF
:10591C00FFF7E4FF0646144D2846FDF763FA01280D
:10592C000446F9D100224FF400711048FAF75FFFDA
:10593C00524649464FF0FF330B48FDF700F94FF044
:10594C00FF331FFA88F239460748FDF7F8F822466C
:10595C004FF400710548FAF74AFF3046FFF7C8FFCD
:10596C000020BDE8F08700BFF002002000080140D5
:10597C002DE9F84380460C4617461D46FFF7AEFF4F
:10598C000646DFF878904846FDF72CFA0128FAD144
:10599C0000224FF400711848FAF729FFB8F1000FF4
:1059AC000CD0DFF85890A044012221464FF0FF3371
:1059BC0014444846FDF7C3F84445F5D17FB10024A3
:1059CC000E48E91903689A689707FCD5DC609A6859
:1059DC00D207FCD5DB6805F8013B8D42F2D10122E0
:1059EC004FF400710448FAF702FF3046FFF780FFCE
:1059FC000020BDE8F88300BF00080140F002002041
:105A0C0000F01F02400901239340024A42F8203063
:105A1C00704700BF00E100E000F01F0240090123C5
:105A2C0093402030014A42F82030704700E100E0FA
:105A3C0080B485B000AF78600023FB6012E00023D7
:105A4C00BB6004E000BF00BFBB680133BB60BB6838
:105A5C00012BD4BF01230023DBB2002BF2D1FB6856
:105A6C000133FB60FB687A689A428CBF01230023E8
:105A7C00DBB2002BE3D1002318461437BD4680BCA3
:105A8C00704780B582B000AF78607868FAF7A0FBF9
:105A9C0000BF0837BD4680BD80B483B000AF7860CE
:105AAC000A4A7B685B0952F823207B6803F01F03CA
:105ABC0022FA03F303F00103002B14BF012300238C
:105ACC00DBB218460C37BD4680BC704700E100E0E5
